{
	"practice.sol": {
		"demo": {
			"abi": [
				{
					"inputs": [],
					"stateMutability": "nonpayable",
					"type": "constructor"
				},
				{
					"inputs": [],
					"name": "getName",
					"outputs": [
						{
							"internalType": "string",
							"name": "",
							"type": "string"
						},
						{
							"internalType": "uint256",
							"name": "",
							"type": "uint256"
						}
					],
					"stateMutability": "view",
					"type": "function"
				},
				{
					"inputs": [],
					"name": "setName",
					"outputs": [],
					"stateMutability": "nonpayable",
					"type": "function"
				}
			],
			"devdoc": {
				"kind": "dev",
				"methods": {},
				"version": 1
			},
			"evm": {
				"assembly": "    /* \"practice.sol\":57:358  contract demo{... */\n  mstore(0x40, 0x80)\n    /* \"practice.sol\":109:170  constructor ()  {... */\n  callvalue\n  dup1\n  iszero\n  tag_1\n  jumpi\n  0x00\n  dup1\n  revert\ntag_1:\n  pop\n    /* \"practice.sol\":135:147  name=\"Niroj\" */\n  mload(0x40)\n  dup1\n  0x40\n  add\n  0x40\n  mstore\n  dup1\n  0x05\n  dup2\n  mstore\n  0x20\n  add\n  0x4e69726f6a000000000000000000000000000000000000000000000000000000\n  dup2\n  mstore\n  pop\n    /* \"practice.sol\":135:139  name */\n  0x00\n    /* \"practice.sol\":135:147  name=\"Niroj\" */\n  swap1\n  dup2\n  tag_4\n  swap2\n  swap1\n  tag_5\n  jump\t// in\ntag_4:\n  pop\n    /* \"practice.sol\":161:163  22 */\n  0x16\n    /* \"practice.sol\":157:160  age */\n  0x01\n    /* \"practice.sol\":157:163  age=22 */\n  dup2\n  swap1\n  sstore\n  pop\n    /* \"practice.sol\":57:358  contract demo{... */\n  jump(tag_6)\n    /* \"#utility.yul\":7:106   */\ntag_7:\n    /* \"#utility.yul\":59:65   */\n  0x00\n    /* \"#utility.yul\":93:98   */\n  dup2\n    /* \"#utility.yul\":87:99   */\n  mload\n    /* \"#utility.yul\":77:99   */\n  swap1\n  pop\n    /* \"#utility.yul\":7:106   */\n  swap2\n  swap1\n  pop\n  jump\t// out\n    /* \"#utility.yul\":112:292   */\ntag_8:\n    /* \"#utility.yul\":160:237   */\n  0x4e487b7100000000000000000000000000000000000000000000000000000000\n    /* \"#utility.yul\":157:158   */\n  0x00\n    /* \"#utility.yul\":150:238   */\n  mstore\n    /* \"#utility.yul\":257:261   */\n  0x41\n    /* \"#utility.yul\":254:255   */\n  0x04\n    /* \"#utility.yul\":247:262   */\n  mstore\n    /* \"#utility.yul\":281:285   */\n  0x24\n    /* \"#utility.yul\":278:279   */\n  0x00\n    /* \"#utility.yul\":271:286   */\n  revert\n    /* \"#utility.yul\":298:478   */\ntag_9:\n    /* \"#utility.yul\":346:423   */\n  0x4e487b7100000000000000000000000000000000000000000000000000000000\n    /* \"#utility.yul\":343:344   */\n  0x00\n    /* \"#utility.yul\":336:424   */\n  mstore\n    /* \"#utility.yul\":443:447   */\n  0x22\n    /* \"#utility.yul\":440:441   */\n  0x04\n    /* \"#utility.yul\":433:448   */\n  mstore\n    /* \"#utility.yul\":467:471   */\n  0x24\n    /* \"#utility.yul\":464:465   */\n  0x00\n    /* \"#utility.yul\":457:472   */\n  revert\n    /* \"#utility.yul\":484:804   */\ntag_10:\n    /* \"#utility.yul\":528:534   */\n  0x00\n    /* \"#utility.yul\":565:566   */\n  0x02\n    /* \"#utility.yul\":559:563   */\n  dup3\n    /* \"#utility.yul\":555:567   */\n  div\n    /* \"#utility.yul\":545:567   */\n  swap1\n  pop\n    /* \"#utility.yul\":612:613   */\n  0x01\n    /* \"#utility.yul\":606:610   */\n  dup3\n    /* \"#utility.yul\":602:614   */\n  and\n    /* \"#utility.yul\":633:651   */\n  dup1\n    /* \"#utility.yul\":623:704   */\n  tag_32\n  jumpi\n    /* \"#utility.yul\":689:693   */\n  0x7f\n    /* \"#utility.yul\":681:687   */\n  dup3\n    /* \"#utility.yul\":677:694   */\n  and\n    /* \"#utility.yul\":667:694   */\n  swap2\n  pop\n    /* \"#utility.yul\":623:704   */\ntag_32:\n    /* \"#utility.yul\":751:753   */\n  0x20\n    /* \"#utility.yul\":743:749   */\n  dup3\n    /* \"#utility.yul\":740:754   */\n  lt\n    /* \"#utility.yul\":720:738   */\n  dup2\n    /* \"#utility.yul\":717:755   */\n  sub\n    /* \"#utility.yul\":714:798   */\n  tag_33\n  jumpi\n    /* \"#utility.yul\":770:788   */\n  tag_34\n  tag_9\n  jump\t// in\ntag_34:\n    /* \"#utility.yul\":714:798   */\ntag_33:\n    /* \"#utility.yul\":535:804   */\n  pop\n    /* \"#utility.yul\":484:804   */\n  swap2\n  swap1\n  pop\n  jump\t// out\n    /* \"#utility.yul\":810:951   */\ntag_11:\n    /* \"#utility.yul\":859:863   */\n  0x00\n    /* \"#utility.yul\":882:885   */\n  dup2\n    /* \"#utility.yul\":874:885   */\n  swap1\n  pop\n    /* \"#utility.yul\":905:908   */\n  dup2\n    /* \"#utility.yul\":902:903   */\n  0x00\n    /* \"#utility.yul\":895:909   */\n  mstore\n    /* \"#utility.yul\":939:943   */\n  0x20\n    /* \"#utility.yul\":936:937   */\n  0x00\n    /* \"#utility.yul\":926:944   */\n  keccak256\n    /* \"#utility.yul\":918:944   */\n  swap1\n  pop\n    /* \"#utility.yul\":810:951   */\n  swap2\n  swap1\n  pop\n  jump\t// out\n    /* \"#utility.yul\":957:1050   */\ntag_12:\n    /* \"#utility.yul\":994:1000   */\n  0x00\n    /* \"#utility.yul\":1041:1043   */\n  0x20\n    /* \"#utility.yul\":1036:1038   */\n  0x1f\n    /* \"#utility.yul\":1029:1034   */\n  dup4\n    /* \"#utility.yul\":1025:1039   */\n  add\n    /* \"#utility.yul\":1021:1044   */\n  div\n    /* \"#utility.yul\":1011:1044   */\n  swap1\n  pop\n    /* \"#utility.yul\":957:1050   */\n  swap2\n  swap1\n  pop\n  jump\t// out\n    /* \"#utility.yul\":1056:1163   */\ntag_13:\n    /* \"#utility.yul\":1100:1108   */\n  0x00\n    /* \"#utility.yul\":1150:1155   */\n  dup3\n    /* \"#utility.yul\":1144:1148   */\n  dup3\n    /* \"#utility.yul\":1140:1156   */\n  shl\n    /* \"#utility.yul\":1119:1156   */\n  swap1\n  pop\n    /* \"#utility.yul\":1056:1163   */\n  swap3\n  swap2\n  pop\n  pop\n  jump\t// out\n    /* \"#utility.yul\":1169:1562   */\ntag_14:\n    /* \"#utility.yul\":1238:1244   */\n  0x00\n    /* \"#utility.yul\":1288:1289   */\n  0x08\n    /* \"#utility.yul\":1276:1286   */\n  dup4\n    /* \"#utility.yul\":1272:1290   */\n  mul\n    /* \"#utility.yul\":1311:1408   */\n  tag_39\n    /* \"#utility.yul\":1341:1407   */\n  0xffffffffffffffffffffffffffffffffffffffffffffffffffffffffffffffff\n    /* \"#utility.yul\":1330:1339   */\n  dup3\n    /* \"#utility.yul\":1311:1408   */\n  tag_13\n  jump\t// in\ntag_39:\n    /* \"#utility.yul\":1429:1468   */\n  tag_40\n    /* \"#utility.yul\":1459:1467   */\n  dup7\n    /* \"#utility.yul\":1448:1457   */\n  dup4\n    /* \"#utility.yul\":1429:1468   */\n  tag_13\n  jump\t// in\ntag_40:\n    /* \"#utility.yul\":1417:1468   */\n  swap6\n  pop\n    /* \"#utility.yul\":1501:1505   */\n  dup1\n    /* \"#utility.yul\":1497:1506   */\n  not\n    /* \"#utility.yul\":1490:1495   */\n  dup5\n    /* \"#utility.yul\":1486:1507   */\n  and\n    /* \"#utility.yul\":1477:1507   */\n  swap4\n  pop\n    /* \"#utility.yul\":1550:1554   */\n  dup1\n    /* \"#utility.yul\":1540:1548   */\n  dup7\n    /* \"#utility.yul\":1536:1555   */\n  and\n    /* \"#utility.yul\":1529:1534   */\n  dup5\n    /* \"#utility.yul\":1526:1556   */\n  or\n    /* \"#utility.yul\":1516:1556   */\n  swap3\n  pop\n    /* \"#utility.yul\":1245:1562   */\n  pop\n  pop\n    /* \"#utility.yul\":1169:1562   */\n  swap4\n  swap3\n  pop\n  pop\n  pop\n  jump\t// out\n    /* \"#utility.yul\":1568:1645   */\ntag_15:\n    /* \"#utility.yul\":1605:1612   */\n  0x00\n    /* \"#utility.yul\":1634:1639   */\n  dup2\n    /* \"#utility.yul\":1623:1639   */\n  swap1\n  pop\n    /* \"#utility.yul\":1568:1645   */\n  swap2\n  swap1\n  pop\n  jump\t// out\n    /* \"#utility.yul\":1651:1711   */\ntag_16:\n    /* \"#utility.yul\":1679:1682   */\n  0x00\n    /* \"#utility.yul\":1700:1705   */\n  dup2\n    /* \"#utility.yul\":1693:1705   */\n  swap1\n  pop\n    /* \"#utility.yul\":1651:1711   */\n  swap2\n  swap1\n  pop\n  jump\t// out\n    /* \"#utility.yul\":1717:1859   */\ntag_17:\n    /* \"#utility.yul\":1767:1776   */\n  0x00\n    /* \"#utility.yul\":1800:1853   */\n  tag_44\n    /* \"#utility.yul\":1818:1852   */\n  tag_45\n    /* \"#utility.yul\":1827:1851   */\n  tag_46\n    /* \"#utility.yul\":1845:1850   */\n  dup5\n    /* \"#utility.yul\":1827:1851   */\n  tag_15\n  jump\t// in\ntag_46:\n    /* \"#utility.yul\":1818:1852   */\n  tag_16\n  jump\t// in\ntag_45:\n    /* \"#utility.yul\":1800:1853   */\n  tag_15\n  jump\t// in\ntag_44:\n    /* \"#utility.yul\":1787:1853   */\n  swap1\n  pop\n    /* \"#utility.yul\":1717:1859   */\n  swap2\n  swap1\n  pop\n  jump\t// out\n    /* \"#utility.yul\":1865:1940   */\ntag_18:\n    /* \"#utility.yul\":1908:1911   */\n  0x00\n    /* \"#utility.yul\":1929:1934   */\n  dup2\n    /* \"#utility.yul\":1922:1934   */\n  swap1\n  pop\n    /* \"#utility.yul\":1865:1940   */\n  swap2\n  swap1\n  pop\n  jump\t// out\n    /* \"#utility.yul\":1946:2215   */\ntag_19:\n    /* \"#utility.yul\":2056:2095   */\n  tag_49\n    /* \"#utility.yul\":2087:2094   */\n  dup4\n    /* \"#utility.yul\":2056:2095   */\n  tag_17\n  jump\t// in\ntag_49:\n    /* \"#utility.yul\":2117:2208   */\n  tag_50\n    /* \"#utility.yul\":2166:2207   */\n  tag_51\n    /* \"#utility.yul\":2190:2206   */\n  dup3\n    /* \"#utility.yul\":2166:2207   */\n  tag_18\n  jump\t// in\ntag_51:\n    /* \"#utility.yul\":2158:2164   */\n  dup5\n    /* \"#utility.yul\":2151:2155   */\n  dup5\n    /* \"#utility.yul\":2145:2156   */\n  sload\n    /* \"#utility.yul\":2117:2208   */\n  tag_14\n  jump\t// in\ntag_50:\n    /* \"#utility.yul\":2111:2115   */\n  dup3\n    /* \"#utility.yul\":2104:2209   */\n  sstore\n    /* \"#utility.yul\":2022:2215   */\n  pop\n    /* \"#utility.yul\":1946:2215   */\n  pop\n  pop\n  pop\n  jump\t// out\n    /* \"#utility.yul\":2221:2294   */\ntag_20:\n    /* \"#utility.yul\":2266:2269   */\n  0x00\n    /* \"#utility.yul\":2221:2294   */\n  swap1\n  jump\t// out\n    /* \"#utility.yul\":2300:2489   */\ntag_21:\n    /* \"#utility.yul\":2377:2409   */\n  tag_54\n  tag_20\n  jump\t// in\ntag_54:\n    /* \"#utility.yul\":2418:2483   */\n  tag_55\n    /* \"#utility.yul\":2476:2482   */\n  dup2\n    /* \"#utility.yul\":2468:2474   */\n  dup5\n    /* \"#utility.yul\":2462:2466   */\n  dup5\n    /* \"#utility.yul\":2418:2483   */\n  tag_19\n  jump\t// in\ntag_55:\n    /* \"#utility.yul\":2353:2489   */\n  pop\n    /* \"#utility.yul\":2300:2489   */\n  pop\n  pop\n  jump\t// out\n    /* \"#utility.yul\":2495:2681   */\ntag_22:\n    /* \"#utility.yul\":2555:2675   */\ntag_57:\n    /* \"#utility.yul\":2572:2575   */\n  dup2\n    /* \"#utility.yul\":2565:2570   */\n  dup2\n    /* \"#utility.yul\":2562:2576   */\n  lt\n    /* \"#utility.yul\":2555:2675   */\n  iszero\n  tag_59\n  jumpi\n    /* \"#utility.yul\":2626:2665   */\n  tag_60\n    /* \"#utility.yul\":2663:2664   */\n  0x00\n    /* \"#utility.yul\":2656:2661   */\n  dup3\n    /* \"#utility.yul\":2626:2665   */\n  tag_21\n  jump\t// in\ntag_60:\n    /* \"#utility.yul\":2599:2600   */\n  0x01\n    /* \"#utility.yul\":2592:2597   */\n  dup2\n    /* \"#utility.yul\":2588:2601   */\n  add\n    /* \"#utility.yul\":2579:2601   */\n  swap1\n  pop\n    /* \"#utility.yul\":2555:2675   */\n  jump(tag_57)\ntag_59:\n    /* \"#utility.yul\":2495:2681   */\n  pop\n  pop\n  jump\t// out\n    /* \"#utility.yul\":2687:3230   */\ntag_23:\n    /* \"#utility.yul\":2788:2790   */\n  0x1f\n    /* \"#utility.yul\":2783:2786   */\n  dup3\n    /* \"#utility.yul\":2780:2791   */\n  gt\n    /* \"#utility.yul\":2777:3223   */\n  iszero\n  tag_62\n  jumpi\n    /* \"#utility.yul\":2822:2860   */\n  tag_63\n    /* \"#utility.yul\":2854:2859   */\n  dup2\n    /* \"#utility.yul\":2822:2860   */\n  tag_11\n  jump\t// in\ntag_63:\n    /* \"#utility.yul\":2906:2935   */\n  tag_64\n    /* \"#utility.yul\":2924:2934   */\n  dup5\n    /* \"#utility.yul\":2906:2935   */\n  tag_12\n  jump\t// in\ntag_64:\n    /* \"#utility.yul\":2896:2904   */\n  dup2\n    /* \"#utility.yul\":2892:2936   */\n  add\n    /* \"#utility.yul\":3089:3091   */\n  0x20\n    /* \"#utility.yul\":3077:3087   */\n  dup6\n    /* \"#utility.yul\":3074:3092   */\n  lt\n    /* \"#utility.yul\":3071:3120   */\n  iszero\n  tag_65\n  jumpi\n    /* \"#utility.yul\":3110:3118   */\n  dup2\n    /* \"#utility.yul\":3095:3118   */\n  swap1\n  pop\n    /* \"#utility.yul\":3071:3120   */\ntag_65:\n    /* \"#utility.yul\":3133:3213   */\n  tag_66\n    /* \"#utility.yul\":3189:3211   */\n  tag_67\n    /* \"#utility.yul\":3207:3210   */\n  dup6\n    /* \"#utility.yul\":3189:3211   */\n  tag_12\n  jump\t// in\ntag_67:\n    /* \"#utility.yul\":3179:3187   */\n  dup4\n    /* \"#utility.yul\":3175:3212   */\n  add\n    /* \"#utility.yul\":3162:3173   */\n  dup3\n    /* \"#utility.yul\":3133:3213   */\n  tag_22\n  jump\t// in\ntag_66:\n    /* \"#utility.yul\":2792:3223   */\n  pop\n  pop\n    /* \"#utility.yul\":2777:3223   */\ntag_62:\n    /* \"#utility.yul\":2687:3230   */\n  pop\n  pop\n  pop\n  jump\t// out\n    /* \"#utility.yul\":3236:3353   */\ntag_24:\n    /* \"#utility.yul\":3290:3298   */\n  0x00\n    /* \"#utility.yul\":3340:3345   */\n  dup3\n    /* \"#utility.yul\":3334:3338   */\n  dup3\n    /* \"#utility.yul\":3330:3346   */\n  shr\n    /* \"#utility.yul\":3309:3346   */\n  swap1\n  pop\n    /* \"#utility.yul\":3236:3353   */\n  swap3\n  swap2\n  pop\n  pop\n  jump\t// out\n    /* \"#utility.yul\":3359:3528   */\ntag_25:\n    /* \"#utility.yul\":3403:3409   */\n  0x00\n    /* \"#utility.yul\":3436:3487   */\n  tag_70\n    /* \"#utility.yul\":3484:3485   */\n  0x00\n    /* \"#utility.yul\":3480:3486   */\n  not\n    /* \"#utility.yul\":3472:3477   */\n  dup5\n    /* \"#utility.yul\":3469:3470   */\n  0x08\n    /* \"#utility.yul\":3465:3478   */\n  mul\n    /* \"#utility.yul\":3436:3487   */\n  tag_24\n  jump\t// in\ntag_70:\n    /* \"#utility.yul\":3432:3488   */\n  not\n    /* \"#utility.yul\":3517:3521   */\n  dup1\n    /* \"#utility.yul\":3511:3515   */\n  dup4\n    /* \"#utility.yul\":3507:3522   */\n  and\n    /* \"#utility.yul\":3497:3522   */\n  swap2\n  pop\n    /* \"#utility.yul\":3410:3528   */\n  pop\n    /* \"#utility.yul\":3359:3528   */\n  swap3\n  swap2\n  pop\n  pop\n  jump\t// out\n    /* \"#utility.yul\":3533:3828   */\ntag_26:\n    /* \"#utility.yul\":3609:3613   */\n  0x00\n    /* \"#utility.yul\":3755:3784   */\n  tag_72\n    /* \"#utility.yul\":3780:3783   */\n  dup4\n    /* \"#utility.yul\":3774:3778   */\n  dup4\n    /* \"#utility.yul\":3755:3784   */\n  tag_25\n  jump\t// in\ntag_72:\n    /* \"#utility.yul\":3747:3784   */\n  swap2\n  pop\n    /* \"#utility.yul\":3817:3820   */\n  dup3\n    /* \"#utility.yul\":3814:3815   */\n  0x02\n    /* \"#utility.yul\":3810:3821   */\n  mul\n    /* \"#utility.yul\":3804:3808   */\n  dup3\n    /* \"#utility.yul\":3801:3822   */\n  or\n    /* \"#utility.yul\":3793:3822   */\n  swap1\n  pop\n    /* \"#utility.yul\":3533:3828   */\n  swap3\n  swap2\n  pop\n  pop\n  jump\t// out\n    /* \"#utility.yul\":3833:5228   */\ntag_5:\n    /* \"#utility.yul\":3950:3987   */\n  tag_74\n    /* \"#utility.yul\":3983:3986   */\n  dup3\n    /* \"#utility.yul\":3950:3987   */\n  tag_7\n  jump\t// in\ntag_74:\n    /* \"#utility.yul\":4052:4070   */\n  0xffffffffffffffff\n    /* \"#utility.yul\":4044:4050   */\n  dup2\n    /* \"#utility.yul\":4041:4071   */\n  gt\n    /* \"#utility.yul\":4038:4094   */\n  iszero\n  tag_75\n  jumpi\n    /* \"#utility.yul\":4074:4092   */\n  tag_76\n  tag_8\n  jump\t// in\ntag_76:\n    /* \"#utility.yul\":4038:4094   */\ntag_75:\n    /* \"#utility.yul\":4118:4156   */\n  tag_77\n    /* \"#utility.yul\":4150:4154   */\n  dup3\n    /* \"#utility.yul\":4144:4155   */\n  sload\n    /* \"#utility.yul\":4118:4156   */\n  tag_10\n  jump\t// in\ntag_77:\n    /* \"#utility.yul\":4203:4270   */\n  tag_78\n    /* \"#utility.yul\":4263:4269   */\n  dup3\n    /* \"#utility.yul\":4255:4261   */\n  dup3\n    /* \"#utility.yul\":4249:4253   */\n  dup6\n    /* \"#utility.yul\":4203:4270   */\n  tag_23\n  jump\t// in\ntag_78:\n    /* \"#utility.yul\":4297:4298   */\n  0x00\n    /* \"#utility.yul\":4321:4325   */\n  0x20\n    /* \"#utility.yul\":4308:4325   */\n  swap1\n  pop\n    /* \"#utility.yul\":4353:4355   */\n  0x1f\n    /* \"#utility.yul\":4345:4351   */\n  dup4\n    /* \"#utility.yul\":4342:4356   */\n  gt\n    /* \"#utility.yul\":4370:4371   */\n  0x01\n    /* \"#utility.yul\":4365:4983   */\n  dup2\n  eq\n  tag_80\n  jumpi\n    /* \"#utility.yul\":5027:5028   */\n  0x00\n    /* \"#utility.yul\":5044:5050   */\n  dup5\n    /* \"#utility.yul\":5041:5118   */\n  iszero\n  tag_81\n  jumpi\n    /* \"#utility.yul\":5093:5102   */\n  dup3\n    /* \"#utility.yul\":5088:5091   */\n  dup8\n    /* \"#utility.yul\":5084:5103   */\n  add\n    /* \"#utility.yul\":5078:5104   */\n  mload\n    /* \"#utility.yul\":5069:5104   */\n  swap1\n  pop\n    /* \"#utility.yul\":5041:5118   */\ntag_81:\n    /* \"#utility.yul\":5144:5211   */\n  tag_82\n    /* \"#utility.yul\":5204:5210   */\n  dup6\n    /* \"#utility.yul\":5197:5202   */\n  dup3\n    /* \"#utility.yul\":5144:5211   */\n  tag_26\n  jump\t// in\ntag_82:\n    /* \"#utility.yul\":5138:5142   */\n  dup7\n    /* \"#utility.yul\":5131:5212   */\n  sstore\n    /* \"#utility.yul\":5000:5222   */\n  pop\n    /* \"#utility.yul\":4335:5222   */\n  jump(tag_79)\n    /* \"#utility.yul\":4365:4983   */\ntag_80:\n    /* \"#utility.yul\":4417:4421   */\n  0x1f\n    /* \"#utility.yul\":4413:4422   */\n  not\n    /* \"#utility.yul\":4405:4411   */\n  dup5\n    /* \"#utility.yul\":4401:4423   */\n  and\n    /* \"#utility.yul\":4451:4488   */\n  tag_83\n    /* \"#utility.yul\":4483:4487   */\n  dup7\n    /* \"#utility.yul\":4451:4488   */\n  tag_11\n  jump\t// in\ntag_83:\n    /* \"#utility.yul\":4510:4511   */\n  0x00\n    /* \"#utility.yul\":4524:4732   */\ntag_84:\n    /* \"#utility.yul\":4538:4545   */\n  dup3\n    /* \"#utility.yul\":4535:4536   */\n  dup2\n    /* \"#utility.yul\":4532:4546   */\n  lt\n    /* \"#utility.yul\":4524:4732   */\n  iszero\n  tag_86\n  jumpi\n    /* \"#utility.yul\":4617:4626   */\n  dup5\n    /* \"#utility.yul\":4612:4615   */\n  dup10\n    /* \"#utility.yul\":4608:4627   */\n  add\n    /* \"#utility.yul\":4602:4628   */\n  mload\n    /* \"#utility.yul\":4594:4600   */\n  dup3\n    /* \"#utility.yul\":4587:4629   */\n  sstore\n    /* \"#utility.yul\":4668:4669   */\n  0x01\n    /* \"#utility.yul\":4660:4666   */\n  dup3\n    /* \"#utility.yul\":4656:4670   */\n  add\n    /* \"#utility.yul\":4646:4670   */\n  swap2\n  pop\n    /* \"#utility.yul\":4715:4717   */\n  0x20\n    /* \"#utility.yul\":4704:4713   */\n  dup6\n    /* \"#utility.yul\":4700:4718   */\n  add\n    /* \"#utility.yul\":4687:4718   */\n  swap5\n  pop\n    /* \"#utility.yul\":4561:4565   */\n  0x20\n    /* \"#utility.yul\":4558:4559   */\n  dup2\n    /* \"#utility.yul\":4554:4566   */\n  add\n    /* \"#utility.yul\":4549:4566   */\n  swap1\n  pop\n    /* \"#utility.yul\":4524:4732   */\n  jump(tag_84)\ntag_86:\n    /* \"#utility.yul\":4760:4766   */\n  dup7\n    /* \"#utility.yul\":4751:4758   */\n  dup4\n    /* \"#utility.yul\":4748:4767   */\n  lt\n    /* \"#utility.yul\":4745:4924   */\n  iszero\n  tag_87\n  jumpi\n    /* \"#utility.yul\":4818:4827   */\n  dup5\n    /* \"#utility.yul\":4813:4816   */\n  dup10\n    /* \"#utility.yul\":4809:4828   */\n  add\n    /* \"#utility.yul\":4803:4829   */\n  mload\n    /* \"#utility.yul\":4861:4909   */\n  tag_88\n    /* \"#utility.yul\":4903:4907   */\n  0x1f\n    /* \"#utility.yul\":4895:4901   */\n  dup10\n    /* \"#utility.yul\":4891:4908   */\n  and\n    /* \"#utility.yul\":4880:4889   */\n  dup3\n    /* \"#utility.yul\":4861:4909   */\n  tag_25\n  jump\t// in\ntag_88:\n    /* \"#utility.yul\":4853:4859   */\n  dup4\n    /* \"#utility.yul\":4846:4910   */\n  sstore\n    /* \"#utility.yul\":4768:4924   */\n  pop\n    /* \"#utility.yul\":4745:4924   */\ntag_87:\n    /* \"#utility.yul\":4970:4971   */\n  0x01\n    /* \"#utility.yul\":4966:4967   */\n  0x02\n    /* \"#utility.yul\":4958:4964   */\n  dup9\n    /* \"#utility.yul\":4954:4968   */\n  mul\n    /* \"#utility.yul\":4950:4972   */\n  add\n    /* \"#utility.yul\":4944:4948   */\n  dup9\n    /* \"#utility.yul\":4937:4973   */\n  sstore\n    /* \"#utility.yul\":4372:4983   */\n  pop\n  pop\n  pop\n    /* \"#utility.yul\":4335:5222   */\ntag_79:\n  pop\n    /* \"#utility.yul\":3925:5228   */\n  pop\n  pop\n  pop\n    /* \"#utility.yul\":3833:5228   */\n  pop\n  pop\n  jump\t// out\n    /* \"practice.sol\":57:358  contract demo{... */\ntag_6:\n  dataSize(sub_0)\n  dup1\n  dataOffset(sub_0)\n  0x00\n  codecopy\n  0x00\n  return\nstop\n\nsub_0: assembly {\n        /* \"practice.sol\":57:358  contract demo{... */\n      mstore(0x40, 0x80)\n      callvalue\n      dup1\n      iszero\n      tag_1\n      jumpi\n      0x00\n      dup1\n      revert\n    tag_1:\n      pop\n      jumpi(tag_2, lt(calldatasize, 0x04))\n      shr(0xe0, calldataload(0x00))\n      dup1\n      0x17d7de7c\n      eq\n      tag_3\n      jumpi\n      dup1\n      0x2bf0f81c\n      eq\n      tag_4\n      jumpi\n    tag_2:\n      0x00\n      dup1\n      revert\n        /* \"practice.sol\":176:273  function getName() view  public  returns (string memory,uint ){... */\n    tag_3:\n      tag_5\n      tag_6\n      jump\t// in\n    tag_5:\n      mload(0x40)\n      tag_7\n      swap3\n      swap2\n      swap1\n      tag_8\n      jump\t// in\n    tag_7:\n      mload(0x40)\n      dup1\n      swap2\n      sub\n      swap1\n      return\n        /* \"practice.sol\":279:355  function setName() public {... */\n    tag_4:\n      tag_9\n      tag_10\n      jump\t// in\n    tag_9:\n      stop\n        /* \"practice.sol\":176:273  function getName() view  public  returns (string memory,uint ){... */\n    tag_6:\n        /* \"practice.sol\":218:231  string memory */\n      0x60\n        /* \"practice.sol\":232:236  uint */\n      0x00\n        /* \"practice.sol\":257:261  name */\n      dup1\n        /* \"practice.sol\":262:265  age */\n      sload(0x01)\n        /* \"practice.sol\":248:266  return  (name,age) */\n      dup2\n      dup1\n      sload\n      tag_12\n      swap1\n      tag_13\n      jump\t// in\n    tag_12:\n      dup1\n      0x1f\n      add\n      0x20\n      dup1\n      swap2\n      div\n      mul\n      0x20\n      add\n      mload(0x40)\n      swap1\n      dup2\n      add\n      0x40\n      mstore\n      dup1\n      swap3\n      swap2\n      swap1\n      dup2\n      dup2\n      mstore\n      0x20\n      add\n      dup3\n      dup1\n      sload\n      tag_14\n      swap1\n      tag_13\n      jump\t// in\n    tag_14:\n      dup1\n      iszero\n      tag_15\n      jumpi\n      dup1\n      0x1f\n      lt\n      tag_16\n      jumpi\n      0x0100\n      dup1\n      dup4\n      sload\n      div\n      mul\n      dup4\n      mstore\n      swap2\n      0x20\n      add\n      swap2\n      jump(tag_15)\n    tag_16:\n      dup3\n      add\n      swap2\n      swap1\n      0x00\n      mstore\n      keccak256(0x00, 0x20)\n      swap1\n    tag_17:\n      dup2\n      sload\n      dup2\n      mstore\n      swap1\n      0x01\n      add\n      swap1\n      0x20\n      add\n      dup1\n      dup4\n      gt\n      tag_17\n      jumpi\n      dup3\n      swap1\n      sub\n      0x1f\n      and\n      dup3\n      add\n      swap2\n    tag_15:\n      pop\n      pop\n      pop\n      pop\n      pop\n      swap2\n      pop\n      swap2\n      pop\n      swap2\n      pop\n        /* \"practice.sol\":176:273  function getName() view  public  returns (string memory,uint ){... */\n      swap1\n      swap2\n      jump\t// out\n        /* \"practice.sol\":279:355  function setName() public {... */\n    tag_10:\n        /* \"practice.sol\":315:329  name=\"nirajan\" */\n      mload(0x40)\n      dup1\n      0x40\n      add\n      0x40\n      mstore\n      dup1\n      0x07\n      dup2\n      mstore\n      0x20\n      add\n      0x6e6972616a616e00000000000000000000000000000000000000000000000000\n      dup2\n      mstore\n      pop\n        /* \"practice.sol\":315:319  name */\n      0x00\n        /* \"practice.sol\":315:329  name=\"nirajan\" */\n      swap1\n      dup2\n      tag_19\n      swap2\n      swap1\n      tag_20\n      jump\t// in\n    tag_19:\n      pop\n        /* \"practice.sol\":347:348  1 */\n      0x01\n        /* \"practice.sol\":343:346  age */\n      dup1\n      sload\n        /* \"practice.sol\":343:348  age+1 */\n      tag_21\n      swap2\n      swap1\n      tag_22\n      jump\t// in\n    tag_21:\n        /* \"practice.sol\":339:342  age */\n      0x01\n        /* \"practice.sol\":339:348  age=age+1 */\n      dup2\n      swap1\n      sstore\n      pop\n        /* \"practice.sol\":279:355  function setName() public {... */\n      jump\t// out\n        /* \"#utility.yul\":7:106   */\n    tag_23:\n        /* \"#utility.yul\":59:65   */\n      0x00\n        /* \"#utility.yul\":93:98   */\n      dup2\n        /* \"#utility.yul\":87:99   */\n      mload\n        /* \"#utility.yul\":77:99   */\n      swap1\n      pop\n        /* \"#utility.yul\":7:106   */\n      swap2\n      swap1\n      pop\n      jump\t// out\n        /* \"#utility.yul\":112:281   */\n    tag_24:\n        /* \"#utility.yul\":196:207   */\n      0x00\n        /* \"#utility.yul\":230:236   */\n      dup3\n        /* \"#utility.yul\":225:228   */\n      dup3\n        /* \"#utility.yul\":218:237   */\n      mstore\n        /* \"#utility.yul\":270:274   */\n      0x20\n        /* \"#utility.yul\":265:268   */\n      dup3\n        /* \"#utility.yul\":261:275   */\n      add\n        /* \"#utility.yul\":246:275   */\n      swap1\n      pop\n        /* \"#utility.yul\":112:281   */\n      swap3\n      swap2\n      pop\n      pop\n      jump\t// out\n        /* \"#utility.yul\":287:533   */\n    tag_25:\n        /* \"#utility.yul\":368:369   */\n      0x00\n        /* \"#utility.yul\":378:491   */\n    tag_52:\n        /* \"#utility.yul\":392:398   */\n      dup4\n        /* \"#utility.yul\":389:390   */\n      dup2\n        /* \"#utility.yul\":386:399   */\n      lt\n        /* \"#utility.yul\":378:491   */\n      iszero\n      tag_54\n      jumpi\n        /* \"#utility.yul\":477:478   */\n      dup1\n        /* \"#utility.yul\":472:475   */\n      dup3\n        /* \"#utility.yul\":468:479   */\n      add\n        /* \"#utility.yul\":462:480   */\n      mload\n        /* \"#utility.yul\":458:459   */\n      dup2\n        /* \"#utility.yul\":453:456   */\n      dup5\n        /* \"#utility.yul\":449:460   */\n      add\n        /* \"#utility.yul\":442:481   */\n      mstore\n        /* \"#utility.yul\":414:416   */\n      0x20\n        /* \"#utility.yul\":411:412   */\n      dup2\n        /* \"#utility.yul\":407:417   */\n      add\n        /* \"#utility.yul\":402:417   */\n      swap1\n      pop\n        /* \"#utility.yul\":378:491   */\n      jump(tag_52)\n    tag_54:\n        /* \"#utility.yul\":525:526   */\n      0x00\n        /* \"#utility.yul\":516:522   */\n      dup5\n        /* \"#utility.yul\":511:514   */\n      dup5\n        /* \"#utility.yul\":507:523   */\n      add\n        /* \"#utility.yul\":500:527   */\n      mstore\n        /* \"#utility.yul\":349:533   */\n      pop\n        /* \"#utility.yul\":287:533   */\n      pop\n      pop\n      pop\n      jump\t// out\n        /* \"#utility.yul\":539:641   */\n    tag_26:\n        /* \"#utility.yul\":580:586   */\n      0x00\n        /* \"#utility.yul\":631:633   */\n      0x1f\n        /* \"#utility.yul\":627:634   */\n      not\n        /* \"#utility.yul\":622:624   */\n      0x1f\n        /* \"#utility.yul\":615:620   */\n      dup4\n        /* \"#utility.yul\":611:625   */\n      add\n        /* \"#utility.yul\":607:635   */\n      and\n        /* \"#utility.yul\":597:635   */\n      swap1\n      pop\n        /* \"#utility.yul\":539:641   */\n      swap2\n      swap1\n      pop\n      jump\t// out\n        /* \"#utility.yul\":647:1024   */\n    tag_27:\n        /* \"#utility.yul\":735:738   */\n      0x00\n        /* \"#utility.yul\":763:802   */\n      tag_57\n        /* \"#utility.yul\":796:801   */\n      dup3\n        /* \"#utility.yul\":763:802   */\n      tag_23\n      jump\t// in\n    tag_57:\n        /* \"#utility.yul\":818:889   */\n      tag_58\n        /* \"#utility.yul\":882:888   */\n      dup2\n        /* \"#utility.yul\":877:880   */\n      dup6\n        /* \"#utility.yul\":818:889   */\n      tag_24\n      jump\t// in\n    tag_58:\n        /* \"#utility.yul\":811:889   */\n      swap4\n      pop\n        /* \"#utility.yul\":898:963   */\n      tag_59\n        /* \"#utility.yul\":956:962   */\n      dup2\n        /* \"#utility.yul\":951:954   */\n      dup6\n        /* \"#utility.yul\":944:948   */\n      0x20\n        /* \"#utility.yul\":937:942   */\n      dup7\n        /* \"#utility.yul\":933:949   */\n      add\n        /* \"#utility.yul\":898:963   */\n      tag_25\n      jump\t// in\n    tag_59:\n        /* \"#utility.yul\":988:1017   */\n      tag_60\n        /* \"#utility.yul\":1010:1016   */\n      dup2\n        /* \"#utility.yul\":988:1017   */\n      tag_26\n      jump\t// in\n    tag_60:\n        /* \"#utility.yul\":983:986   */\n      dup5\n        /* \"#utility.yul\":979:1018   */\n      add\n        /* \"#utility.yul\":972:1018   */\n      swap2\n      pop\n        /* \"#utility.yul\":739:1024   */\n      pop\n        /* \"#utility.yul\":647:1024   */\n      swap3\n      swap2\n      pop\n      pop\n      jump\t// out\n        /* \"#utility.yul\":1030:1107   */\n    tag_28:\n        /* \"#utility.yul\":1067:1074   */\n      0x00\n        /* \"#utility.yul\":1096:1101   */\n      dup2\n        /* \"#utility.yul\":1085:1101   */\n      swap1\n      pop\n        /* \"#utility.yul\":1030:1107   */\n      swap2\n      swap1\n      pop\n      jump\t// out\n        /* \"#utility.yul\":1113:1231   */\n    tag_29:\n        /* \"#utility.yul\":1200:1224   */\n      tag_63\n        /* \"#utility.yul\":1218:1223   */\n      dup2\n        /* \"#utility.yul\":1200:1224   */\n      tag_28\n      jump\t// in\n    tag_63:\n        /* \"#utility.yul\":1195:1198   */\n      dup3\n        /* \"#utility.yul\":1188:1225   */\n      mstore\n        /* \"#utility.yul\":1113:1231   */\n      pop\n      pop\n      jump\t// out\n        /* \"#utility.yul\":1237:1660   */\n    tag_8:\n        /* \"#utility.yul\":1378:1382   */\n      0x00\n        /* \"#utility.yul\":1416:1418   */\n      0x40\n        /* \"#utility.yul\":1405:1414   */\n      dup3\n        /* \"#utility.yul\":1401:1419   */\n      add\n        /* \"#utility.yul\":1393:1419   */\n      swap1\n      pop\n        /* \"#utility.yul\":1465:1474   */\n      dup2\n        /* \"#utility.yul\":1459:1463   */\n      dup2\n        /* \"#utility.yul\":1455:1475   */\n      sub\n        /* \"#utility.yul\":1451:1452   */\n      0x00\n        /* \"#utility.yul\":1440:1449   */\n      dup4\n        /* \"#utility.yul\":1436:1453   */\n      add\n        /* \"#utility.yul\":1429:1476   */\n      mstore\n        /* \"#utility.yul\":1493:1571   */\n      tag_65\n        /* \"#utility.yul\":1566:1570   */\n      dup2\n        /* \"#utility.yul\":1557:1563   */\n      dup6\n        /* \"#utility.yul\":1493:1571   */\n      tag_27\n      jump\t// in\n    tag_65:\n        /* \"#utility.yul\":1485:1571   */\n      swap1\n      pop\n        /* \"#utility.yul\":1581:1653   */\n      tag_66\n        /* \"#utility.yul\":1649:1651   */\n      0x20\n        /* \"#utility.yul\":1638:1647   */\n      dup4\n        /* \"#utility.yul\":1634:1652   */\n      add\n        /* \"#utility.yul\":1625:1631   */\n      dup5\n        /* \"#utility.yul\":1581:1653   */\n      tag_29\n      jump\t// in\n    tag_66:\n        /* \"#utility.yul\":1237:1660   */\n      swap4\n      swap3\n      pop\n      pop\n      pop\n      jump\t// out\n        /* \"#utility.yul\":1666:1846   */\n    tag_30:\n        /* \"#utility.yul\":1714:1791   */\n      0x4e487b7100000000000000000000000000000000000000000000000000000000\n        /* \"#utility.yul\":1711:1712   */\n      0x00\n        /* \"#utility.yul\":1704:1792   */\n      mstore\n        /* \"#utility.yul\":1811:1815   */\n      0x22\n        /* \"#utility.yul\":1808:1809   */\n      0x04\n        /* \"#utility.yul\":1801:1816   */\n      mstore\n        /* \"#utility.yul\":1835:1839   */\n      0x24\n        /* \"#utility.yul\":1832:1833   */\n      0x00\n        /* \"#utility.yul\":1825:1840   */\n      revert\n        /* \"#utility.yul\":1852:2172   */\n    tag_13:\n        /* \"#utility.yul\":1896:1902   */\n      0x00\n        /* \"#utility.yul\":1933:1934   */\n      0x02\n        /* \"#utility.yul\":1927:1931   */\n      dup3\n        /* \"#utility.yul\":1923:1935   */\n      div\n        /* \"#utility.yul\":1913:1935   */\n      swap1\n      pop\n        /* \"#utility.yul\":1980:1981   */\n      0x01\n        /* \"#utility.yul\":1974:1978   */\n      dup3\n        /* \"#utility.yul\":1970:1982   */\n      and\n        /* \"#utility.yul\":2001:2019   */\n      dup1\n        /* \"#utility.yul\":1991:2072   */\n      tag_69\n      jumpi\n        /* \"#utility.yul\":2057:2061   */\n      0x7f\n        /* \"#utility.yul\":2049:2055   */\n      dup3\n        /* \"#utility.yul\":2045:2062   */\n      and\n        /* \"#utility.yul\":2035:2062   */\n      swap2\n      pop\n        /* \"#utility.yul\":1991:2072   */\n    tag_69:\n        /* \"#utility.yul\":2119:2121   */\n      0x20\n        /* \"#utility.yul\":2111:2117   */\n      dup3\n        /* \"#utility.yul\":2108:2122   */\n      lt\n        /* \"#utility.yul\":2088:2106   */\n      dup2\n        /* \"#utility.yul\":2085:2123   */\n      sub\n        /* \"#utility.yul\":2082:2166   */\n      tag_70\n      jumpi\n        /* \"#utility.yul\":2138:2156   */\n      tag_71\n      tag_30\n      jump\t// in\n    tag_71:\n        /* \"#utility.yul\":2082:2166   */\n    tag_70:\n        /* \"#utility.yul\":1903:2172   */\n      pop\n        /* \"#utility.yul\":1852:2172   */\n      swap2\n      swap1\n      pop\n      jump\t// out\n        /* \"#utility.yul\":2178:2358   */\n    tag_31:\n        /* \"#utility.yul\":2226:2303   */\n      0x4e487b7100000000000000000000000000000000000000000000000000000000\n        /* \"#utility.yul\":2223:2224   */\n      0x00\n        /* \"#utility.yul\":2216:2304   */\n      mstore\n        /* \"#utility.yul\":2323:2327   */\n      0x41\n        /* \"#utility.yul\":2320:2321   */\n      0x04\n        /* \"#utility.yul\":2313:2328   */\n      mstore\n        /* \"#utility.yul\":2347:2351   */\n      0x24\n        /* \"#utility.yul\":2344:2345   */\n      0x00\n        /* \"#utility.yul\":2337:2352   */\n      revert\n        /* \"#utility.yul\":2364:2505   */\n    tag_32:\n        /* \"#utility.yul\":2413:2417   */\n      0x00\n        /* \"#utility.yul\":2436:2439   */\n      dup2\n        /* \"#utility.yul\":2428:2439   */\n      swap1\n      pop\n        /* \"#utility.yul\":2459:2462   */\n      dup2\n        /* \"#utility.yul\":2456:2457   */\n      0x00\n        /* \"#utility.yul\":2449:2463   */\n      mstore\n        /* \"#utility.yul\":2493:2497   */\n      0x20\n        /* \"#utility.yul\":2490:2491   */\n      0x00\n        /* \"#utility.yul\":2480:2498   */\n      keccak256\n        /* \"#utility.yul\":2472:2498   */\n      swap1\n      pop\n        /* \"#utility.yul\":2364:2505   */\n      swap2\n      swap1\n      pop\n      jump\t// out\n        /* \"#utility.yul\":2511:2604   */\n    tag_33:\n        /* \"#utility.yul\":2548:2554   */\n      0x00\n        /* \"#utility.yul\":2595:2597   */\n      0x20\n        /* \"#utility.yul\":2590:2592   */\n      0x1f\n        /* \"#utility.yul\":2583:2588   */\n      dup4\n        /* \"#utility.yul\":2579:2593   */\n      add\n        /* \"#utility.yul\":2575:2598   */\n      div\n        /* \"#utility.yul\":2565:2598   */\n      swap1\n      pop\n        /* \"#utility.yul\":2511:2604   */\n      swap2\n      swap1\n      pop\n      jump\t// out\n        /* \"#utility.yul\":2610:2717   */\n    tag_34:\n        /* \"#utility.yul\":2654:2662   */\n      0x00\n        /* \"#utility.yul\":2704:2709   */\n      dup3\n        /* \"#utility.yul\":2698:2702   */\n      dup3\n        /* \"#utility.yul\":2694:2710   */\n      shl\n        /* \"#utility.yul\":2673:2710   */\n      swap1\n      pop\n        /* \"#utility.yul\":2610:2717   */\n      swap3\n      swap2\n      pop\n      pop\n      jump\t// out\n        /* \"#utility.yul\":2723:3116   */\n    tag_35:\n        /* \"#utility.yul\":2792:2798   */\n      0x00\n        /* \"#utility.yul\":2842:2843   */\n      0x08\n        /* \"#utility.yul\":2830:2840   */\n      dup4\n        /* \"#utility.yul\":2826:2844   */\n      mul\n        /* \"#utility.yul\":2865:2962   */\n      tag_77\n        /* \"#utility.yul\":2895:2961   */\n      0xffffffffffffffffffffffffffffffffffffffffffffffffffffffffffffffff\n        /* \"#utility.yul\":2884:2893   */\n      dup3\n        /* \"#utility.yul\":2865:2962   */\n      tag_34\n      jump\t// in\n    tag_77:\n        /* \"#utility.yul\":2983:3022   */\n      tag_78\n        /* \"#utility.yul\":3013:3021   */\n      dup7\n        /* \"#utility.yul\":3002:3011   */\n      dup4\n        /* \"#utility.yul\":2983:3022   */\n      tag_34\n      jump\t// in\n    tag_78:\n        /* \"#utility.yul\":2971:3022   */\n      swap6\n      pop\n        /* \"#utility.yul\":3055:3059   */\n      dup1\n        /* \"#utility.yul\":3051:3060   */\n      not\n        /* \"#utility.yul\":3044:3049   */\n      dup5\n        /* \"#utility.yul\":3040:3061   */\n      and\n        /* \"#utility.yul\":3031:3061   */\n      swap4\n      pop\n        /* \"#utility.yul\":3104:3108   */\n      dup1\n        /* \"#utility.yul\":3094:3102   */\n      dup7\n        /* \"#utility.yul\":3090:3109   */\n      and\n        /* \"#utility.yul\":3083:3088   */\n      dup5\n        /* \"#utility.yul\":3080:3110   */\n      or\n        /* \"#utility.yul\":3070:3110   */\n      swap3\n      pop\n        /* \"#utility.yul\":2799:3116   */\n      pop\n      pop\n        /* \"#utility.yul\":2723:3116   */\n      swap4\n      swap3\n      pop\n      pop\n      pop\n      jump\t// out\n        /* \"#utility.yul\":3122:3182   */\n    tag_36:\n        /* \"#utility.yul\":3150:3153   */\n      0x00\n        /* \"#utility.yul\":3171:3176   */\n      dup2\n        /* \"#utility.yul\":3164:3176   */\n      swap1\n      pop\n        /* \"#utility.yul\":3122:3182   */\n      swap2\n      swap1\n      pop\n      jump\t// out\n        /* \"#utility.yul\":3188:3330   */\n    tag_37:\n        /* \"#utility.yul\":3238:3247   */\n      0x00\n        /* \"#utility.yul\":3271:3324   */\n      tag_81\n        /* \"#utility.yul\":3289:3323   */\n      tag_82\n        /* \"#utility.yul\":3298:3322   */\n      tag_83\n        /* \"#utility.yul\":3316:3321   */\n      dup5\n        /* \"#utility.yul\":3298:3322   */\n      tag_28\n      jump\t// in\n    tag_83:\n        /* \"#utility.yul\":3289:3323   */\n      tag_36\n      jump\t// in\n    tag_82:\n        /* \"#utility.yul\":3271:3324   */\n      tag_28\n      jump\t// in\n    tag_81:\n        /* \"#utility.yul\":3258:3324   */\n      swap1\n      pop\n        /* \"#utility.yul\":3188:3330   */\n      swap2\n      swap1\n      pop\n      jump\t// out\n        /* \"#utility.yul\":3336:3411   */\n    tag_38:\n        /* \"#utility.yul\":3379:3382   */\n      0x00\n        /* \"#utility.yul\":3400:3405   */\n      dup2\n        /* \"#utility.yul\":3393:3405   */\n      swap1\n      pop\n        /* \"#utility.yul\":3336:3411   */\n      swap2\n      swap1\n      pop\n      jump\t// out\n        /* \"#utility.yul\":3417:3686   */\n    tag_39:\n        /* \"#utility.yul\":3527:3566   */\n      tag_86\n        /* \"#utility.yul\":3558:3565   */\n      dup4\n        /* \"#utility.yul\":3527:3566   */\n      tag_37\n      jump\t// in\n    tag_86:\n        /* \"#utility.yul\":3588:3679   */\n      tag_87\n        /* \"#utility.yul\":3637:3678   */\n      tag_88\n        /* \"#utility.yul\":3661:3677   */\n      dup3\n        /* \"#utility.yul\":3637:3678   */\n      tag_38\n      jump\t// in\n    tag_88:\n        /* \"#utility.yul\":3629:3635   */\n      dup5\n        /* \"#utility.yul\":3622:3626   */\n      dup5\n        /* \"#utility.yul\":3616:3627   */\n      sload\n        /* \"#utility.yul\":3588:3679   */\n      tag_35\n      jump\t// in\n    tag_87:\n        /* \"#utility.yul\":3582:3586   */\n      dup3\n        /* \"#utility.yul\":3575:3680   */\n      sstore\n        /* \"#utility.yul\":3493:3686   */\n      pop\n        /* \"#utility.yul\":3417:3686   */\n      pop\n      pop\n      pop\n      jump\t// out\n        /* \"#utility.yul\":3692:3765   */\n    tag_40:\n        /* \"#utility.yul\":3737:3740   */\n      0x00\n        /* \"#utility.yul\":3692:3765   */\n      swap1\n      jump\t// out\n        /* \"#utility.yul\":3771:3960   */\n    tag_41:\n        /* \"#utility.yul\":3848:3880   */\n      tag_91\n      tag_40\n      jump\t// in\n    tag_91:\n        /* \"#utility.yul\":3889:3954   */\n      tag_92\n        /* \"#utility.yul\":3947:3953   */\n      dup2\n        /* \"#utility.yul\":3939:3945   */\n      dup5\n        /* \"#utility.yul\":3933:3937   */\n      dup5\n        /* \"#utility.yul\":3889:3954   */\n      tag_39\n      jump\t// in\n    tag_92:\n        /* \"#utility.yul\":3824:3960   */\n      pop\n        /* \"#utility.yul\":3771:3960   */\n      pop\n      pop\n      jump\t// out\n        /* \"#utility.yul\":3966:4152   */\n    tag_42:\n        /* \"#utility.yul\":4026:4146   */\n    tag_94:\n        /* \"#utility.yul\":4043:4046   */\n      dup2\n        /* \"#utility.yul\":4036:4041   */\n      dup2\n        /* \"#utility.yul\":4033:4047   */\n      lt\n        /* \"#utility.yul\":4026:4146   */\n      iszero\n      tag_96\n      jumpi\n        /* \"#utility.yul\":4097:4136   */\n      tag_97\n        /* \"#utility.yul\":4134:4135   */\n      0x00\n        /* \"#utility.yul\":4127:4132   */\n      dup3\n        /* \"#utility.yul\":4097:4136   */\n      tag_41\n      jump\t// in\n    tag_97:\n        /* \"#utility.yul\":4070:4071   */\n      0x01\n        /* \"#utility.yul\":4063:4068   */\n      dup2\n        /* \"#utility.yul\":4059:4072   */\n      add\n        /* \"#utility.yul\":4050:4072   */\n      swap1\n      pop\n        /* \"#utility.yul\":4026:4146   */\n      jump(tag_94)\n    tag_96:\n        /* \"#utility.yul\":3966:4152   */\n      pop\n      pop\n      jump\t// out\n        /* \"#utility.yul\":4158:4701   */\n    tag_43:\n        /* \"#utility.yul\":4259:4261   */\n      0x1f\n        /* \"#utility.yul\":4254:4257   */\n      dup3\n        /* \"#utility.yul\":4251:4262   */\n      gt\n        /* \"#utility.yul\":4248:4694   */\n      iszero\n      tag_99\n      jumpi\n        /* \"#utility.yul\":4293:4331   */\n      tag_100\n        /* \"#utility.yul\":4325:4330   */\n      dup2\n        /* \"#utility.yul\":4293:4331   */\n      tag_32\n      jump\t// in\n    tag_100:\n        /* \"#utility.yul\":4377:4406   */\n      tag_101\n        /* \"#utility.yul\":4395:4405   */\n      dup5\n        /* \"#utility.yul\":4377:4406   */\n      tag_33\n      jump\t// in\n    tag_101:\n        /* \"#utility.yul\":4367:4375   */\n      dup2\n        /* \"#utility.yul\":4363:4407   */\n      add\n        /* \"#utility.yul\":4560:4562   */\n      0x20\n        /* \"#utility.yul\":4548:4558   */\n      dup6\n        /* \"#utility.yul\":4545:4563   */\n      lt\n        /* \"#utility.yul\":4542:4591   */\n      iszero\n      tag_102\n      jumpi\n        /* \"#utility.yul\":4581:4589   */\n      dup2\n        /* \"#utility.yul\":4566:4589   */\n      swap1\n      pop\n        /* \"#utility.yul\":4542:4591   */\n    tag_102:\n        /* \"#utility.yul\":4604:4684   */\n      tag_103\n        /* \"#utility.yul\":4660:4682   */\n      tag_104\n        /* \"#utility.yul\":4678:4681   */\n      dup6\n        /* \"#utility.yul\":4660:4682   */\n      tag_33\n      jump\t// in\n    tag_104:\n        /* \"#utility.yul\":4650:4658   */\n      dup4\n        /* \"#utility.yul\":4646:4683   */\n      add\n        /* \"#utility.yul\":4633:4644   */\n      dup3\n        /* \"#utility.yul\":4604:4684   */\n      tag_42\n      jump\t// in\n    tag_103:\n        /* \"#utility.yul\":4263:4694   */\n      pop\n      pop\n        /* \"#utility.yul\":4248:4694   */\n    tag_99:\n        /* \"#utility.yul\":4158:4701   */\n      pop\n      pop\n      pop\n      jump\t// out\n        /* \"#utility.yul\":4707:4824   */\n    tag_44:\n        /* \"#utility.yul\":4761:4769   */\n      0x00\n        /* \"#utility.yul\":4811:4816   */\n      dup3\n        /* \"#utility.yul\":4805:4809   */\n      dup3\n        /* \"#utility.yul\":4801:4817   */\n      shr\n        /* \"#utility.yul\":4780:4817   */\n      swap1\n      pop\n        /* \"#utility.yul\":4707:4824   */\n      swap3\n      swap2\n      pop\n      pop\n      jump\t// out\n        /* \"#utility.yul\":4830:4999   */\n    tag_45:\n        /* \"#utility.yul\":4874:4880   */\n      0x00\n        /* \"#utility.yul\":4907:4958   */\n      tag_107\n        /* \"#utility.yul\":4955:4956   */\n      0x00\n        /* \"#utility.yul\":4951:4957   */\n      not\n        /* \"#utility.yul\":4943:4948   */\n      dup5\n        /* \"#utility.yul\":4940:4941   */\n      0x08\n        /* \"#utility.yul\":4936:4949   */\n      mul\n        /* \"#utility.yul\":4907:4958   */\n      tag_44\n      jump\t// in\n    tag_107:\n        /* \"#utility.yul\":4903:4959   */\n      not\n        /* \"#utility.yul\":4988:4992   */\n      dup1\n        /* \"#utility.yul\":4982:4986   */\n      dup4\n        /* \"#utility.yul\":4978:4993   */\n      and\n        /* \"#utility.yul\":4968:4993   */\n      swap2\n      pop\n        /* \"#utility.yul\":4881:4999   */\n      pop\n        /* \"#utility.yul\":4830:4999   */\n      swap3\n      swap2\n      pop\n      pop\n      jump\t// out\n        /* \"#utility.yul\":5004:5299   */\n    tag_46:\n        /* \"#utility.yul\":5080:5084   */\n      0x00\n        /* \"#utility.yul\":5226:5255   */\n      tag_109\n        /* \"#utility.yul\":5251:5254   */\n      dup4\n        /* \"#utility.yul\":5245:5249   */\n      dup4\n        /* \"#utility.yul\":5226:5255   */\n      tag_45\n      jump\t// in\n    tag_109:\n        /* \"#utility.yul\":5218:5255   */\n      swap2\n      pop\n        /* \"#utility.yul\":5288:5291   */\n      dup3\n        /* \"#utility.yul\":5285:5286   */\n      0x02\n        /* \"#utility.yul\":5281:5292   */\n      mul\n        /* \"#utility.yul\":5275:5279   */\n      dup3\n        /* \"#utility.yul\":5272:5293   */\n      or\n        /* \"#utility.yul\":5264:5293   */\n      swap1\n      pop\n        /* \"#utility.yul\":5004:5299   */\n      swap3\n      swap2\n      pop\n      pop\n      jump\t// out\n        /* \"#utility.yul\":5304:6699   */\n    tag_20:\n        /* \"#utility.yul\":5421:5458   */\n      tag_111\n        /* \"#utility.yul\":5454:5457   */\n      dup3\n        /* \"#utility.yul\":5421:5458   */\n      tag_23\n      jump\t// in\n    tag_111:\n        /* \"#utility.yul\":5523:5541   */\n      0xffffffffffffffff\n        /* \"#utility.yul\":5515:5521   */\n      dup2\n        /* \"#utility.yul\":5512:5542   */\n      gt\n        /* \"#utility.yul\":5509:5565   */\n      iszero\n      tag_112\n      jumpi\n        /* \"#utility.yul\":5545:5563   */\n      tag_113\n      tag_31\n      jump\t// in\n    tag_113:\n        /* \"#utility.yul\":5509:5565   */\n    tag_112:\n        /* \"#utility.yul\":5589:5627   */\n      tag_114\n        /* \"#utility.yul\":5621:5625   */\n      dup3\n        /* \"#utility.yul\":5615:5626   */\n      sload\n        /* \"#utility.yul\":5589:5627   */\n      tag_13\n      jump\t// in\n    tag_114:\n        /* \"#utility.yul\":5674:5741   */\n      tag_115\n        /* \"#utility.yul\":5734:5740   */\n      dup3\n        /* \"#utility.yul\":5726:5732   */\n      dup3\n        /* \"#utility.yul\":5720:5724   */\n      dup6\n        /* \"#utility.yul\":5674:5741   */\n      tag_43\n      jump\t// in\n    tag_115:\n        /* \"#utility.yul\":5768:5769   */\n      0x00\n        /* \"#utility.yul\":5792:5796   */\n      0x20\n        /* \"#utility.yul\":5779:5796   */\n      swap1\n      pop\n        /* \"#utility.yul\":5824:5826   */\n      0x1f\n        /* \"#utility.yul\":5816:5822   */\n      dup4\n        /* \"#utility.yul\":5813:5827   */\n      gt\n        /* \"#utility.yul\":5841:5842   */\n      0x01\n        /* \"#utility.yul\":5836:6454   */\n      dup2\n      eq\n      tag_117\n      jumpi\n        /* \"#utility.yul\":6498:6499   */\n      0x00\n        /* \"#utility.yul\":6515:6521   */\n      dup5\n        /* \"#utility.yul\":6512:6589   */\n      iszero\n      tag_118\n      jumpi\n        /* \"#utility.yul\":6564:6573   */\n      dup3\n        /* \"#utility.yul\":6559:6562   */\n      dup8\n        /* \"#utility.yul\":6555:6574   */\n      add\n        /* \"#utility.yul\":6549:6575   */\n      mload\n        /* \"#utility.yul\":6540:6575   */\n      swap1\n      pop\n        /* \"#utility.yul\":6512:6589   */\n    tag_118:\n        /* \"#utility.yul\":6615:6682   */\n      tag_119\n        /* \"#utility.yul\":6675:6681   */\n      dup6\n        /* \"#utility.yul\":6668:6673   */\n      dup3\n        /* \"#utility.yul\":6615:6682   */\n      tag_46\n      jump\t// in\n    tag_119:\n        /* \"#utility.yul\":6609:6613   */\n      dup7\n        /* \"#utility.yul\":6602:6683   */\n      sstore\n        /* \"#utility.yul\":6471:6693   */\n      pop\n        /* \"#utility.yul\":5806:6693   */\n      jump(tag_116)\n        /* \"#utility.yul\":5836:6454   */\n    tag_117:\n        /* \"#utility.yul\":5888:5892   */\n      0x1f\n        /* \"#utility.yul\":5884:5893   */\n      not\n        /* \"#utility.yul\":5876:5882   */\n      dup5\n        /* \"#utility.yul\":5872:5894   */\n      and\n        /* \"#utility.yul\":5922:5959   */\n      tag_120\n        /* \"#utility.yul\":5954:5958   */\n      dup7\n        /* \"#utility.yul\":5922:5959   */\n      tag_32\n      jump\t// in\n    tag_120:\n        /* \"#utility.yul\":5981:5982   */\n      0x00\n        /* \"#utility.yul\":5995:6203   */\n    tag_121:\n        /* \"#utility.yul\":6009:6016   */\n      dup3\n        /* \"#utility.yul\":6006:6007   */\n      dup2\n        /* \"#utility.yul\":6003:6017   */\n      lt\n        /* \"#utility.yul\":5995:6203   */\n      iszero\n      tag_123\n      jumpi\n        /* \"#utility.yul\":6088:6097   */\n      dup5\n        /* \"#utility.yul\":6083:6086   */\n      dup10\n        /* \"#utility.yul\":6079:6098   */\n      add\n        /* \"#utility.yul\":6073:6099   */\n      mload\n        /* \"#utility.yul\":6065:6071   */\n      dup3\n        /* \"#utility.yul\":6058:6100   */\n      sstore\n        /* \"#utility.yul\":6139:6140   */\n      0x01\n        /* \"#utility.yul\":6131:6137   */\n      dup3\n        /* \"#utility.yul\":6127:6141   */\n      add\n        /* \"#utility.yul\":6117:6141   */\n      swap2\n      pop\n        /* \"#utility.yul\":6186:6188   */\n      0x20\n        /* \"#utility.yul\":6175:6184   */\n      dup6\n        /* \"#utility.yul\":6171:6189   */\n      add\n        /* \"#utility.yul\":6158:6189   */\n      swap5\n      pop\n        /* \"#utility.yul\":6032:6036   */\n      0x20\n        /* \"#utility.yul\":6029:6030   */\n      dup2\n        /* \"#utility.yul\":6025:6037   */\n      add\n        /* \"#utility.yul\":6020:6037   */\n      swap1\n      pop\n        /* \"#utility.yul\":5995:6203   */\n      jump(tag_121)\n    tag_123:\n        /* \"#utility.yul\":6231:6237   */\n      dup7\n        /* \"#utility.yul\":6222:6229   */\n      dup4\n        /* \"#utility.yul\":6219:6238   */\n      lt\n        /* \"#utility.yul\":6216:6395   */\n      iszero\n      tag_124\n      jumpi\n        /* \"#utility.yul\":6289:6298   */\n      dup5\n        /* \"#utility.yul\":6284:6287   */\n      dup10\n        /* \"#utility.yul\":6280:6299   */\n      add\n        /* \"#utility.yul\":6274:6300   */\n      mload\n        /* \"#utility.yul\":6332:6380   */\n      tag_125\n        /* \"#utility.yul\":6374:6378   */\n      0x1f\n        /* \"#utility.yul\":6366:6372   */\n      dup10\n        /* \"#utility.yul\":6362:6379   */\n      and\n        /* \"#utility.yul\":6351:6360   */\n      dup3\n        /* \"#utility.yul\":6332:6380   */\n      tag_45\n      jump\t// in\n    tag_125:\n        /* \"#utility.yul\":6324:6330   */\n      dup4\n        /* \"#utility.yul\":6317:6381   */\n      sstore\n        /* \"#utility.yul\":6239:6395   */\n      pop\n        /* \"#utility.yul\":6216:6395   */\n    tag_124:\n        /* \"#utility.yul\":6441:6442   */\n      0x01\n        /* \"#utility.yul\":6437:6438   */\n      0x02\n        /* \"#utility.yul\":6429:6435   */\n      dup9\n        /* \"#utility.yul\":6425:6439   */\n      mul\n        /* \"#utility.yul\":6421:6443   */\n      add\n        /* \"#utility.yul\":6415:6419   */\n      dup9\n        /* \"#utility.yul\":6408:6444   */\n      sstore\n        /* \"#utility.yul\":5843:6454   */\n      pop\n      pop\n      pop\n        /* \"#utility.yul\":5806:6693   */\n    tag_116:\n      pop\n        /* \"#utility.yul\":5396:6699   */\n      pop\n      pop\n      pop\n        /* \"#utility.yul\":5304:6699   */\n      pop\n      pop\n      jump\t// out\n        /* \"#utility.yul\":6705:6885   */\n    tag_47:\n        /* \"#utility.yul\":6753:6830   */\n      0x4e487b7100000000000000000000000000000000000000000000000000000000\n        /* \"#utility.yul\":6750:6751   */\n      0x00\n        /* \"#utility.yul\":6743:6831   */\n      mstore\n        /* \"#utility.yul\":6850:6854   */\n      0x11\n        /* \"#utility.yul\":6847:6848   */\n      0x04\n        /* \"#utility.yul\":6840:6855   */\n      mstore\n        /* \"#utility.yul\":6874:6878   */\n      0x24\n        /* \"#utility.yul\":6871:6872   */\n      0x00\n        /* \"#utility.yul\":6864:6879   */\n      revert\n        /* \"#utility.yul\":6891:7082   */\n    tag_22:\n        /* \"#utility.yul\":6931:6934   */\n      0x00\n        /* \"#utility.yul\":6950:6970   */\n      tag_128\n        /* \"#utility.yul\":6968:6969   */\n      dup3\n        /* \"#utility.yul\":6950:6970   */\n      tag_28\n      jump\t// in\n    tag_128:\n        /* \"#utility.yul\":6945:6970   */\n      swap2\n      pop\n        /* \"#utility.yul\":6984:7004   */\n      tag_129\n        /* \"#utility.yul\":7002:7003   */\n      dup4\n        /* \"#utility.yul\":6984:7004   */\n      tag_28\n      jump\t// in\n    tag_129:\n        /* \"#utility.yul\":6979:7004   */\n      swap3\n      pop\n        /* \"#utility.yul\":7027:7028   */\n      dup3\n        /* \"#utility.yul\":7024:7025   */\n      dup3\n        /* \"#utility.yul\":7020:7029   */\n      add\n        /* \"#utility.yul\":7013:7029   */\n      swap1\n      pop\n        /* \"#utility.yul\":7048:7051   */\n      dup1\n        /* \"#utility.yul\":7045:7046   */\n      dup3\n        /* \"#utility.yul\":7042:7052   */\n      gt\n        /* \"#utility.yul\":7039:7075   */\n      iszero\n      tag_130\n      jumpi\n        /* \"#utility.yul\":7055:7073   */\n      tag_131\n      tag_47\n      jump\t// in\n    tag_131:\n        /* \"#utility.yul\":7039:7075   */\n    tag_130:\n        /* \"#utility.yul\":6891:7082   */\n      swap3\n      swap2\n      pop\n      pop\n      jump\t// out\n\n    auxdata: 0xa264697066735822122034e27a0281d35cca1a22fb523fcf10d1d9db067ddca2214b987559f3b0b42f5a64736f6c63430008120033\n}\n",
				"bytecode": {
					"linkReferences": {},
					"object": "60806040523480156200001157600080fd5b506040518060400160405280600581526020017f4e69726f6a00000000000000000000000000000000000000000000000000000081525060009081620000589190620002e1565b506016600181905550620003c8565b600081519050919050565b7f4e487b7100000000000000000000000000000000000000000000000000000000600052604160045260246000fd5b7f4e487b7100000000000000000000000000000000000000000000000000000000600052602260045260246000fd5b60006002820490506001821680620000e957607f821691505b602082108103620000ff57620000fe620000a1565b5b50919050565b60008190508160005260206000209050919050565b60006020601f8301049050919050565b600082821b905092915050565b600060088302620001697fffffffffffffffffffffffffffffffffffffffffffffffffffffffffffffffff826200012a565b6200017586836200012a565b95508019841693508086168417925050509392505050565b6000819050919050565b6000819050919050565b6000620001c2620001bc620001b6846200018d565b62000197565b6200018d565b9050919050565b6000819050919050565b620001de83620001a1565b620001f6620001ed82620001c9565b84845462000137565b825550505050565b600090565b6200020d620001fe565b6200021a818484620001d3565b505050565b5b8181101562000242576200023660008262000203565b60018101905062000220565b5050565b601f82111562000291576200025b8162000105565b62000266846200011a565b8101602085101562000276578190505b6200028e62000285856200011a565b8301826200021f565b50505b505050565b600082821c905092915050565b6000620002b66000198460080262000296565b1980831691505092915050565b6000620002d18383620002a3565b9150826002028217905092915050565b620002ec8262000067565b67ffffffffffffffff81111562000308576200030762000072565b5b620003148254620000d0565b6200032182828562000246565b600060209050601f83116001811462000359576000841562000344578287015190505b620003508582620002c3565b865550620003c0565b601f198416620003698662000105565b60005b8281101562000393578489015182556001820191506020850194506020810190506200036c565b86831015620003b35784890151620003af601f891682620002a3565b8355505b6001600288020188555050505b505050505050565b6105da80620003d86000396000f3fe608060405234801561001057600080fd5b50600436106100365760003560e01c806317d7de7c1461003b5780632bf0f81c1461005a575b600080fd5b610043610064565b604051610051929190610204565b60405180910390f35b610062610100565b005b606060008060015481805461007890610263565b80601f01602080910402602001604051908101604052809291908181526020018280546100a490610263565b80156100f15780601f106100c6576101008083540402835291602001916100f1565b820191906000526020600020905b8154815290600101906020018083116100d457829003601f168201915b50505050509150915091509091565b6040518060400160405280600781526020017f6e6972616a616e0000000000000000000000000000000000000000000000000081525060009081610144919061046f565b50600180546101539190610570565b600181905550565b600081519050919050565b600082825260208201905092915050565b60005b8381101561019557808201518184015260208101905061017a565b60008484015250505050565b6000601f19601f8301169050919050565b60006101bd8261015b565b6101c78185610166565b93506101d7818560208601610177565b6101e0816101a1565b840191505092915050565b6000819050919050565b6101fe816101eb565b82525050565b6000604082019050818103600083015261021e81856101b2565b905061022d60208301846101f5565b9392505050565b7f4e487b7100000000000000000000000000000000000000000000000000000000600052602260045260246000fd5b6000600282049050600182168061027b57607f821691505b60208210810361028e5761028d610234565b5b50919050565b7f4e487b7100000000000000000000000000000000000000000000000000000000600052604160045260246000fd5b60008190508160005260206000209050919050565b60006020601f8301049050919050565b600082821b905092915050565b6000600883026103257fffffffffffffffffffffffffffffffffffffffffffffffffffffffffffffffff826102e8565b61032f86836102e8565b95508019841693508086168417925050509392505050565b6000819050919050565b600061036c610367610362846101eb565b610347565b6101eb565b9050919050565b6000819050919050565b61038683610351565b61039a61039282610373565b8484546102f5565b825550505050565b600090565b6103af6103a2565b6103ba81848461037d565b505050565b5b818110156103de576103d36000826103a7565b6001810190506103c0565b5050565b601f821115610423576103f4816102c3565b6103fd846102d8565b8101602085101561040c578190505b610420610418856102d8565b8301826103bf565b50505b505050565b600082821c905092915050565b600061044660001984600802610428565b1980831691505092915050565b600061045f8383610435565b9150826002028217905092915050565b6104788261015b565b67ffffffffffffffff81111561049157610490610294565b5b61049b8254610263565b6104a68282856103e2565b600060209050601f8311600181146104d957600084156104c7578287015190505b6104d18582610453565b865550610539565b601f1984166104e7866102c3565b60005b8281101561050f578489015182556001820191506020850194506020810190506104ea565b8683101561052c5784890151610528601f891682610435565b8355505b6001600288020188555050505b505050505050565b7f4e487b7100000000000000000000000000000000000000000000000000000000600052601160045260246000fd5b600061057b826101eb565b9150610586836101eb565b925082820190508082111561059e5761059d610541565b5b9291505056fea264697066735822122034e27a0281d35cca1a22fb523fcf10d1d9db067ddca2214b987559f3b0b42f5a64736f6c63430008120033",
					"opcodes": "PUSH1 0x80 PUSH1 0x40 MSTORE CALLVALUE DUP1 ISZERO PUSH3 0x11 JUMPI PUSH1 0x0 DUP1 REVERT JUMPDEST POP PUSH1 0x40 MLOAD DUP1 PUSH1 0x40 ADD PUSH1 0x40 MSTORE DUP1 PUSH1 0x5 DUP2 MSTORE PUSH1 0x20 ADD PUSH32 0x4E69726F6A000000000000000000000000000000000000000000000000000000 DUP2 MSTORE POP PUSH1 0x0 SWAP1 DUP2 PUSH3 0x58 SWAP2 SWAP1 PUSH3 0x2E1 JUMP JUMPDEST POP PUSH1 0x16 PUSH1 0x1 DUP2 SWAP1 SSTORE POP PUSH3 0x3C8 JUMP JUMPDEST PUSH1 0x0 DUP2 MLOAD SWAP1 POP SWAP2 SWAP1 POP JUMP JUMPDEST PUSH32 0x4E487B7100000000000000000000000000000000000000000000000000000000 PUSH1 0x0 MSTORE PUSH1 0x41 PUSH1 0x4 MSTORE PUSH1 0x24 PUSH1 0x0 REVERT JUMPDEST PUSH32 0x4E487B7100000000000000000000000000000000000000000000000000000000 PUSH1 0x0 MSTORE PUSH1 0x22 PUSH1 0x4 MSTORE PUSH1 0x24 PUSH1 0x0 REVERT JUMPDEST PUSH1 0x0 PUSH1 0x2 DUP3 DIV SWAP1 POP PUSH1 0x1 DUP3 AND DUP1 PUSH3 0xE9 JUMPI PUSH1 0x7F DUP3 AND SWAP2 POP JUMPDEST PUSH1 0x20 DUP3 LT DUP2 SUB PUSH3 0xFF JUMPI PUSH3 0xFE PUSH3 0xA1 JUMP JUMPDEST JUMPDEST POP SWAP2 SWAP1 POP JUMP JUMPDEST PUSH1 0x0 DUP2 SWAP1 POP DUP2 PUSH1 0x0 MSTORE PUSH1 0x20 PUSH1 0x0 KECCAK256 SWAP1 POP SWAP2 SWAP1 POP JUMP JUMPDEST PUSH1 0x0 PUSH1 0x20 PUSH1 0x1F DUP4 ADD DIV SWAP1 POP SWAP2 SWAP1 POP JUMP JUMPDEST PUSH1 0x0 DUP3 DUP3 SHL SWAP1 POP SWAP3 SWAP2 POP POP JUMP JUMPDEST PUSH1 0x0 PUSH1 0x8 DUP4 MUL PUSH3 0x169 PUSH32 0xFFFFFFFFFFFFFFFFFFFFFFFFFFFFFFFFFFFFFFFFFFFFFFFFFFFFFFFFFFFFFFFF DUP3 PUSH3 0x12A JUMP JUMPDEST PUSH3 0x175 DUP7 DUP4 PUSH3 0x12A JUMP JUMPDEST SWAP6 POP DUP1 NOT DUP5 AND SWAP4 POP DUP1 DUP7 AND DUP5 OR SWAP3 POP POP POP SWAP4 SWAP3 POP POP POP JUMP JUMPDEST PUSH1 0x0 DUP2 SWAP1 POP SWAP2 SWAP1 POP JUMP JUMPDEST PUSH1 0x0 DUP2 SWAP1 POP SWAP2 SWAP1 POP JUMP JUMPDEST PUSH1 0x0 PUSH3 0x1C2 PUSH3 0x1BC PUSH3 0x1B6 DUP5 PUSH3 0x18D JUMP JUMPDEST PUSH3 0x197 JUMP JUMPDEST PUSH3 0x18D JUMP JUMPDEST SWAP1 POP SWAP2 SWAP1 POP JUMP JUMPDEST PUSH1 0x0 DUP2 SWAP1 POP SWAP2 SWAP1 POP JUMP JUMPDEST PUSH3 0x1DE DUP4 PUSH3 0x1A1 JUMP JUMPDEST PUSH3 0x1F6 PUSH3 0x1ED DUP3 PUSH3 0x1C9 JUMP JUMPDEST DUP5 DUP5 SLOAD PUSH3 0x137 JUMP JUMPDEST DUP3 SSTORE POP POP POP POP JUMP JUMPDEST PUSH1 0x0 SWAP1 JUMP JUMPDEST PUSH3 0x20D PUSH3 0x1FE JUMP JUMPDEST PUSH3 0x21A DUP2 DUP5 DUP5 PUSH3 0x1D3 JUMP JUMPDEST POP POP POP JUMP JUMPDEST JUMPDEST DUP2 DUP2 LT ISZERO PUSH3 0x242 JUMPI PUSH3 0x236 PUSH1 0x0 DUP3 PUSH3 0x203 JUMP JUMPDEST PUSH1 0x1 DUP2 ADD SWAP1 POP PUSH3 0x220 JUMP JUMPDEST POP POP JUMP JUMPDEST PUSH1 0x1F DUP3 GT ISZERO PUSH3 0x291 JUMPI PUSH3 0x25B DUP2 PUSH3 0x105 JUMP JUMPDEST PUSH3 0x266 DUP5 PUSH3 0x11A JUMP JUMPDEST DUP2 ADD PUSH1 0x20 DUP6 LT ISZERO PUSH3 0x276 JUMPI DUP2 SWAP1 POP JUMPDEST PUSH3 0x28E PUSH3 0x285 DUP6 PUSH3 0x11A JUMP JUMPDEST DUP4 ADD DUP3 PUSH3 0x21F JUMP JUMPDEST POP POP JUMPDEST POP POP POP JUMP JUMPDEST PUSH1 0x0 DUP3 DUP3 SHR SWAP1 POP SWAP3 SWAP2 POP POP JUMP JUMPDEST PUSH1 0x0 PUSH3 0x2B6 PUSH1 0x0 NOT DUP5 PUSH1 0x8 MUL PUSH3 0x296 JUMP JUMPDEST NOT DUP1 DUP4 AND SWAP2 POP POP SWAP3 SWAP2 POP POP JUMP JUMPDEST PUSH1 0x0 PUSH3 0x2D1 DUP4 DUP4 PUSH3 0x2A3 JUMP JUMPDEST SWAP2 POP DUP3 PUSH1 0x2 MUL DUP3 OR SWAP1 POP SWAP3 SWAP2 POP POP JUMP JUMPDEST PUSH3 0x2EC DUP3 PUSH3 0x67 JUMP JUMPDEST PUSH8 0xFFFFFFFFFFFFFFFF DUP2 GT ISZERO PUSH3 0x308 JUMPI PUSH3 0x307 PUSH3 0x72 JUMP JUMPDEST JUMPDEST PUSH3 0x314 DUP3 SLOAD PUSH3 0xD0 JUMP JUMPDEST PUSH3 0x321 DUP3 DUP3 DUP6 PUSH3 0x246 JUMP JUMPDEST PUSH1 0x0 PUSH1 0x20 SWAP1 POP PUSH1 0x1F DUP4 GT PUSH1 0x1 DUP2 EQ PUSH3 0x359 JUMPI PUSH1 0x0 DUP5 ISZERO PUSH3 0x344 JUMPI DUP3 DUP8 ADD MLOAD SWAP1 POP JUMPDEST PUSH3 0x350 DUP6 DUP3 PUSH3 0x2C3 JUMP JUMPDEST DUP7 SSTORE POP PUSH3 0x3C0 JUMP JUMPDEST PUSH1 0x1F NOT DUP5 AND PUSH3 0x369 DUP7 PUSH3 0x105 JUMP JUMPDEST PUSH1 0x0 JUMPDEST DUP3 DUP2 LT ISZERO PUSH3 0x393 JUMPI DUP5 DUP10 ADD MLOAD DUP3 SSTORE PUSH1 0x1 DUP3 ADD SWAP2 POP PUSH1 0x20 DUP6 ADD SWAP5 POP PUSH1 0x20 DUP2 ADD SWAP1 POP PUSH3 0x36C JUMP JUMPDEST DUP7 DUP4 LT ISZERO PUSH3 0x3B3 JUMPI DUP5 DUP10 ADD MLOAD PUSH3 0x3AF PUSH1 0x1F DUP10 AND DUP3 PUSH3 0x2A3 JUMP JUMPDEST DUP4 SSTORE POP JUMPDEST PUSH1 0x1 PUSH1 0x2 DUP9 MUL ADD DUP9 SSTORE POP POP POP JUMPDEST POP POP POP POP POP POP JUMP JUMPDEST PUSH2 0x5DA DUP1 PUSH3 0x3D8 PUSH1 0x0 CODECOPY PUSH1 0x0 RETURN INVALID PUSH1 0x80 PUSH1 0x40 MSTORE CALLVALUE DUP1 ISZERO PUSH2 0x10 JUMPI PUSH1 0x0 DUP1 REVERT JUMPDEST POP PUSH1 0x4 CALLDATASIZE LT PUSH2 0x36 JUMPI PUSH1 0x0 CALLDATALOAD PUSH1 0xE0 SHR DUP1 PUSH4 0x17D7DE7C EQ PUSH2 0x3B JUMPI DUP1 PUSH4 0x2BF0F81C EQ PUSH2 0x5A JUMPI JUMPDEST PUSH1 0x0 DUP1 REVERT JUMPDEST PUSH2 0x43 PUSH2 0x64 JUMP JUMPDEST PUSH1 0x40 MLOAD PUSH2 0x51 SWAP3 SWAP2 SWAP1 PUSH2 0x204 JUMP JUMPDEST PUSH1 0x40 MLOAD DUP1 SWAP2 SUB SWAP1 RETURN JUMPDEST PUSH2 0x62 PUSH2 0x100 JUMP JUMPDEST STOP JUMPDEST PUSH1 0x60 PUSH1 0x0 DUP1 PUSH1 0x1 SLOAD DUP2 DUP1 SLOAD PUSH2 0x78 SWAP1 PUSH2 0x263 JUMP JUMPDEST DUP1 PUSH1 0x1F ADD PUSH1 0x20 DUP1 SWAP2 DIV MUL PUSH1 0x20 ADD PUSH1 0x40 MLOAD SWAP1 DUP2 ADD PUSH1 0x40 MSTORE DUP1 SWAP3 SWAP2 SWAP1 DUP2 DUP2 MSTORE PUSH1 0x20 ADD DUP3 DUP1 SLOAD PUSH2 0xA4 SWAP1 PUSH2 0x263 JUMP JUMPDEST DUP1 ISZERO PUSH2 0xF1 JUMPI DUP1 PUSH1 0x1F LT PUSH2 0xC6 JUMPI PUSH2 0x100 DUP1 DUP4 SLOAD DIV MUL DUP4 MSTORE SWAP2 PUSH1 0x20 ADD SWAP2 PUSH2 0xF1 JUMP JUMPDEST DUP3 ADD SWAP2 SWAP1 PUSH1 0x0 MSTORE PUSH1 0x20 PUSH1 0x0 KECCAK256 SWAP1 JUMPDEST DUP2 SLOAD DUP2 MSTORE SWAP1 PUSH1 0x1 ADD SWAP1 PUSH1 0x20 ADD DUP1 DUP4 GT PUSH2 0xD4 JUMPI DUP3 SWAP1 SUB PUSH1 0x1F AND DUP3 ADD SWAP2 JUMPDEST POP POP POP POP POP SWAP2 POP SWAP2 POP SWAP2 POP SWAP1 SWAP2 JUMP JUMPDEST PUSH1 0x40 MLOAD DUP1 PUSH1 0x40 ADD PUSH1 0x40 MSTORE DUP1 PUSH1 0x7 DUP2 MSTORE PUSH1 0x20 ADD PUSH32 0x6E6972616A616E00000000000000000000000000000000000000000000000000 DUP2 MSTORE POP PUSH1 0x0 SWAP1 DUP2 PUSH2 0x144 SWAP2 SWAP1 PUSH2 0x46F JUMP JUMPDEST POP PUSH1 0x1 DUP1 SLOAD PUSH2 0x153 SWAP2 SWAP1 PUSH2 0x570 JUMP JUMPDEST PUSH1 0x1 DUP2 SWAP1 SSTORE POP JUMP JUMPDEST PUSH1 0x0 DUP2 MLOAD SWAP1 POP SWAP2 SWAP1 POP JUMP JUMPDEST PUSH1 0x0 DUP3 DUP3 MSTORE PUSH1 0x20 DUP3 ADD SWAP1 POP SWAP3 SWAP2 POP POP JUMP JUMPDEST PUSH1 0x0 JUMPDEST DUP4 DUP2 LT ISZERO PUSH2 0x195 JUMPI DUP1 DUP3 ADD MLOAD DUP2 DUP5 ADD MSTORE PUSH1 0x20 DUP2 ADD SWAP1 POP PUSH2 0x17A JUMP JUMPDEST PUSH1 0x0 DUP5 DUP5 ADD MSTORE POP POP POP POP JUMP JUMPDEST PUSH1 0x0 PUSH1 0x1F NOT PUSH1 0x1F DUP4 ADD AND SWAP1 POP SWAP2 SWAP1 POP JUMP JUMPDEST PUSH1 0x0 PUSH2 0x1BD DUP3 PUSH2 0x15B JUMP JUMPDEST PUSH2 0x1C7 DUP2 DUP6 PUSH2 0x166 JUMP JUMPDEST SWAP4 POP PUSH2 0x1D7 DUP2 DUP6 PUSH1 0x20 DUP7 ADD PUSH2 0x177 JUMP JUMPDEST PUSH2 0x1E0 DUP2 PUSH2 0x1A1 JUMP JUMPDEST DUP5 ADD SWAP2 POP POP SWAP3 SWAP2 POP POP JUMP JUMPDEST PUSH1 0x0 DUP2 SWAP1 POP SWAP2 SWAP1 POP JUMP JUMPDEST PUSH2 0x1FE DUP2 PUSH2 0x1EB JUMP JUMPDEST DUP3 MSTORE POP POP JUMP JUMPDEST PUSH1 0x0 PUSH1 0x40 DUP3 ADD SWAP1 POP DUP2 DUP2 SUB PUSH1 0x0 DUP4 ADD MSTORE PUSH2 0x21E DUP2 DUP6 PUSH2 0x1B2 JUMP JUMPDEST SWAP1 POP PUSH2 0x22D PUSH1 0x20 DUP4 ADD DUP5 PUSH2 0x1F5 JUMP JUMPDEST SWAP4 SWAP3 POP POP POP JUMP JUMPDEST PUSH32 0x4E487B7100000000000000000000000000000000000000000000000000000000 PUSH1 0x0 MSTORE PUSH1 0x22 PUSH1 0x4 MSTORE PUSH1 0x24 PUSH1 0x0 REVERT JUMPDEST PUSH1 0x0 PUSH1 0x2 DUP3 DIV SWAP1 POP PUSH1 0x1 DUP3 AND DUP1 PUSH2 0x27B JUMPI PUSH1 0x7F DUP3 AND SWAP2 POP JUMPDEST PUSH1 0x20 DUP3 LT DUP2 SUB PUSH2 0x28E JUMPI PUSH2 0x28D PUSH2 0x234 JUMP JUMPDEST JUMPDEST POP SWAP2 SWAP1 POP JUMP JUMPDEST PUSH32 0x4E487B7100000000000000000000000000000000000000000000000000000000 PUSH1 0x0 MSTORE PUSH1 0x41 PUSH1 0x4 MSTORE PUSH1 0x24 PUSH1 0x0 REVERT JUMPDEST PUSH1 0x0 DUP2 SWAP1 POP DUP2 PUSH1 0x0 MSTORE PUSH1 0x20 PUSH1 0x0 KECCAK256 SWAP1 POP SWAP2 SWAP1 POP JUMP JUMPDEST PUSH1 0x0 PUSH1 0x20 PUSH1 0x1F DUP4 ADD DIV SWAP1 POP SWAP2 SWAP1 POP JUMP JUMPDEST PUSH1 0x0 DUP3 DUP3 SHL SWAP1 POP SWAP3 SWAP2 POP POP JUMP JUMPDEST PUSH1 0x0 PUSH1 0x8 DUP4 MUL PUSH2 0x325 PUSH32 0xFFFFFFFFFFFFFFFFFFFFFFFFFFFFFFFFFFFFFFFFFFFFFFFFFFFFFFFFFFFFFFFF DUP3 PUSH2 0x2E8 JUMP JUMPDEST PUSH2 0x32F DUP7 DUP4 PUSH2 0x2E8 JUMP JUMPDEST SWAP6 POP DUP1 NOT DUP5 AND SWAP4 POP DUP1 DUP7 AND DUP5 OR SWAP3 POP POP POP SWAP4 SWAP3 POP POP POP JUMP JUMPDEST PUSH1 0x0 DUP2 SWAP1 POP SWAP2 SWAP1 POP JUMP JUMPDEST PUSH1 0x0 PUSH2 0x36C PUSH2 0x367 PUSH2 0x362 DUP5 PUSH2 0x1EB JUMP JUMPDEST PUSH2 0x347 JUMP JUMPDEST PUSH2 0x1EB JUMP JUMPDEST SWAP1 POP SWAP2 SWAP1 POP JUMP JUMPDEST PUSH1 0x0 DUP2 SWAP1 POP SWAP2 SWAP1 POP JUMP JUMPDEST PUSH2 0x386 DUP4 PUSH2 0x351 JUMP JUMPDEST PUSH2 0x39A PUSH2 0x392 DUP3 PUSH2 0x373 JUMP JUMPDEST DUP5 DUP5 SLOAD PUSH2 0x2F5 JUMP JUMPDEST DUP3 SSTORE POP POP POP POP JUMP JUMPDEST PUSH1 0x0 SWAP1 JUMP JUMPDEST PUSH2 0x3AF PUSH2 0x3A2 JUMP JUMPDEST PUSH2 0x3BA DUP2 DUP5 DUP5 PUSH2 0x37D JUMP JUMPDEST POP POP POP JUMP JUMPDEST JUMPDEST DUP2 DUP2 LT ISZERO PUSH2 0x3DE JUMPI PUSH2 0x3D3 PUSH1 0x0 DUP3 PUSH2 0x3A7 JUMP JUMPDEST PUSH1 0x1 DUP2 ADD SWAP1 POP PUSH2 0x3C0 JUMP JUMPDEST POP POP JUMP JUMPDEST PUSH1 0x1F DUP3 GT ISZERO PUSH2 0x423 JUMPI PUSH2 0x3F4 DUP2 PUSH2 0x2C3 JUMP JUMPDEST PUSH2 0x3FD DUP5 PUSH2 0x2D8 JUMP JUMPDEST DUP2 ADD PUSH1 0x20 DUP6 LT ISZERO PUSH2 0x40C JUMPI DUP2 SWAP1 POP JUMPDEST PUSH2 0x420 PUSH2 0x418 DUP6 PUSH2 0x2D8 JUMP JUMPDEST DUP4 ADD DUP3 PUSH2 0x3BF JUMP JUMPDEST POP POP JUMPDEST POP POP POP JUMP JUMPDEST PUSH1 0x0 DUP3 DUP3 SHR SWAP1 POP SWAP3 SWAP2 POP POP JUMP JUMPDEST PUSH1 0x0 PUSH2 0x446 PUSH1 0x0 NOT DUP5 PUSH1 0x8 MUL PUSH2 0x428 JUMP JUMPDEST NOT DUP1 DUP4 AND SWAP2 POP POP SWAP3 SWAP2 POP POP JUMP JUMPDEST PUSH1 0x0 PUSH2 0x45F DUP4 DUP4 PUSH2 0x435 JUMP JUMPDEST SWAP2 POP DUP3 PUSH1 0x2 MUL DUP3 OR SWAP1 POP SWAP3 SWAP2 POP POP JUMP JUMPDEST PUSH2 0x478 DUP3 PUSH2 0x15B JUMP JUMPDEST PUSH8 0xFFFFFFFFFFFFFFFF DUP2 GT ISZERO PUSH2 0x491 JUMPI PUSH2 0x490 PUSH2 0x294 JUMP JUMPDEST JUMPDEST PUSH2 0x49B DUP3 SLOAD PUSH2 0x263 JUMP JUMPDEST PUSH2 0x4A6 DUP3 DUP3 DUP6 PUSH2 0x3E2 JUMP JUMPDEST PUSH1 0x0 PUSH1 0x20 SWAP1 POP PUSH1 0x1F DUP4 GT PUSH1 0x1 DUP2 EQ PUSH2 0x4D9 JUMPI PUSH1 0x0 DUP5 ISZERO PUSH2 0x4C7 JUMPI DUP3 DUP8 ADD MLOAD SWAP1 POP JUMPDEST PUSH2 0x4D1 DUP6 DUP3 PUSH2 0x453 JUMP JUMPDEST DUP7 SSTORE POP PUSH2 0x539 JUMP JUMPDEST PUSH1 0x1F NOT DUP5 AND PUSH2 0x4E7 DUP7 PUSH2 0x2C3 JUMP JUMPDEST PUSH1 0x0 JUMPDEST DUP3 DUP2 LT ISZERO PUSH2 0x50F JUMPI DUP5 DUP10 ADD MLOAD DUP3 SSTORE PUSH1 0x1 DUP3 ADD SWAP2 POP PUSH1 0x20 DUP6 ADD SWAP5 POP PUSH1 0x20 DUP2 ADD SWAP1 POP PUSH2 0x4EA JUMP JUMPDEST DUP7 DUP4 LT ISZERO PUSH2 0x52C JUMPI DUP5 DUP10 ADD MLOAD PUSH2 0x528 PUSH1 0x1F DUP10 AND DUP3 PUSH2 0x435 JUMP JUMPDEST DUP4 SSTORE POP JUMPDEST PUSH1 0x1 PUSH1 0x2 DUP9 MUL ADD DUP9 SSTORE POP POP POP JUMPDEST POP POP POP POP POP POP JUMP JUMPDEST PUSH32 0x4E487B7100000000000000000000000000000000000000000000000000000000 PUSH1 0x0 MSTORE PUSH1 0x11 PUSH1 0x4 MSTORE PUSH1 0x24 PUSH1 0x0 REVERT JUMPDEST PUSH1 0x0 PUSH2 0x57B DUP3 PUSH2 0x1EB JUMP JUMPDEST SWAP2 POP PUSH2 0x586 DUP4 PUSH2 0x1EB JUMP JUMPDEST SWAP3 POP DUP3 DUP3 ADD SWAP1 POP DUP1 DUP3 GT ISZERO PUSH2 0x59E JUMPI PUSH2 0x59D PUSH2 0x541 JUMP JUMPDEST JUMPDEST SWAP3 SWAP2 POP POP JUMP INVALID LOG2 PUSH5 0x6970667358 0x22 SLT KECCAK256 CALLVALUE 0xE2 PUSH27 0x281D35CCA1A22FB523FCF10D1D9DB067DDCA2214B987559F3B0B4 0x2F GAS PUSH5 0x736F6C6343 STOP ADDMOD SLT STOP CALLER "
				},
				"gasEstimates": {
					"creation": {
						"codeDepositCost": "299600",
						"executionCost": "infinite",
						"totalCost": "infinite"
					},
					"external": {
						"getName()": "infinite",
						"setName()": "infinite"
					}
				},
				"methodIdentifiers": {
					"getName()": "17d7de7c",
					"setName()": "2bf0f81c"
				}
			},
			"storageLayout": {
				"storage": [
					{
						"astId": 3,
						"contract": "practice.sol:demo",
						"label": "name",
						"offset": 0,
						"slot": "0",
						"type": "t_string_storage"
					},
					{
						"astId": 5,
						"contract": "practice.sol:demo",
						"label": "age",
						"offset": 0,
						"slot": "1",
						"type": "t_uint256"
					}
				],
				"types": {
					"t_string_storage": {
						"encoding": "bytes",
						"label": "string",
						"numberOfBytes": "32"
					},
					"t_uint256": {
						"encoding": "inplace",
						"label": "uint256",
						"numberOfBytes": "32"
					}
				}
			},
			"userdoc": {
				"kind": "user",
				"methods": {},
				"version": 1
			}
		}
	}
}