{
	"loop.sol": {
		"Loop": {
			"abi": [
				{
					"inputs": [
						{
							"internalType": "uint256",
							"name": "",
							"type": "uint256"
						}
					],
					"name": "arr",
					"outputs": [
						{
							"internalType": "uint256",
							"name": "",
							"type": "uint256"
						}
					],
					"stateMutability": "view",
					"type": "function"
				},
				{
					"inputs": [],
					"name": "count",
					"outputs": [
						{
							"internalType": "uint256",
							"name": "",
							"type": "uint256"
						}
					],
					"stateMutability": "view",
					"type": "function"
				},
				{
					"inputs": [],
					"name": "forloop",
					"outputs": [],
					"stateMutability": "nonpayable",
					"type": "function"
				},
				{
					"inputs": [],
					"name": "loop",
					"outputs": [],
					"stateMutability": "nonpayable",
					"type": "function"
				}
			],
			"devdoc": {
				"kind": "dev",
				"methods": {},
				"version": 1
			},
			"evm": {
				"assembly": "    /* \"loop.sol\":57:348  contract Loop{... */\n  mstore(0x40, 0x80)\n  callvalue\n  dup1\n  iszero\n  tag_1\n  jumpi\n  0x00\n  dup1\n  revert\ntag_1:\n  pop\n  dataSize(sub_0)\n  dup1\n  dataOffset(sub_0)\n  0x00\n  codecopy\n  0x00\n  return\nstop\n\nsub_0: assembly {\n        /* \"loop.sol\":57:348  contract Loop{... */\n      mstore(0x40, 0x80)\n      callvalue\n      dup1\n      iszero\n      tag_1\n      jumpi\n      0x00\n      dup1\n      revert\n    tag_1:\n      pop\n      jumpi(tag_2, lt(calldatasize, 0x04))\n      shr(0xe0, calldataload(0x00))\n      dup1\n      0x06661abd\n      eq\n      tag_3\n      jumpi\n      dup1\n      0x71e5ee5f\n      eq\n      tag_4\n      jumpi\n      dup1\n      0xa92100cb\n      eq\n      tag_5\n      jumpi\n      dup1\n      0xbc68f960\n      eq\n      tag_6\n      jumpi\n    tag_2:\n      0x00\n      dup1\n      revert\n        /* \"loop.sol\":94:112  uint public  count */\n    tag_3:\n      tag_7\n      tag_8\n      jump\t// in\n    tag_7:\n      mload(0x40)\n      tag_9\n      swap2\n      swap1\n      tag_10\n      jump\t// in\n    tag_9:\n      mload(0x40)\n      dup1\n      swap2\n      sub\n      swap1\n      return\n        /* \"loop.sol\":73:92  uint[5] public  arr */\n    tag_4:\n      tag_11\n      0x04\n      dup1\n      calldatasize\n      sub\n      dup2\n      add\n      swap1\n      tag_12\n      swap2\n      swap1\n      tag_13\n      jump\t// in\n    tag_12:\n      tag_14\n      jump\t// in\n    tag_11:\n      mload(0x40)\n      tag_15\n      swap2\n      swap1\n      tag_10\n      jump\t// in\n    tag_15:\n      mload(0x40)\n      dup1\n      swap2\n      sub\n      swap1\n      return\n        /* \"loop.sol\":115:224  function loop()public  {... */\n    tag_5:\n      tag_16\n      tag_17\n      jump\t// in\n    tag_16:\n      stop\n        /* \"loop.sol\":226:345  function forloop()public  {... */\n    tag_6:\n      tag_18\n      tag_19\n      jump\t// in\n    tag_18:\n      stop\n        /* \"loop.sol\":94:112  uint public  count */\n    tag_8:\n      sload(0x05)\n      dup2\n      jump\t// out\n        /* \"loop.sol\":73:92  uint[5] public  arr */\n    tag_14:\n      0x00\n      dup2\n      0x05\n      dup2\n      lt\n      tag_20\n      jumpi\n      0x00\n      dup1\n      revert\n    tag_20:\n      add\n      0x00\n      swap2\n      pop\n      swap1\n      pop\n      sload\n      dup2\n      jump\t// out\n        /* \"loop.sol\":115:224  function loop()public  {... */\n    tag_17:\n        /* \"loop.sol\":147:220  while(count<arr.length){... */\n    tag_23:\n        /* \"loop.sol\":159:169  arr.length */\n      0x05\n        /* \"loop.sol\":153:158  count */\n      dup1\n      sload\n        /* \"loop.sol\":153:169  count<arr.length */\n      lt\n        /* \"loop.sol\":147:220  while(count<arr.length){... */\n      iszero\n      tag_24\n      jumpi\n        /* \"loop.sol\":191:196  count */\n      sload(0x05)\n        /* \"loop.sol\":180:183  arr */\n      0x00\n        /* \"loop.sol\":184:189  count */\n      sload(0x05)\n        /* \"loop.sol\":180:190  arr[count] */\n      0x05\n      dup2\n      lt\n      tag_25\n      jumpi\n      tag_26\n      tag_27\n      jump\t// in\n    tag_26:\n    tag_25:\n      add\n        /* \"loop.sol\":180:196  arr[count]=count */\n      dup2\n      swap1\n      sstore\n      pop\n        /* \"loop.sol\":206:211  count */\n      0x05\n      0x00\n        /* \"loop.sol\":206:213  count++ */\n      dup2\n      sload\n      dup1\n      swap3\n      swap2\n      swap1\n      tag_29\n      swap1\n      tag_30\n      jump\t// in\n    tag_29:\n      swap2\n      swap1\n      pop\n      sstore\n      pop\n        /* \"loop.sol\":147:220  while(count<arr.length){... */\n      jump(tag_23)\n    tag_24:\n        /* \"loop.sol\":115:224  function loop()public  {... */\n      jump\t// out\n        /* \"loop.sol\":226:345  function forloop()public  {... */\n    tag_19:\n        /* \"loop.sol\":265:271  uint i */\n      0x00\n        /* \"loop.sol\":261:341  for(uint i=0;i<arr.length;i++){... */\n    tag_32:\n        /* \"loop.sol\":276:286  arr.length */\n      0x05\n        /* \"loop.sol\":274:275  i */\n      dup2\n        /* \"loop.sol\":274:286  i<arr.length */\n      lt\n        /* \"loop.sol\":261:341  for(uint i=0;i<arr.length;i++){... */\n      iszero\n      tag_33\n      jumpi\n        /* \"loop.sol\":312:317  count */\n      sload(0x05)\n        /* \"loop.sol\":301:304  arr */\n      0x00\n        /* \"loop.sol\":305:310  count */\n      sload(0x05)\n        /* \"loop.sol\":301:311  arr[count] */\n      0x05\n      dup2\n      lt\n      tag_35\n      jumpi\n      tag_36\n      tag_27\n      jump\t// in\n    tag_36:\n    tag_35:\n      add\n        /* \"loop.sol\":301:317  arr[count]=count */\n      dup2\n      swap1\n      sstore\n      pop\n        /* \"loop.sol\":327:332  count */\n      0x05\n      0x00\n        /* \"loop.sol\":327:334  count++ */\n      dup2\n      sload\n      dup1\n      swap3\n      swap2\n      swap1\n      tag_38\n      swap1\n      tag_30\n      jump\t// in\n    tag_38:\n      swap2\n      swap1\n      pop\n      sstore\n      pop\n        /* \"loop.sol\":287:290  i++ */\n      dup1\n      dup1\n      tag_39\n      swap1\n      tag_30\n      jump\t// in\n    tag_39:\n      swap2\n      pop\n      pop\n        /* \"loop.sol\":261:341  for(uint i=0;i<arr.length;i++){... */\n      jump(tag_32)\n    tag_33:\n      pop\n        /* \"loop.sol\":226:345  function forloop()public  {... */\n      jump\t// out\n        /* \"#utility.yul\":7:84   */\n    tag_40:\n        /* \"#utility.yul\":44:51   */\n      0x00\n        /* \"#utility.yul\":73:78   */\n      dup2\n        /* \"#utility.yul\":62:78   */\n      swap1\n      pop\n        /* \"#utility.yul\":7:84   */\n      swap2\n      swap1\n      pop\n      jump\t// out\n        /* \"#utility.yul\":90:208   */\n    tag_41:\n        /* \"#utility.yul\":177:201   */\n      tag_51\n        /* \"#utility.yul\":195:200   */\n      dup2\n        /* \"#utility.yul\":177:201   */\n      tag_40\n      jump\t// in\n    tag_51:\n        /* \"#utility.yul\":172:175   */\n      dup3\n        /* \"#utility.yul\":165:202   */\n      mstore\n        /* \"#utility.yul\":90:208   */\n      pop\n      pop\n      jump\t// out\n        /* \"#utility.yul\":214:436   */\n    tag_10:\n        /* \"#utility.yul\":307:311   */\n      0x00\n        /* \"#utility.yul\":345:347   */\n      0x20\n        /* \"#utility.yul\":334:343   */\n      dup3\n        /* \"#utility.yul\":330:348   */\n      add\n        /* \"#utility.yul\":322:348   */\n      swap1\n      pop\n        /* \"#utility.yul\":358:429   */\n      tag_53\n        /* \"#utility.yul\":426:427   */\n      0x00\n        /* \"#utility.yul\":415:424   */\n      dup4\n        /* \"#utility.yul\":411:428   */\n      add\n        /* \"#utility.yul\":402:408   */\n      dup5\n        /* \"#utility.yul\":358:429   */\n      tag_41\n      jump\t// in\n    tag_53:\n        /* \"#utility.yul\":214:436   */\n      swap3\n      swap2\n      pop\n      pop\n      jump\t// out\n        /* \"#utility.yul\":523:640   */\n    tag_43:\n        /* \"#utility.yul\":632:633   */\n      0x00\n        /* \"#utility.yul\":629:630   */\n      dup1\n        /* \"#utility.yul\":622:634   */\n      revert\n        /* \"#utility.yul\":769:891   */\n    tag_45:\n        /* \"#utility.yul\":842:866   */\n      tag_58\n        /* \"#utility.yul\":860:865   */\n      dup2\n        /* \"#utility.yul\":842:866   */\n      tag_40\n      jump\t// in\n    tag_58:\n        /* \"#utility.yul\":835:840   */\n      dup2\n        /* \"#utility.yul\":832:867   */\n      eq\n        /* \"#utility.yul\":822:885   */\n      tag_59\n      jumpi\n        /* \"#utility.yul\":881:882   */\n      0x00\n        /* \"#utility.yul\":878:879   */\n      dup1\n        /* \"#utility.yul\":871:883   */\n      revert\n        /* \"#utility.yul\":822:885   */\n    tag_59:\n        /* \"#utility.yul\":769:891   */\n      pop\n      jump\t// out\n        /* \"#utility.yul\":897:1036   */\n    tag_46:\n        /* \"#utility.yul\":943:948   */\n      0x00\n        /* \"#utility.yul\":981:987   */\n      dup2\n        /* \"#utility.yul\":968:988   */\n      calldataload\n        /* \"#utility.yul\":959:988   */\n      swap1\n      pop\n        /* \"#utility.yul\":997:1030   */\n      tag_61\n        /* \"#utility.yul\":1024:1029   */\n      dup2\n        /* \"#utility.yul\":997:1030   */\n      tag_45\n      jump\t// in\n    tag_61:\n        /* \"#utility.yul\":897:1036   */\n      swap3\n      swap2\n      pop\n      pop\n      jump\t// out\n        /* \"#utility.yul\":1042:1371   */\n    tag_13:\n        /* \"#utility.yul\":1101:1107   */\n      0x00\n        /* \"#utility.yul\":1150:1152   */\n      0x20\n        /* \"#utility.yul\":1138:1147   */\n      dup3\n        /* \"#utility.yul\":1129:1136   */\n      dup5\n        /* \"#utility.yul\":1125:1148   */\n      sub\n        /* \"#utility.yul\":1121:1153   */\n      slt\n        /* \"#utility.yul\":1118:1237   */\n      iszero\n      tag_63\n      jumpi\n        /* \"#utility.yul\":1156:1235   */\n      tag_64\n      tag_43\n      jump\t// in\n    tag_64:\n        /* \"#utility.yul\":1118:1237   */\n    tag_63:\n        /* \"#utility.yul\":1276:1277   */\n      0x00\n        /* \"#utility.yul\":1301:1354   */\n      tag_65\n        /* \"#utility.yul\":1346:1353   */\n      dup5\n        /* \"#utility.yul\":1337:1343   */\n      dup3\n        /* \"#utility.yul\":1326:1335   */\n      dup6\n        /* \"#utility.yul\":1322:1344   */\n      add\n        /* \"#utility.yul\":1301:1354   */\n      tag_46\n      jump\t// in\n    tag_65:\n        /* \"#utility.yul\":1291:1354   */\n      swap2\n      pop\n        /* \"#utility.yul\":1247:1364   */\n      pop\n        /* \"#utility.yul\":1042:1371   */\n      swap3\n      swap2\n      pop\n      pop\n      jump\t// out\n        /* \"#utility.yul\":1377:1557   */\n    tag_27:\n        /* \"#utility.yul\":1425:1502   */\n      0x4e487b7100000000000000000000000000000000000000000000000000000000\n        /* \"#utility.yul\":1422:1423   */\n      0x00\n        /* \"#utility.yul\":1415:1503   */\n      mstore\n        /* \"#utility.yul\":1522:1526   */\n      0x32\n        /* \"#utility.yul\":1519:1520   */\n      0x04\n        /* \"#utility.yul\":1512:1527   */\n      mstore\n        /* \"#utility.yul\":1546:1550   */\n      0x24\n        /* \"#utility.yul\":1543:1544   */\n      0x00\n        /* \"#utility.yul\":1536:1551   */\n      revert\n        /* \"#utility.yul\":1563:1743   */\n    tag_47:\n        /* \"#utility.yul\":1611:1688   */\n      0x4e487b7100000000000000000000000000000000000000000000000000000000\n        /* \"#utility.yul\":1608:1609   */\n      0x00\n        /* \"#utility.yul\":1601:1689   */\n      mstore\n        /* \"#utility.yul\":1708:1712   */\n      0x11\n        /* \"#utility.yul\":1705:1706   */\n      0x04\n        /* \"#utility.yul\":1698:1713   */\n      mstore\n        /* \"#utility.yul\":1732:1736   */\n      0x24\n        /* \"#utility.yul\":1729:1730   */\n      0x00\n        /* \"#utility.yul\":1722:1737   */\n      revert\n        /* \"#utility.yul\":1749:1982   */\n    tag_30:\n        /* \"#utility.yul\":1788:1791   */\n      0x00\n        /* \"#utility.yul\":1811:1835   */\n      tag_69\n        /* \"#utility.yul\":1829:1834   */\n      dup3\n        /* \"#utility.yul\":1811:1835   */\n      tag_40\n      jump\t// in\n    tag_69:\n        /* \"#utility.yul\":1802:1835   */\n      swap2\n      pop\n        /* \"#utility.yul\":1857:1923   */\n      0xffffffffffffffffffffffffffffffffffffffffffffffffffffffffffffffff\n        /* \"#utility.yul\":1850:1855   */\n      dup3\n        /* \"#utility.yul\":1847:1924   */\n      sub\n        /* \"#utility.yul\":1844:1947   */\n      tag_70\n      jumpi\n        /* \"#utility.yul\":1927:1945   */\n      tag_71\n      tag_47\n      jump\t// in\n    tag_71:\n        /* \"#utility.yul\":1844:1947   */\n    tag_70:\n        /* \"#utility.yul\":1974:1975   */\n      0x01\n        /* \"#utility.yul\":1967:1972   */\n      dup3\n        /* \"#utility.yul\":1963:1976   */\n      add\n        /* \"#utility.yul\":1956:1976   */\n      swap1\n      pop\n        /* \"#utility.yul\":1749:1982   */\n      swap2\n      swap1\n      pop\n      jump\t// out\n\n    auxdata: 0xa2646970667358221220a87ac2aba92bb4382b7e9e38cea058b99b0e5118b02fc57235bd81dacb5fb7bd64736f6c63430008120033\n}\n",
				"bytecode": {
					"linkReferences": {},
					"object": "608060405234801561001057600080fd5b506102e2806100206000396000f3fe608060405234801561001057600080fd5b506004361061004c5760003560e01c806306661abd1461005157806371e5ee5f1461006f578063a92100cb1461009f578063bc68f960146100a9575b600080fd5b6100596100b3565b604051610066919061018d565b60405180910390f35b610089600480360381019061008491906101d9565b6100b9565b604051610096919061018d565b60405180910390f35b6100a76100d4565b005b6100b161011c565b005b60055481565b600081600581106100c957600080fd5b016000915090505481565b5b60058054101561011a576005546000600554600581106100f8576100f7610206565b5b01819055506005600081548092919061011090610264565b91905055506100d5565b565b60005b60058110156101715760055460006005546005811061014157610140610206565b5b01819055506005600081548092919061015990610264565b9190505550808061016990610264565b91505061011f565b50565b6000819050919050565b61018781610174565b82525050565b60006020820190506101a2600083018461017e565b92915050565b600080fd5b6101b681610174565b81146101c157600080fd5b50565b6000813590506101d3816101ad565b92915050565b6000602082840312156101ef576101ee6101a8565b5b60006101fd848285016101c4565b91505092915050565b7f4e487b7100000000000000000000000000000000000000000000000000000000600052603260045260246000fd5b7f4e487b7100000000000000000000000000000000000000000000000000000000600052601160045260246000fd5b600061026f82610174565b91507fffffffffffffffffffffffffffffffffffffffffffffffffffffffffffffffff82036102a1576102a0610235565b5b60018201905091905056fea2646970667358221220a87ac2aba92bb4382b7e9e38cea058b99b0e5118b02fc57235bd81dacb5fb7bd64736f6c63430008120033",
					"opcodes": "PUSH1 0x80 PUSH1 0x40 MSTORE CALLVALUE DUP1 ISZERO PUSH2 0x10 JUMPI PUSH1 0x0 DUP1 REVERT JUMPDEST POP PUSH2 0x2E2 DUP1 PUSH2 0x20 PUSH1 0x0 CODECOPY PUSH1 0x0 RETURN INVALID PUSH1 0x80 PUSH1 0x40 MSTORE CALLVALUE DUP1 ISZERO PUSH2 0x10 JUMPI PUSH1 0x0 DUP1 REVERT JUMPDEST POP PUSH1 0x4 CALLDATASIZE LT PUSH2 0x4C JUMPI PUSH1 0x0 CALLDATALOAD PUSH1 0xE0 SHR DUP1 PUSH4 0x6661ABD EQ PUSH2 0x51 JUMPI DUP1 PUSH4 0x71E5EE5F EQ PUSH2 0x6F JUMPI DUP1 PUSH4 0xA92100CB EQ PUSH2 0x9F JUMPI DUP1 PUSH4 0xBC68F960 EQ PUSH2 0xA9 JUMPI JUMPDEST PUSH1 0x0 DUP1 REVERT JUMPDEST PUSH2 0x59 PUSH2 0xB3 JUMP JUMPDEST PUSH1 0x40 MLOAD PUSH2 0x66 SWAP2 SWAP1 PUSH2 0x18D JUMP JUMPDEST PUSH1 0x40 MLOAD DUP1 SWAP2 SUB SWAP1 RETURN JUMPDEST PUSH2 0x89 PUSH1 0x4 DUP1 CALLDATASIZE SUB DUP2 ADD SWAP1 PUSH2 0x84 SWAP2 SWAP1 PUSH2 0x1D9 JUMP JUMPDEST PUSH2 0xB9 JUMP JUMPDEST PUSH1 0x40 MLOAD PUSH2 0x96 SWAP2 SWAP1 PUSH2 0x18D JUMP JUMPDEST PUSH1 0x40 MLOAD DUP1 SWAP2 SUB SWAP1 RETURN JUMPDEST PUSH2 0xA7 PUSH2 0xD4 JUMP JUMPDEST STOP JUMPDEST PUSH2 0xB1 PUSH2 0x11C JUMP JUMPDEST STOP JUMPDEST PUSH1 0x5 SLOAD DUP2 JUMP JUMPDEST PUSH1 0x0 DUP2 PUSH1 0x5 DUP2 LT PUSH2 0xC9 JUMPI PUSH1 0x0 DUP1 REVERT JUMPDEST ADD PUSH1 0x0 SWAP2 POP SWAP1 POP SLOAD DUP2 JUMP JUMPDEST JUMPDEST PUSH1 0x5 DUP1 SLOAD LT ISZERO PUSH2 0x11A JUMPI PUSH1 0x5 SLOAD PUSH1 0x0 PUSH1 0x5 SLOAD PUSH1 0x5 DUP2 LT PUSH2 0xF8 JUMPI PUSH2 0xF7 PUSH2 0x206 JUMP JUMPDEST JUMPDEST ADD DUP2 SWAP1 SSTORE POP PUSH1 0x5 PUSH1 0x0 DUP2 SLOAD DUP1 SWAP3 SWAP2 SWAP1 PUSH2 0x110 SWAP1 PUSH2 0x264 JUMP JUMPDEST SWAP2 SWAP1 POP SSTORE POP PUSH2 0xD5 JUMP JUMPDEST JUMP JUMPDEST PUSH1 0x0 JUMPDEST PUSH1 0x5 DUP2 LT ISZERO PUSH2 0x171 JUMPI PUSH1 0x5 SLOAD PUSH1 0x0 PUSH1 0x5 SLOAD PUSH1 0x5 DUP2 LT PUSH2 0x141 JUMPI PUSH2 0x140 PUSH2 0x206 JUMP JUMPDEST JUMPDEST ADD DUP2 SWAP1 SSTORE POP PUSH1 0x5 PUSH1 0x0 DUP2 SLOAD DUP1 SWAP3 SWAP2 SWAP1 PUSH2 0x159 SWAP1 PUSH2 0x264 JUMP JUMPDEST SWAP2 SWAP1 POP SSTORE POP DUP1 DUP1 PUSH2 0x169 SWAP1 PUSH2 0x264 JUMP JUMPDEST SWAP2 POP POP PUSH2 0x11F JUMP JUMPDEST POP JUMP JUMPDEST PUSH1 0x0 DUP2 SWAP1 POP SWAP2 SWAP1 POP JUMP JUMPDEST PUSH2 0x187 DUP2 PUSH2 0x174 JUMP JUMPDEST DUP3 MSTORE POP POP JUMP JUMPDEST PUSH1 0x0 PUSH1 0x20 DUP3 ADD SWAP1 POP PUSH2 0x1A2 PUSH1 0x0 DUP4 ADD DUP5 PUSH2 0x17E JUMP JUMPDEST SWAP3 SWAP2 POP POP JUMP JUMPDEST PUSH1 0x0 DUP1 REVERT JUMPDEST PUSH2 0x1B6 DUP2 PUSH2 0x174 JUMP JUMPDEST DUP2 EQ PUSH2 0x1C1 JUMPI PUSH1 0x0 DUP1 REVERT JUMPDEST POP JUMP JUMPDEST PUSH1 0x0 DUP2 CALLDATALOAD SWAP1 POP PUSH2 0x1D3 DUP2 PUSH2 0x1AD JUMP JUMPDEST SWAP3 SWAP2 POP POP JUMP JUMPDEST PUSH1 0x0 PUSH1 0x20 DUP3 DUP5 SUB SLT ISZERO PUSH2 0x1EF JUMPI PUSH2 0x1EE PUSH2 0x1A8 JUMP JUMPDEST JUMPDEST PUSH1 0x0 PUSH2 0x1FD DUP5 DUP3 DUP6 ADD PUSH2 0x1C4 JUMP JUMPDEST SWAP2 POP POP SWAP3 SWAP2 POP POP JUMP JUMPDEST PUSH32 0x4E487B7100000000000000000000000000000000000000000000000000000000 PUSH1 0x0 MSTORE PUSH1 0x32 PUSH1 0x4 MSTORE PUSH1 0x24 PUSH1 0x0 REVERT JUMPDEST PUSH32 0x4E487B7100000000000000000000000000000000000000000000000000000000 PUSH1 0x0 MSTORE PUSH1 0x11 PUSH1 0x4 MSTORE PUSH1 0x24 PUSH1 0x0 REVERT JUMPDEST PUSH1 0x0 PUSH2 0x26F DUP3 PUSH2 0x174 JUMP JUMPDEST SWAP2 POP PUSH32 0xFFFFFFFFFFFFFFFFFFFFFFFFFFFFFFFFFFFFFFFFFFFFFFFFFFFFFFFFFFFFFFFF DUP3 SUB PUSH2 0x2A1 JUMPI PUSH2 0x2A0 PUSH2 0x235 JUMP JUMPDEST JUMPDEST PUSH1 0x1 DUP3 ADD SWAP1 POP SWAP2 SWAP1 POP JUMP INVALID LOG2 PUSH5 0x6970667358 0x22 SLT KECCAK256 0xA8 PUSH27 0xC2ABA92BB4382B7E9E38CEA058B99B0E5118B02FC57235BD81DACB 0x5F 0xB7 0xBD PUSH5 0x736F6C6343 STOP ADDMOD SLT STOP CALLER "
				},
				"gasEstimates": {
					"creation": {
						"codeDepositCost": "147600",
						"executionCost": "196",
						"totalCost": "147796"
					},
					"external": {
						"arr(uint256)": "infinite",
						"count()": "2407",
						"forloop()": "infinite",
						"loop()": "infinite"
					}
				},
				"methodIdentifiers": {
					"arr(uint256)": "71e5ee5f",
					"count()": "06661abd",
					"forloop()": "bc68f960",
					"loop()": "a92100cb"
				}
			},
			"storageLayout": {
				"storage": [
					{
						"astId": 5,
						"contract": "loop.sol:Loop",
						"label": "arr",
						"offset": 0,
						"slot": "0",
						"type": "t_array(t_uint256)5_storage"
					},
					{
						"astId": 7,
						"contract": "loop.sol:Loop",
						"label": "count",
						"offset": 0,
						"slot": "5",
						"type": "t_uint256"
					}
				],
				"types": {
					"t_array(t_uint256)5_storage": {
						"base": "t_uint256",
						"encoding": "inplace",
						"label": "uint256[5]",
						"numberOfBytes": "160"
					},
					"t_uint256": {
						"encoding": "inplace",
						"label": "uint256",
						"numberOfBytes": "32"
					}
				}
			},
			"userdoc": {
				"kind": "user",
				"methods": {},
				"version": 1
			}
		}
	}
}