{
	"visibility_inheritance.sol": {
		"B": {
			"abi": [
				{
					"inputs": [],
					"name": "bx",
					"outputs": [
						{
							"internalType": "uint256",
							"name": "",
							"type": "uint256"
						}
					],
					"stateMutability": "view",
					"type": "function"
				},
				{
					"inputs": [],
					"name": "f1",
					"outputs": [
						{
							"internalType": "uint256",
							"name": "",
							"type": "uint256"
						}
					],
					"stateMutability": "pure",
					"type": "function"
				},
				{
					"inputs": [],
					"name": "f4",
					"outputs": [
						{
							"internalType": "uint256",
							"name": "",
							"type": "uint256"
						}
					],
					"stateMutability": "pure",
					"type": "function"
				}
			],
			"devdoc": {
				"kind": "dev",
				"methods": {},
				"version": 1
			},
			"evm": {
				"assembly": "    /* \"visibility_inheritance.sol\":400:446  contract B is A... */\n  mstore(0x40, 0x80)\n    /* \"visibility_inheritance.sol\":439:443  f3() */\n  tag_1\n    /* \"visibility_inheritance.sol\":439:441  f3 */\n  shl(0x20, tag_2)\n    /* \"visibility_inheritance.sol\":439:443  f3() */\n  0x20\n  shr\n  jump\t// in\ntag_1:\n    /* \"visibility_inheritance.sol\":423:443  uint public  bx=f3() */\n  0x00\n  sstore\n    /* \"visibility_inheritance.sol\":400:446  contract B is A... */\n  callvalue\n  dup1\n  iszero\n  tag_3\n  jumpi\n  0x00\n  dup1\n  revert\ntag_3:\n  pop\n  jump(tag_4)\n    /* \"visibility_inheritance.sol\":231:302  function  f3() internal   pure returns (uint) {... */\ntag_2:\n    /* \"visibility_inheritance.sol\":271:275  uint */\n  0x00\n    /* \"visibility_inheritance.sol\":294:295  3 */\n  0x03\n    /* \"visibility_inheritance.sol\":287:295  return 3 */\n  swap1\n  pop\n    /* \"visibility_inheritance.sol\":231:302  function  f3() internal   pure returns (uint) {... */\n  swap1\n  jump\t// out\n    /* \"visibility_inheritance.sol\":400:446  contract B is A... */\ntag_4:\n  dataSize(sub_0)\n  dup1\n  dataOffset(sub_0)\n  0x00\n  codecopy\n  0x00\n  return\nstop\n\nsub_0: assembly {\n        /* \"visibility_inheritance.sol\":400:446  contract B is A... */\n      mstore(0x40, 0x80)\n      callvalue\n      dup1\n      iszero\n      tag_1\n      jumpi\n      0x00\n      dup1\n      revert\n    tag_1:\n      pop\n      jumpi(tag_2, lt(calldatasize, 0x04))\n      shr(0xe0, calldataload(0x00))\n      dup1\n      0x90be565e\n      eq\n      tag_3\n      jumpi\n      dup1\n      0xc27fc305\n      eq\n      tag_4\n      jumpi\n      dup1\n      0xc3f90202\n      eq\n      tag_5\n      jumpi\n    tag_2:\n      0x00\n      dup1\n      revert\n        /* \"visibility_inheritance.sol\":423:443  uint public  bx=f3() */\n    tag_3:\n      tag_6\n      tag_7\n      jump\t// in\n    tag_6:\n      mload(0x40)\n      tag_8\n      swap2\n      swap1\n      tag_9\n      jump\t// in\n    tag_8:\n      mload(0x40)\n      dup1\n      swap2\n      sub\n      swap1\n      return\n        /* \"visibility_inheritance.sol\":75:143  function  f1() public  pure returns (uint) {... */\n    tag_4:\n      tag_10\n      tag_11\n      jump\t// in\n    tag_10:\n      mload(0x40)\n      tag_12\n      swap2\n      swap1\n      tag_9\n      jump\t// in\n    tag_12:\n      mload(0x40)\n      dup1\n      swap2\n      sub\n      swap1\n      return\n        /* \"visibility_inheritance.sol\":309:380  function  f4() external   pure returns (uint) {... */\n    tag_5:\n      tag_13\n      tag_14\n      jump\t// in\n    tag_13:\n      mload(0x40)\n      tag_15\n      swap2\n      swap1\n      tag_9\n      jump\t// in\n    tag_15:\n      mload(0x40)\n      dup1\n      swap2\n      sub\n      swap1\n      return\n        /* \"visibility_inheritance.sol\":423:443  uint public  bx=f3() */\n    tag_7:\n      sload(0x00)\n      dup2\n      jump\t// out\n        /* \"visibility_inheritance.sol\":75:143  function  f1() public  pure returns (uint) {... */\n    tag_11:\n        /* \"visibility_inheritance.sol\":112:116  uint */\n      0x00\n        /* \"visibility_inheritance.sol\":135:136  1 */\n      0x01\n        /* \"visibility_inheritance.sol\":128:136  return 1 */\n      swap1\n      pop\n        /* \"visibility_inheritance.sol\":75:143  function  f1() public  pure returns (uint) {... */\n      swap1\n      jump\t// out\n        /* \"visibility_inheritance.sol\":309:380  function  f4() external   pure returns (uint) {... */\n    tag_14:\n        /* \"visibility_inheritance.sol\":349:353  uint */\n      0x00\n        /* \"visibility_inheritance.sol\":372:373  4 */\n      0x04\n        /* \"visibility_inheritance.sol\":365:373  return 4 */\n      swap1\n      pop\n        /* \"visibility_inheritance.sol\":309:380  function  f4() external   pure returns (uint) {... */\n      swap1\n      jump\t// out\n        /* \"#utility.yul\":7:84   */\n    tag_18:\n        /* \"#utility.yul\":44:51   */\n      0x00\n        /* \"#utility.yul\":73:78   */\n      dup2\n        /* \"#utility.yul\":62:78   */\n      swap1\n      pop\n        /* \"#utility.yul\":7:84   */\n      swap2\n      swap1\n      pop\n      jump\t// out\n        /* \"#utility.yul\":90:208   */\n    tag_19:\n        /* \"#utility.yul\":177:201   */\n      tag_23\n        /* \"#utility.yul\":195:200   */\n      dup2\n        /* \"#utility.yul\":177:201   */\n      tag_18\n      jump\t// in\n    tag_23:\n        /* \"#utility.yul\":172:175   */\n      dup3\n        /* \"#utility.yul\":165:202   */\n      mstore\n        /* \"#utility.yul\":90:208   */\n      pop\n      pop\n      jump\t// out\n        /* \"#utility.yul\":214:436   */\n    tag_9:\n        /* \"#utility.yul\":307:311   */\n      0x00\n        /* \"#utility.yul\":345:347   */\n      0x20\n        /* \"#utility.yul\":334:343   */\n      dup3\n        /* \"#utility.yul\":330:348   */\n      add\n        /* \"#utility.yul\":322:348   */\n      swap1\n      pop\n        /* \"#utility.yul\":358:429   */\n      tag_25\n        /* \"#utility.yul\":426:427   */\n      0x00\n        /* \"#utility.yul\":415:424   */\n      dup4\n        /* \"#utility.yul\":411:428   */\n      add\n        /* \"#utility.yul\":402:408   */\n      dup5\n        /* \"#utility.yul\":358:429   */\n      tag_19\n      jump\t// in\n    tag_25:\n        /* \"#utility.yul\":214:436   */\n      swap3\n      swap2\n      pop\n      pop\n      jump\t// out\n\n    auxdata: 0xa264697066735822122019fe2ba4768227edb5c69c1d32b44ec78d3a0f9a67c27b39604cf9e80303890964736f6c63430008120033\n}\n",
				"bytecode": {
					"linkReferences": {},
					"object": "608060405261001261002760201b60201c565b60005534801561002157600080fd5b50610030565b60006003905090565b61010d8061003f6000396000f3fe6080604052348015600f57600080fd5b5060043610603c5760003560e01c806390be565e146041578063c27fc30514605b578063c3f90202146075575b600080fd5b6047608f565b6040516052919060be565b60405180910390f35b60616095565b604051606c919060be565b60405180910390f35b607b609e565b6040516086919060be565b60405180910390f35b60005481565b60006001905090565b60006004905090565b6000819050919050565b60b88160a7565b82525050565b600060208201905060d1600083018460b1565b9291505056fea264697066735822122019fe2ba4768227edb5c69c1d32b44ec78d3a0f9a67c27b39604cf9e80303890964736f6c63430008120033",
					"opcodes": "PUSH1 0x80 PUSH1 0x40 MSTORE PUSH2 0x12 PUSH2 0x27 PUSH1 0x20 SHL PUSH1 0x20 SHR JUMP JUMPDEST PUSH1 0x0 SSTORE CALLVALUE DUP1 ISZERO PUSH2 0x21 JUMPI PUSH1 0x0 DUP1 REVERT JUMPDEST POP PUSH2 0x30 JUMP JUMPDEST PUSH1 0x0 PUSH1 0x3 SWAP1 POP SWAP1 JUMP JUMPDEST PUSH2 0x10D DUP1 PUSH2 0x3F PUSH1 0x0 CODECOPY PUSH1 0x0 RETURN INVALID PUSH1 0x80 PUSH1 0x40 MSTORE CALLVALUE DUP1 ISZERO PUSH1 0xF JUMPI PUSH1 0x0 DUP1 REVERT JUMPDEST POP PUSH1 0x4 CALLDATASIZE LT PUSH1 0x3C JUMPI PUSH1 0x0 CALLDATALOAD PUSH1 0xE0 SHR DUP1 PUSH4 0x90BE565E EQ PUSH1 0x41 JUMPI DUP1 PUSH4 0xC27FC305 EQ PUSH1 0x5B JUMPI DUP1 PUSH4 0xC3F90202 EQ PUSH1 0x75 JUMPI JUMPDEST PUSH1 0x0 DUP1 REVERT JUMPDEST PUSH1 0x47 PUSH1 0x8F JUMP JUMPDEST PUSH1 0x40 MLOAD PUSH1 0x52 SWAP2 SWAP1 PUSH1 0xBE JUMP JUMPDEST PUSH1 0x40 MLOAD DUP1 SWAP2 SUB SWAP1 RETURN JUMPDEST PUSH1 0x61 PUSH1 0x95 JUMP JUMPDEST PUSH1 0x40 MLOAD PUSH1 0x6C SWAP2 SWAP1 PUSH1 0xBE JUMP JUMPDEST PUSH1 0x40 MLOAD DUP1 SWAP2 SUB SWAP1 RETURN JUMPDEST PUSH1 0x7B PUSH1 0x9E JUMP JUMPDEST PUSH1 0x40 MLOAD PUSH1 0x86 SWAP2 SWAP1 PUSH1 0xBE JUMP JUMPDEST PUSH1 0x40 MLOAD DUP1 SWAP2 SUB SWAP1 RETURN JUMPDEST PUSH1 0x0 SLOAD DUP2 JUMP JUMPDEST PUSH1 0x0 PUSH1 0x1 SWAP1 POP SWAP1 JUMP JUMPDEST PUSH1 0x0 PUSH1 0x4 SWAP1 POP SWAP1 JUMP JUMPDEST PUSH1 0x0 DUP2 SWAP1 POP SWAP2 SWAP1 POP JUMP JUMPDEST PUSH1 0xB8 DUP2 PUSH1 0xA7 JUMP JUMPDEST DUP3 MSTORE POP POP JUMP JUMPDEST PUSH1 0x0 PUSH1 0x20 DUP3 ADD SWAP1 POP PUSH1 0xD1 PUSH1 0x0 DUP4 ADD DUP5 PUSH1 0xB1 JUMP JUMPDEST SWAP3 SWAP2 POP POP JUMP INVALID LOG2 PUSH5 0x6970667358 0x22 SLT KECCAK256 NOT INVALID 0x2B LOG4 PUSH23 0x8227EDB5C69C1D32B44EC78D3A0F9A67C27B39604CF9E8 SUB SUB DUP10 MULMOD PUSH5 0x736F6C6343 STOP ADDMOD SLT STOP CALLER "
				},
				"gasEstimates": {
					"creation": {
						"codeDepositCost": "53800",
						"executionCost": "infinite",
						"totalCost": "infinite"
					},
					"external": {
						"bx()": "2407",
						"f1()": "337",
						"f4()": "359"
					}
				},
				"methodIdentifiers": {
					"bx()": "90be565e",
					"f1()": "c27fc305",
					"f4()": "c3f90202"
				}
			},
			"storageLayout": {
				"storage": [
					{
						"astId": 40,
						"contract": "visibility_inheritance.sol:B",
						"label": "bx",
						"offset": 0,
						"slot": "0",
						"type": "t_uint256"
					}
				],
				"types": {
					"t_uint256": {
						"encoding": "inplace",
						"label": "uint256",
						"numberOfBytes": "32"
					}
				}
			},
			"userdoc": {
				"kind": "user",
				"methods": {},
				"version": 1
			}
		}
	}
}