{
	"bytearrray.sol": {
		"btArray": {
			"abi": [
				{
					"inputs": [],
					"name": "b2",
					"outputs": [
						{
							"internalType": "bytes2",
							"name": "",
							"type": "bytes2"
						}
					],
					"stateMutability": "view",
					"type": "function"
				},
				{
					"inputs": [],
					"name": "b3",
					"outputs": [
						{
							"internalType": "bytes3",
							"name": "",
							"type": "bytes3"
						}
					],
					"stateMutability": "view",
					"type": "function"
				},
				{
					"inputs": [],
					"name": "db1",
					"outputs": [
						{
							"internalType": "bytes",
							"name": "",
							"type": "bytes"
						}
					],
					"stateMutability": "view",
					"type": "function"
				},
				{
					"inputs": [
						{
							"internalType": "uint256",
							"name": "i",
							"type": "uint256"
						}
					],
					"name": "getElem",
					"outputs": [
						{
							"internalType": "bytes1",
							"name": "",
							"type": "bytes1"
						}
					],
					"stateMutability": "view",
					"type": "function"
				},
				{
					"inputs": [],
					"name": "getLength",
					"outputs": [
						{
							"internalType": "uint256",
							"name": "",
							"type": "uint256"
						}
					],
					"stateMutability": "view",
					"type": "function"
				},
				{
					"inputs": [],
					"name": "pushElement",
					"outputs": [],
					"stateMutability": "nonpayable",
					"type": "function"
				},
				{
					"inputs": [],
					"name": "setter",
					"outputs": [],
					"stateMutability": "nonpayable",
					"type": "function"
				}
			],
			"devdoc": {
				"kind": "dev",
				"methods": {},
				"version": 1
			},
			"evm": {
				"assembly": "    /* \"bytearrray.sol\":58:508  contract btArray{... */\n  mstore(0x40, 0x80)\n    /* \"bytearrray.sol\":161:183  bytes public db1=\"pqr\" */\n  mload(0x40)\n  dup1\n  0x40\n  add\n  0x40\n  mstore\n  dup1\n  0x03\n  dup2\n  mstore\n  0x20\n  add\n  0x7071720000000000000000000000000000000000000000000000000000000000\n  dup2\n  mstore\n  pop\n  0x01\n  swap1\n  dup2\n  tag_1\n  swap2\n  swap1\n  tag_2\n  jump\t// in\ntag_1:\n  pop\n    /* \"bytearrray.sol\":58:508  contract btArray{... */\n  callvalue\n  dup1\n  iszero\n  tag_3\n  jumpi\n  0x00\n  dup1\n  revert\ntag_3:\n  pop\n  jump(tag_4)\n    /* \"#utility.yul\":7:106   */\ntag_5:\n    /* \"#utility.yul\":59:65   */\n  0x00\n    /* \"#utility.yul\":93:98   */\n  dup2\n    /* \"#utility.yul\":87:99   */\n  mload\n    /* \"#utility.yul\":77:99   */\n  swap1\n  pop\n    /* \"#utility.yul\":7:106   */\n  swap2\n  swap1\n  pop\n  jump\t// out\n    /* \"#utility.yul\":112:292   */\ntag_6:\n    /* \"#utility.yul\":160:237   */\n  0x4e487b7100000000000000000000000000000000000000000000000000000000\n    /* \"#utility.yul\":157:158   */\n  0x00\n    /* \"#utility.yul\":150:238   */\n  mstore\n    /* \"#utility.yul\":257:261   */\n  0x41\n    /* \"#utility.yul\":254:255   */\n  0x04\n    /* \"#utility.yul\":247:262   */\n  mstore\n    /* \"#utility.yul\":281:285   */\n  0x24\n    /* \"#utility.yul\":278:279   */\n  0x00\n    /* \"#utility.yul\":271:286   */\n  revert\n    /* \"#utility.yul\":298:478   */\ntag_7:\n    /* \"#utility.yul\":346:423   */\n  0x4e487b7100000000000000000000000000000000000000000000000000000000\n    /* \"#utility.yul\":343:344   */\n  0x00\n    /* \"#utility.yul\":336:424   */\n  mstore\n    /* \"#utility.yul\":443:447   */\n  0x22\n    /* \"#utility.yul\":440:441   */\n  0x04\n    /* \"#utility.yul\":433:448   */\n  mstore\n    /* \"#utility.yul\":467:471   */\n  0x24\n    /* \"#utility.yul\":464:465   */\n  0x00\n    /* \"#utility.yul\":457:472   */\n  revert\n    /* \"#utility.yul\":484:804   */\ntag_8:\n    /* \"#utility.yul\":528:534   */\n  0x00\n    /* \"#utility.yul\":565:566   */\n  0x02\n    /* \"#utility.yul\":559:563   */\n  dup3\n    /* \"#utility.yul\":555:567   */\n  div\n    /* \"#utility.yul\":545:567   */\n  swap1\n  pop\n    /* \"#utility.yul\":612:613   */\n  0x01\n    /* \"#utility.yul\":606:610   */\n  dup3\n    /* \"#utility.yul\":602:614   */\n  and\n    /* \"#utility.yul\":633:651   */\n  dup1\n    /* \"#utility.yul\":623:704   */\n  tag_30\n  jumpi\n    /* \"#utility.yul\":689:693   */\n  0x7f\n    /* \"#utility.yul\":681:687   */\n  dup3\n    /* \"#utility.yul\":677:694   */\n  and\n    /* \"#utility.yul\":667:694   */\n  swap2\n  pop\n    /* \"#utility.yul\":623:704   */\ntag_30:\n    /* \"#utility.yul\":751:753   */\n  0x20\n    /* \"#utility.yul\":743:749   */\n  dup3\n    /* \"#utility.yul\":740:754   */\n  lt\n    /* \"#utility.yul\":720:738   */\n  dup2\n    /* \"#utility.yul\":717:755   */\n  sub\n    /* \"#utility.yul\":714:798   */\n  tag_31\n  jumpi\n    /* \"#utility.yul\":770:788   */\n  tag_32\n  tag_7\n  jump\t// in\ntag_32:\n    /* \"#utility.yul\":714:798   */\ntag_31:\n    /* \"#utility.yul\":535:804   */\n  pop\n    /* \"#utility.yul\":484:804   */\n  swap2\n  swap1\n  pop\n  jump\t// out\n    /* \"#utility.yul\":810:950   */\ntag_9:\n    /* \"#utility.yul\":858:862   */\n  0x00\n    /* \"#utility.yul\":881:884   */\n  dup2\n    /* \"#utility.yul\":873:884   */\n  swap1\n  pop\n    /* \"#utility.yul\":904:907   */\n  dup2\n    /* \"#utility.yul\":901:902   */\n  0x00\n    /* \"#utility.yul\":894:908   */\n  mstore\n    /* \"#utility.yul\":938:942   */\n  0x20\n    /* \"#utility.yul\":935:936   */\n  0x00\n    /* \"#utility.yul\":925:943   */\n  keccak256\n    /* \"#utility.yul\":917:943   */\n  swap1\n  pop\n    /* \"#utility.yul\":810:950   */\n  swap2\n  swap1\n  pop\n  jump\t// out\n    /* \"#utility.yul\":956:1049   */\ntag_10:\n    /* \"#utility.yul\":993:999   */\n  0x00\n    /* \"#utility.yul\":1040:1042   */\n  0x20\n    /* \"#utility.yul\":1035:1037   */\n  0x1f\n    /* \"#utility.yul\":1028:1033   */\n  dup4\n    /* \"#utility.yul\":1024:1038   */\n  add\n    /* \"#utility.yul\":1020:1043   */\n  div\n    /* \"#utility.yul\":1010:1043   */\n  swap1\n  pop\n    /* \"#utility.yul\":956:1049   */\n  swap2\n  swap1\n  pop\n  jump\t// out\n    /* \"#utility.yul\":1055:1162   */\ntag_11:\n    /* \"#utility.yul\":1099:1107   */\n  0x00\n    /* \"#utility.yul\":1149:1154   */\n  dup3\n    /* \"#utility.yul\":1143:1147   */\n  dup3\n    /* \"#utility.yul\":1139:1155   */\n  shl\n    /* \"#utility.yul\":1118:1155   */\n  swap1\n  pop\n    /* \"#utility.yul\":1055:1162   */\n  swap3\n  swap2\n  pop\n  pop\n  jump\t// out\n    /* \"#utility.yul\":1168:1561   */\ntag_12:\n    /* \"#utility.yul\":1237:1243   */\n  0x00\n    /* \"#utility.yul\":1287:1288   */\n  0x08\n    /* \"#utility.yul\":1275:1285   */\n  dup4\n    /* \"#utility.yul\":1271:1289   */\n  mul\n    /* \"#utility.yul\":1310:1407   */\n  tag_37\n    /* \"#utility.yul\":1340:1406   */\n  0xffffffffffffffffffffffffffffffffffffffffffffffffffffffffffffffff\n    /* \"#utility.yul\":1329:1338   */\n  dup3\n    /* \"#utility.yul\":1310:1407   */\n  tag_11\n  jump\t// in\ntag_37:\n    /* \"#utility.yul\":1428:1467   */\n  tag_38\n    /* \"#utility.yul\":1458:1466   */\n  dup7\n    /* \"#utility.yul\":1447:1456   */\n  dup4\n    /* \"#utility.yul\":1428:1467   */\n  tag_11\n  jump\t// in\ntag_38:\n    /* \"#utility.yul\":1416:1467   */\n  swap6\n  pop\n    /* \"#utility.yul\":1500:1504   */\n  dup1\n    /* \"#utility.yul\":1496:1505   */\n  not\n    /* \"#utility.yul\":1489:1494   */\n  dup5\n    /* \"#utility.yul\":1485:1506   */\n  and\n    /* \"#utility.yul\":1476:1506   */\n  swap4\n  pop\n    /* \"#utility.yul\":1549:1553   */\n  dup1\n    /* \"#utility.yul\":1539:1547   */\n  dup7\n    /* \"#utility.yul\":1535:1554   */\n  and\n    /* \"#utility.yul\":1528:1533   */\n  dup5\n    /* \"#utility.yul\":1525:1555   */\n  or\n    /* \"#utility.yul\":1515:1555   */\n  swap3\n  pop\n    /* \"#utility.yul\":1244:1561   */\n  pop\n  pop\n    /* \"#utility.yul\":1168:1561   */\n  swap4\n  swap3\n  pop\n  pop\n  pop\n  jump\t// out\n    /* \"#utility.yul\":1567:1644   */\ntag_13:\n    /* \"#utility.yul\":1604:1611   */\n  0x00\n    /* \"#utility.yul\":1633:1638   */\n  dup2\n    /* \"#utility.yul\":1622:1638   */\n  swap1\n  pop\n    /* \"#utility.yul\":1567:1644   */\n  swap2\n  swap1\n  pop\n  jump\t// out\n    /* \"#utility.yul\":1650:1710   */\ntag_14:\n    /* \"#utility.yul\":1678:1681   */\n  0x00\n    /* \"#utility.yul\":1699:1704   */\n  dup2\n    /* \"#utility.yul\":1692:1704   */\n  swap1\n  pop\n    /* \"#utility.yul\":1650:1710   */\n  swap2\n  swap1\n  pop\n  jump\t// out\n    /* \"#utility.yul\":1716:1858   */\ntag_15:\n    /* \"#utility.yul\":1766:1775   */\n  0x00\n    /* \"#utility.yul\":1799:1852   */\n  tag_42\n    /* \"#utility.yul\":1817:1851   */\n  tag_43\n    /* \"#utility.yul\":1826:1850   */\n  tag_44\n    /* \"#utility.yul\":1844:1849   */\n  dup5\n    /* \"#utility.yul\":1826:1850   */\n  tag_13\n  jump\t// in\ntag_44:\n    /* \"#utility.yul\":1817:1851   */\n  tag_14\n  jump\t// in\ntag_43:\n    /* \"#utility.yul\":1799:1852   */\n  tag_13\n  jump\t// in\ntag_42:\n    /* \"#utility.yul\":1786:1852   */\n  swap1\n  pop\n    /* \"#utility.yul\":1716:1858   */\n  swap2\n  swap1\n  pop\n  jump\t// out\n    /* \"#utility.yul\":1864:1939   */\ntag_16:\n    /* \"#utility.yul\":1907:1910   */\n  0x00\n    /* \"#utility.yul\":1928:1933   */\n  dup2\n    /* \"#utility.yul\":1921:1933   */\n  swap1\n  pop\n    /* \"#utility.yul\":1864:1939   */\n  swap2\n  swap1\n  pop\n  jump\t// out\n    /* \"#utility.yul\":1945:2214   */\ntag_17:\n    /* \"#utility.yul\":2055:2094   */\n  tag_47\n    /* \"#utility.yul\":2086:2093   */\n  dup4\n    /* \"#utility.yul\":2055:2094   */\n  tag_15\n  jump\t// in\ntag_47:\n    /* \"#utility.yul\":2116:2207   */\n  tag_48\n    /* \"#utility.yul\":2165:2206   */\n  tag_49\n    /* \"#utility.yul\":2189:2205   */\n  dup3\n    /* \"#utility.yul\":2165:2206   */\n  tag_16\n  jump\t// in\ntag_49:\n    /* \"#utility.yul\":2157:2163   */\n  dup5\n    /* \"#utility.yul\":2150:2154   */\n  dup5\n    /* \"#utility.yul\":2144:2155   */\n  sload\n    /* \"#utility.yul\":2116:2207   */\n  tag_12\n  jump\t// in\ntag_48:\n    /* \"#utility.yul\":2110:2114   */\n  dup3\n    /* \"#utility.yul\":2103:2208   */\n  sstore\n    /* \"#utility.yul\":2021:2214   */\n  pop\n    /* \"#utility.yul\":1945:2214   */\n  pop\n  pop\n  pop\n  jump\t// out\n    /* \"#utility.yul\":2220:2293   */\ntag_18:\n    /* \"#utility.yul\":2265:2268   */\n  0x00\n    /* \"#utility.yul\":2220:2293   */\n  swap1\n  jump\t// out\n    /* \"#utility.yul\":2299:2488   */\ntag_19:\n    /* \"#utility.yul\":2376:2408   */\n  tag_52\n  tag_18\n  jump\t// in\ntag_52:\n    /* \"#utility.yul\":2417:2482   */\n  tag_53\n    /* \"#utility.yul\":2475:2481   */\n  dup2\n    /* \"#utility.yul\":2467:2473   */\n  dup5\n    /* \"#utility.yul\":2461:2465   */\n  dup5\n    /* \"#utility.yul\":2417:2482   */\n  tag_17\n  jump\t// in\ntag_53:\n    /* \"#utility.yul\":2352:2488   */\n  pop\n    /* \"#utility.yul\":2299:2488   */\n  pop\n  pop\n  jump\t// out\n    /* \"#utility.yul\":2494:2680   */\ntag_20:\n    /* \"#utility.yul\":2554:2674   */\ntag_55:\n    /* \"#utility.yul\":2571:2574   */\n  dup2\n    /* \"#utility.yul\":2564:2569   */\n  dup2\n    /* \"#utility.yul\":2561:2575   */\n  lt\n    /* \"#utility.yul\":2554:2674   */\n  iszero\n  tag_57\n  jumpi\n    /* \"#utility.yul\":2625:2664   */\n  tag_58\n    /* \"#utility.yul\":2662:2663   */\n  0x00\n    /* \"#utility.yul\":2655:2660   */\n  dup3\n    /* \"#utility.yul\":2625:2664   */\n  tag_19\n  jump\t// in\ntag_58:\n    /* \"#utility.yul\":2598:2599   */\n  0x01\n    /* \"#utility.yul\":2591:2596   */\n  dup2\n    /* \"#utility.yul\":2587:2600   */\n  add\n    /* \"#utility.yul\":2578:2600   */\n  swap1\n  pop\n    /* \"#utility.yul\":2554:2674   */\n  jump(tag_55)\ntag_57:\n    /* \"#utility.yul\":2494:2680   */\n  pop\n  pop\n  jump\t// out\n    /* \"#utility.yul\":2686:3227   */\ntag_21:\n    /* \"#utility.yul\":2786:2788   */\n  0x1f\n    /* \"#utility.yul\":2781:2784   */\n  dup3\n    /* \"#utility.yul\":2778:2789   */\n  gt\n    /* \"#utility.yul\":2775:3220   */\n  iszero\n  tag_60\n  jumpi\n    /* \"#utility.yul\":2820:2857   */\n  tag_61\n    /* \"#utility.yul\":2851:2856   */\n  dup2\n    /* \"#utility.yul\":2820:2857   */\n  tag_9\n  jump\t// in\ntag_61:\n    /* \"#utility.yul\":2903:2932   */\n  tag_62\n    /* \"#utility.yul\":2921:2931   */\n  dup5\n    /* \"#utility.yul\":2903:2932   */\n  tag_10\n  jump\t// in\ntag_62:\n    /* \"#utility.yul\":2893:2901   */\n  dup2\n    /* \"#utility.yul\":2889:2933   */\n  add\n    /* \"#utility.yul\":3086:3088   */\n  0x20\n    /* \"#utility.yul\":3074:3084   */\n  dup6\n    /* \"#utility.yul\":3071:3089   */\n  lt\n    /* \"#utility.yul\":3068:3117   */\n  iszero\n  tag_63\n  jumpi\n    /* \"#utility.yul\":3107:3115   */\n  dup2\n    /* \"#utility.yul\":3092:3115   */\n  swap1\n  pop\n    /* \"#utility.yul\":3068:3117   */\ntag_63:\n    /* \"#utility.yul\":3130:3210   */\n  tag_64\n    /* \"#utility.yul\":3186:3208   */\n  tag_65\n    /* \"#utility.yul\":3204:3207   */\n  dup6\n    /* \"#utility.yul\":3186:3208   */\n  tag_10\n  jump\t// in\ntag_65:\n    /* \"#utility.yul\":3176:3184   */\n  dup4\n    /* \"#utility.yul\":3172:3209   */\n  add\n    /* \"#utility.yul\":3159:3170   */\n  dup3\n    /* \"#utility.yul\":3130:3210   */\n  tag_20\n  jump\t// in\ntag_64:\n    /* \"#utility.yul\":2790:3220   */\n  pop\n  pop\n    /* \"#utility.yul\":2775:3220   */\ntag_60:\n    /* \"#utility.yul\":2686:3227   */\n  pop\n  pop\n  pop\n  jump\t// out\n    /* \"#utility.yul\":3233:3350   */\ntag_22:\n    /* \"#utility.yul\":3287:3295   */\n  0x00\n    /* \"#utility.yul\":3337:3342   */\n  dup3\n    /* \"#utility.yul\":3331:3335   */\n  dup3\n    /* \"#utility.yul\":3327:3343   */\n  shr\n    /* \"#utility.yul\":3306:3343   */\n  swap1\n  pop\n    /* \"#utility.yul\":3233:3350   */\n  swap3\n  swap2\n  pop\n  pop\n  jump\t// out\n    /* \"#utility.yul\":3356:3525   */\ntag_23:\n    /* \"#utility.yul\":3400:3406   */\n  0x00\n    /* \"#utility.yul\":3433:3484   */\n  tag_68\n    /* \"#utility.yul\":3481:3482   */\n  0x00\n    /* \"#utility.yul\":3477:3483   */\n  not\n    /* \"#utility.yul\":3469:3474   */\n  dup5\n    /* \"#utility.yul\":3466:3467   */\n  0x08\n    /* \"#utility.yul\":3462:3475   */\n  mul\n    /* \"#utility.yul\":3433:3484   */\n  tag_22\n  jump\t// in\ntag_68:\n    /* \"#utility.yul\":3429:3485   */\n  not\n    /* \"#utility.yul\":3514:3518   */\n  dup1\n    /* \"#utility.yul\":3508:3512   */\n  dup4\n    /* \"#utility.yul\":3504:3519   */\n  and\n    /* \"#utility.yul\":3494:3519   */\n  swap2\n  pop\n    /* \"#utility.yul\":3407:3525   */\n  pop\n    /* \"#utility.yul\":3356:3525   */\n  swap3\n  swap2\n  pop\n  pop\n  jump\t// out\n    /* \"#utility.yul\":3530:3825   */\ntag_24:\n    /* \"#utility.yul\":3606:3610   */\n  0x00\n    /* \"#utility.yul\":3752:3781   */\n  tag_70\n    /* \"#utility.yul\":3777:3780   */\n  dup4\n    /* \"#utility.yul\":3771:3775   */\n  dup4\n    /* \"#utility.yul\":3752:3781   */\n  tag_23\n  jump\t// in\ntag_70:\n    /* \"#utility.yul\":3744:3781   */\n  swap2\n  pop\n    /* \"#utility.yul\":3814:3817   */\n  dup3\n    /* \"#utility.yul\":3811:3812   */\n  0x02\n    /* \"#utility.yul\":3807:3818   */\n  mul\n    /* \"#utility.yul\":3801:3805   */\n  dup3\n    /* \"#utility.yul\":3798:3819   */\n  or\n    /* \"#utility.yul\":3790:3819   */\n  swap1\n  pop\n    /* \"#utility.yul\":3530:3825   */\n  swap3\n  swap2\n  pop\n  pop\n  jump\t// out\n    /* \"#utility.yul\":3830:5222   */\ntag_2:\n    /* \"#utility.yul\":3946:3983   */\n  tag_72\n    /* \"#utility.yul\":3979:3982   */\n  dup3\n    /* \"#utility.yul\":3946:3983   */\n  tag_5\n  jump\t// in\ntag_72:\n    /* \"#utility.yul\":4048:4066   */\n  0xffffffffffffffff\n    /* \"#utility.yul\":4040:4046   */\n  dup2\n    /* \"#utility.yul\":4037:4067   */\n  gt\n    /* \"#utility.yul\":4034:4090   */\n  iszero\n  tag_73\n  jumpi\n    /* \"#utility.yul\":4070:4088   */\n  tag_74\n  tag_6\n  jump\t// in\ntag_74:\n    /* \"#utility.yul\":4034:4090   */\ntag_73:\n    /* \"#utility.yul\":4114:4152   */\n  tag_75\n    /* \"#utility.yul\":4146:4150   */\n  dup3\n    /* \"#utility.yul\":4140:4151   */\n  sload\n    /* \"#utility.yul\":4114:4152   */\n  tag_8\n  jump\t// in\ntag_75:\n    /* \"#utility.yul\":4199:4265   */\n  tag_76\n    /* \"#utility.yul\":4258:4264   */\n  dup3\n    /* \"#utility.yul\":4250:4256   */\n  dup3\n    /* \"#utility.yul\":4244:4248   */\n  dup6\n    /* \"#utility.yul\":4199:4265   */\n  tag_21\n  jump\t// in\ntag_76:\n    /* \"#utility.yul\":4292:4293   */\n  0x00\n    /* \"#utility.yul\":4316:4320   */\n  0x20\n    /* \"#utility.yul\":4303:4320   */\n  swap1\n  pop\n    /* \"#utility.yul\":4348:4350   */\n  0x1f\n    /* \"#utility.yul\":4340:4346   */\n  dup4\n    /* \"#utility.yul\":4337:4351   */\n  gt\n    /* \"#utility.yul\":4365:4366   */\n  0x01\n    /* \"#utility.yul\":4360:4977   */\n  dup2\n  eq\n  tag_78\n  jumpi\n    /* \"#utility.yul\":5021:5022   */\n  0x00\n    /* \"#utility.yul\":5038:5044   */\n  dup5\n    /* \"#utility.yul\":5035:5112   */\n  iszero\n  tag_79\n  jumpi\n    /* \"#utility.yul\":5087:5096   */\n  dup3\n    /* \"#utility.yul\":5082:5085   */\n  dup8\n    /* \"#utility.yul\":5078:5097   */\n  add\n    /* \"#utility.yul\":5072:5098   */\n  mload\n    /* \"#utility.yul\":5063:5098   */\n  swap1\n  pop\n    /* \"#utility.yul\":5035:5112   */\ntag_79:\n    /* \"#utility.yul\":5138:5205   */\n  tag_80\n    /* \"#utility.yul\":5198:5204   */\n  dup6\n    /* \"#utility.yul\":5191:5196   */\n  dup3\n    /* \"#utility.yul\":5138:5205   */\n  tag_24\n  jump\t// in\ntag_80:\n    /* \"#utility.yul\":5132:5136   */\n  dup7\n    /* \"#utility.yul\":5125:5206   */\n  sstore\n    /* \"#utility.yul\":4994:5216   */\n  pop\n    /* \"#utility.yul\":4330:5216   */\n  jump(tag_77)\n    /* \"#utility.yul\":4360:4977   */\ntag_78:\n    /* \"#utility.yul\":4412:4416   */\n  0x1f\n    /* \"#utility.yul\":4408:4417   */\n  not\n    /* \"#utility.yul\":4400:4406   */\n  dup5\n    /* \"#utility.yul\":4396:4418   */\n  and\n    /* \"#utility.yul\":4446:4482   */\n  tag_81\n    /* \"#utility.yul\":4477:4481   */\n  dup7\n    /* \"#utility.yul\":4446:4482   */\n  tag_9\n  jump\t// in\ntag_81:\n    /* \"#utility.yul\":4504:4505   */\n  0x00\n    /* \"#utility.yul\":4518:4726   */\ntag_82:\n    /* \"#utility.yul\":4532:4539   */\n  dup3\n    /* \"#utility.yul\":4529:4530   */\n  dup2\n    /* \"#utility.yul\":4526:4540   */\n  lt\n    /* \"#utility.yul\":4518:4726   */\n  iszero\n  tag_84\n  jumpi\n    /* \"#utility.yul\":4611:4620   */\n  dup5\n    /* \"#utility.yul\":4606:4609   */\n  dup10\n    /* \"#utility.yul\":4602:4621   */\n  add\n    /* \"#utility.yul\":4596:4622   */\n  mload\n    /* \"#utility.yul\":4588:4594   */\n  dup3\n    /* \"#utility.yul\":4581:4623   */\n  sstore\n    /* \"#utility.yul\":4662:4663   */\n  0x01\n    /* \"#utility.yul\":4654:4660   */\n  dup3\n    /* \"#utility.yul\":4650:4664   */\n  add\n    /* \"#utility.yul\":4640:4664   */\n  swap2\n  pop\n    /* \"#utility.yul\":4709:4711   */\n  0x20\n    /* \"#utility.yul\":4698:4707   */\n  dup6\n    /* \"#utility.yul\":4694:4712   */\n  add\n    /* \"#utility.yul\":4681:4712   */\n  swap5\n  pop\n    /* \"#utility.yul\":4555:4559   */\n  0x20\n    /* \"#utility.yul\":4552:4553   */\n  dup2\n    /* \"#utility.yul\":4548:4560   */\n  add\n    /* \"#utility.yul\":4543:4560   */\n  swap1\n  pop\n    /* \"#utility.yul\":4518:4726   */\n  jump(tag_82)\ntag_84:\n    /* \"#utility.yul\":4754:4760   */\n  dup7\n    /* \"#utility.yul\":4745:4752   */\n  dup4\n    /* \"#utility.yul\":4742:4761   */\n  lt\n    /* \"#utility.yul\":4739:4918   */\n  iszero\n  tag_85\n  jumpi\n    /* \"#utility.yul\":4812:4821   */\n  dup5\n    /* \"#utility.yul\":4807:4810   */\n  dup10\n    /* \"#utility.yul\":4803:4822   */\n  add\n    /* \"#utility.yul\":4797:4823   */\n  mload\n    /* \"#utility.yul\":4855:4903   */\n  tag_86\n    /* \"#utility.yul\":4897:4901   */\n  0x1f\n    /* \"#utility.yul\":4889:4895   */\n  dup10\n    /* \"#utility.yul\":4885:4902   */\n  and\n    /* \"#utility.yul\":4874:4883   */\n  dup3\n    /* \"#utility.yul\":4855:4903   */\n  tag_23\n  jump\t// in\ntag_86:\n    /* \"#utility.yul\":4847:4853   */\n  dup4\n    /* \"#utility.yul\":4840:4904   */\n  sstore\n    /* \"#utility.yul\":4762:4918   */\n  pop\n    /* \"#utility.yul\":4739:4918   */\ntag_85:\n    /* \"#utility.yul\":4964:4965   */\n  0x01\n    /* \"#utility.yul\":4960:4961   */\n  0x02\n    /* \"#utility.yul\":4952:4958   */\n  dup9\n    /* \"#utility.yul\":4948:4962   */\n  mul\n    /* \"#utility.yul\":4944:4966   */\n  add\n    /* \"#utility.yul\":4938:4942   */\n  dup9\n    /* \"#utility.yul\":4931:4967   */\n  sstore\n    /* \"#utility.yul\":4367:4977   */\n  pop\n  pop\n  pop\n    /* \"#utility.yul\":4330:5216   */\ntag_77:\n  pop\n    /* \"#utility.yul\":3921:5222   */\n  pop\n  pop\n  pop\n    /* \"#utility.yul\":3830:5222   */\n  pop\n  pop\n  jump\t// out\n    /* \"bytearrray.sol\":58:508  contract btArray{... */\ntag_4:\n  dataSize(sub_0)\n  dup1\n  dataOffset(sub_0)\n  0x00\n  codecopy\n  0x00\n  return\nstop\n\nsub_0: assembly {\n        /* \"bytearrray.sol\":58:508  contract btArray{... */\n      mstore(0x40, 0x80)\n      callvalue\n      dup1\n      iszero\n      tag_1\n      jumpi\n      0x00\n      dup1\n      revert\n    tag_1:\n      pop\n      jumpi(tag_2, lt(calldatasize, 0x04))\n      shr(0xe0, calldataload(0x00))\n      dup1\n      0x166d68dc\n      gt\n      tag_10\n      jumpi\n      dup1\n      0x166d68dc\n      eq\n      tag_6\n      jumpi\n      dup1\n      0x3f3108f7\n      eq\n      tag_7\n      jumpi\n      dup1\n      0xbe1c766b\n      eq\n      tag_8\n      jumpi\n      dup1\n      0xe9b61909\n      eq\n      tag_9\n      jumpi\n      jump(tag_2)\n    tag_10:\n      dup1\n      0x0317d5f3\n      eq\n      tag_3\n      jumpi\n      dup1\n      0x0add6ef2\n      eq\n      tag_4\n      jumpi\n      dup1\n      0x104f4014\n      eq\n      tag_5\n      jumpi\n    tag_2:\n      0x00\n      dup1\n      revert\n        /* \"bytearrray.sol\":264:325  function  pushElement() public {... */\n    tag_3:\n      tag_11\n      tag_12\n      jump\t// in\n    tag_11:\n      stop\n        /* \"bytearrray.sol\":131:148  bytes2 public  b2 */\n    tag_4:\n      tag_13\n      tag_14\n      jump\t// in\n    tag_13:\n      mload(0x40)\n      tag_15\n      swap2\n      swap1\n      tag_16\n      jump\t// in\n    tag_15:\n      mload(0x40)\n      dup1\n      swap2\n      sub\n      swap1\n      return\n        /* \"bytearrray.sol\":161:183  bytes public db1=\"pqr\" */\n    tag_5:\n      tag_17\n      tag_18\n      jump\t// in\n    tag_17:\n      mload(0x40)\n      tag_19\n      swap2\n      swap1\n      tag_20\n      jump\t// in\n    tag_19:\n      mload(0x40)\n      dup1\n      swap2\n      sub\n      swap1\n      return\n        /* \"bytearrray.sol\":331:417  function  getElem(uint i) public view returns (bytes1) {... */\n    tag_6:\n      tag_21\n      0x04\n      dup1\n      calldatasize\n      sub\n      dup2\n      add\n      swap1\n      tag_22\n      swap2\n      swap1\n      tag_23\n      jump\t// in\n    tag_22:\n      tag_24\n      jump\t// in\n    tag_21:\n      mload(0x40)\n      tag_25\n      swap2\n      swap1\n      tag_26\n      jump\t// in\n    tag_25:\n      mload(0x40)\n      dup1\n      swap2\n      sub\n      swap1\n      return\n        /* \"bytearrray.sol\":190:258  function  setter() public {... */\n    tag_7:\n      tag_27\n      tag_28\n      jump\t// in\n    tag_27:\n      stop\n        /* \"bytearrray.sol\":423:505  function getLength() public  view returns (uint){... */\n    tag_8:\n      tag_29\n      tag_30\n      jump\t// in\n    tag_29:\n      mload(0x40)\n      tag_31\n      swap2\n      swap1\n      tag_32\n      jump\t// in\n    tag_31:\n      mload(0x40)\n      dup1\n      swap2\n      sub\n      swap1\n      return\n        /* \"bytearrray.sol\":94:111  bytes3 public  b3 */\n    tag_9:\n      tag_33\n      tag_34\n      jump\t// in\n    tag_33:\n      mload(0x40)\n      tag_35\n      swap2\n      swap1\n      tag_36\n      jump\t// in\n    tag_35:\n      mload(0x40)\n      dup1\n      swap2\n      sub\n      swap1\n      return\n        /* \"bytearrray.sol\":264:325  function  pushElement() public {... */\n    tag_12:\n        /* \"bytearrray.sol\":305:308  db1 */\n      0x01\n        /* \"bytearrray.sol\":305:318  db1.push(\"s\") */\n      dup1\n      dup1\n      sload\n      dup1\n      tag_38\n      swap1\n      tag_39\n      jump\t// in\n    tag_38:\n      dup1\n      0x1f\n      dup2\n      sub\n      tag_40\n      jumpi\n      dup4\n      0x00\n      mstore\n      keccak256(0x00, 0x20)\n      not(0xff)\n      dup5\n      and\n      dup2\n      sstore\n      0x3f\n      swap4\n      pop\n      pop\n    tag_40:\n      pop\n      0x02\n      dup3\n      add\n      dup4\n      sstore\n      0x01\n      dup2\n      add\n      swap3\n      pop\n      pop\n      pop\n      0x01\n      swap1\n      sub\n      dup2\n      sload\n      0x01\n      and\n      iszero\n      tag_42\n      jumpi\n      swap1\n      0x00\n      mstore\n      keccak256(0x00, 0x20)\n      swap1\n      0x20\n      swap2\n      dup3\n      dup3\n      div\n      add\n      swap2\n      swap1\n      mod\n    tag_42:\n      0x7300000000000000000000000000000000000000000000000000000000000000\n      swap1\n      swap2\n      swap1\n      swap2\n      0x1f\n      sub\n      0x0100\n      exp\n      dup2\n      sload\n      dup2\n      0xff\n      mul\n      not\n      and\n      swap1\n      0x0100000000000000000000000000000000000000000000000000000000000000\n      dup5\n      div\n      mul\n      or\n      swap1\n      sstore\n      pop\n        /* \"bytearrray.sol\":264:325  function  pushElement() public {... */\n      jump\t// out\n        /* \"bytearrray.sol\":131:148  bytes2 public  b2 */\n    tag_14:\n      0x00\n      0x03\n      swap1\n      sload\n      swap1\n      0x0100\n      exp\n      swap1\n      div\n      0xf0\n      shl\n      dup2\n      jump\t// out\n        /* \"bytearrray.sol\":161:183  bytes public db1=\"pqr\" */\n    tag_18:\n      0x01\n      dup1\n      sload\n      tag_43\n      swap1\n      tag_39\n      jump\t// in\n    tag_43:\n      dup1\n      0x1f\n      add\n      0x20\n      dup1\n      swap2\n      div\n      mul\n      0x20\n      add\n      mload(0x40)\n      swap1\n      dup2\n      add\n      0x40\n      mstore\n      dup1\n      swap3\n      swap2\n      swap1\n      dup2\n      dup2\n      mstore\n      0x20\n      add\n      dup3\n      dup1\n      sload\n      tag_44\n      swap1\n      tag_39\n      jump\t// in\n    tag_44:\n      dup1\n      iszero\n      tag_45\n      jumpi\n      dup1\n      0x1f\n      lt\n      tag_46\n      jumpi\n      0x0100\n      dup1\n      dup4\n      sload\n      div\n      mul\n      dup4\n      mstore\n      swap2\n      0x20\n      add\n      swap2\n      jump(tag_45)\n    tag_46:\n      dup3\n      add\n      swap2\n      swap1\n      0x00\n      mstore\n      keccak256(0x00, 0x20)\n      swap1\n    tag_47:\n      dup2\n      sload\n      dup2\n      mstore\n      swap1\n      0x01\n      add\n      swap1\n      0x20\n      add\n      dup1\n      dup4\n      gt\n      tag_47\n      jumpi\n      dup3\n      swap1\n      sub\n      0x1f\n      and\n      dup3\n      add\n      swap2\n    tag_45:\n      pop\n      pop\n      pop\n      pop\n      pop\n      dup2\n      jump\t// out\n        /* \"bytearrray.sol\":331:417  function  getElem(uint i) public view returns (bytes1) {... */\n    tag_24:\n        /* \"bytearrray.sol\":378:384  bytes1 */\n      0x00\n        /* \"bytearrray.sol\":404:407  db1 */\n      0x01\n        /* \"bytearrray.sol\":408:409  i */\n      dup3\n        /* \"bytearrray.sol\":404:410  db1[i] */\n      dup2\n      sload\n      tag_49\n      swap1\n      tag_39\n      jump\t// in\n    tag_49:\n      dup2\n      lt\n      tag_50\n      jumpi\n      tag_51\n      tag_52\n      jump\t// in\n    tag_51:\n    tag_50:\n      dup2\n      sload\n      0x01\n      and\n      iszero\n      tag_53\n      jumpi\n      swap1\n      0x00\n      mstore\n      keccak256(0x00, 0x20)\n      swap1\n      0x20\n      swap2\n      dup3\n      dup3\n      div\n      add\n      swap2\n      swap1\n      mod\n    tag_53:\n      swap1\n      sload\n      swap1\n      byte\n      0x0100000000000000000000000000000000000000000000000000000000000000\n      mul\n        /* \"bytearrray.sol\":396:410  return  db1[i] */\n      swap1\n      pop\n        /* \"bytearrray.sol\":331:417  function  getElem(uint i) public view returns (bytes1) {... */\n      swap2\n      swap1\n      pop\n      jump\t// out\n        /* \"bytearrray.sol\":190:258  function  setter() public {... */\n    tag_28:\n        /* \"bytearrray.sol\":226:234  b3=\"abc\" */\n      0x6162630000000000000000000000000000000000000000000000000000000000\n        /* \"bytearrray.sol\":226:228  b3 */\n      0x00\n      dup1\n        /* \"bytearrray.sol\":226:234  b3=\"abc\" */\n      0x0100\n      exp\n      dup2\n      sload\n      dup2\n      0xffffff\n      mul\n      not\n      and\n      swap1\n      dup4\n      0xe8\n      shr\n      mul\n      or\n      swap1\n      sstore\n      pop\n        /* \"bytearrray.sol\":244:250  b2=\"x\" */\n      0x7800000000000000000000000000000000000000000000000000000000000000\n        /* \"bytearrray.sol\":244:246  b2 */\n      0x00\n      0x03\n        /* \"bytearrray.sol\":244:250  b2=\"x\" */\n      0x0100\n      exp\n      dup2\n      sload\n      dup2\n      0xffff\n      mul\n      not\n      and\n      swap1\n      dup4\n      0xf0\n      shr\n      mul\n      or\n      swap1\n      sstore\n      pop\n        /* \"bytearrray.sol\":190:258  function  setter() public {... */\n      jump\t// out\n        /* \"bytearrray.sol\":423:505  function getLength() public  view returns (uint){... */\n    tag_30:\n        /* \"bytearrray.sol\":466:470  uint */\n      0x00\n        /* \"bytearrray.sol\":488:491  db1 */\n      0x01\n        /* \"bytearrray.sol\":488:498  db1.length */\n      dup1\n      sload\n      tag_56\n      swap1\n      tag_39\n      jump\t// in\n    tag_56:\n      swap1\n      pop\n        /* \"bytearrray.sol\":481:498  return db1.length */\n      swap1\n      pop\n        /* \"bytearrray.sol\":423:505  function getLength() public  view returns (uint){... */\n      swap1\n      jump\t// out\n        /* \"bytearrray.sol\":94:111  bytes3 public  b3 */\n    tag_34:\n      0x00\n      dup1\n      sload\n      swap1\n      0x0100\n      exp\n      swap1\n      div\n      0xe8\n      shl\n      dup2\n      jump\t// out\n        /* \"#utility.yul\":7:156   */\n    tag_57:\n        /* \"#utility.yul\":43:50   */\n      0x00\n        /* \"#utility.yul\":83:149   */\n      0xffff000000000000000000000000000000000000000000000000000000000000\n        /* \"#utility.yul\":76:81   */\n      dup3\n        /* \"#utility.yul\":72:150   */\n      and\n        /* \"#utility.yul\":61:150   */\n      swap1\n      pop\n        /* \"#utility.yul\":7:156   */\n      swap2\n      swap1\n      pop\n      jump\t// out\n        /* \"#utility.yul\":162:277   */\n    tag_58:\n        /* \"#utility.yul\":247:270   */\n      tag_79\n        /* \"#utility.yul\":264:269   */\n      dup2\n        /* \"#utility.yul\":247:270   */\n      tag_57\n      jump\t// in\n    tag_79:\n        /* \"#utility.yul\":242:245   */\n      dup3\n        /* \"#utility.yul\":235:271   */\n      mstore\n        /* \"#utility.yul\":162:277   */\n      pop\n      pop\n      jump\t// out\n        /* \"#utility.yul\":283:501   */\n    tag_16:\n        /* \"#utility.yul\":374:378   */\n      0x00\n        /* \"#utility.yul\":412:414   */\n      0x20\n        /* \"#utility.yul\":401:410   */\n      dup3\n        /* \"#utility.yul\":397:415   */\n      add\n        /* \"#utility.yul\":389:415   */\n      swap1\n      pop\n        /* \"#utility.yul\":425:494   */\n      tag_81\n        /* \"#utility.yul\":491:492   */\n      0x00\n        /* \"#utility.yul\":480:489   */\n      dup4\n        /* \"#utility.yul\":476:493   */\n      add\n        /* \"#utility.yul\":467:473   */\n      dup5\n        /* \"#utility.yul\":425:494   */\n      tag_58\n      jump\t// in\n    tag_81:\n        /* \"#utility.yul\":283:501   */\n      swap3\n      swap2\n      pop\n      pop\n      jump\t// out\n        /* \"#utility.yul\":507:605   */\n    tag_59:\n        /* \"#utility.yul\":558:564   */\n      0x00\n        /* \"#utility.yul\":592:597   */\n      dup2\n        /* \"#utility.yul\":586:598   */\n      mload\n        /* \"#utility.yul\":576:598   */\n      swap1\n      pop\n        /* \"#utility.yul\":507:605   */\n      swap2\n      swap1\n      pop\n      jump\t// out\n        /* \"#utility.yul\":611:779   */\n    tag_60:\n        /* \"#utility.yul\":694:705   */\n      0x00\n        /* \"#utility.yul\":728:734   */\n      dup3\n        /* \"#utility.yul\":723:726   */\n      dup3\n        /* \"#utility.yul\":716:735   */\n      mstore\n        /* \"#utility.yul\":768:772   */\n      0x20\n        /* \"#utility.yul\":763:766   */\n      dup3\n        /* \"#utility.yul\":759:773   */\n      add\n        /* \"#utility.yul\":744:773   */\n      swap1\n      pop\n        /* \"#utility.yul\":611:779   */\n      swap3\n      swap2\n      pop\n      pop\n      jump\t// out\n        /* \"#utility.yul\":785:1031   */\n    tag_61:\n        /* \"#utility.yul\":866:867   */\n      0x00\n        /* \"#utility.yul\":876:989   */\n    tag_85:\n        /* \"#utility.yul\":890:896   */\n      dup4\n        /* \"#utility.yul\":887:888   */\n      dup2\n        /* \"#utility.yul\":884:897   */\n      lt\n        /* \"#utility.yul\":876:989   */\n      iszero\n      tag_87\n      jumpi\n        /* \"#utility.yul\":975:976   */\n      dup1\n        /* \"#utility.yul\":970:973   */\n      dup3\n        /* \"#utility.yul\":966:977   */\n      add\n        /* \"#utility.yul\":960:978   */\n      mload\n        /* \"#utility.yul\":956:957   */\n      dup2\n        /* \"#utility.yul\":951:954   */\n      dup5\n        /* \"#utility.yul\":947:958   */\n      add\n        /* \"#utility.yul\":940:979   */\n      mstore\n        /* \"#utility.yul\":912:914   */\n      0x20\n        /* \"#utility.yul\":909:910   */\n      dup2\n        /* \"#utility.yul\":905:915   */\n      add\n        /* \"#utility.yul\":900:915   */\n      swap1\n      pop\n        /* \"#utility.yul\":876:989   */\n      jump(tag_85)\n    tag_87:\n        /* \"#utility.yul\":1023:1024   */\n      0x00\n        /* \"#utility.yul\":1014:1020   */\n      dup5\n        /* \"#utility.yul\":1009:1012   */\n      dup5\n        /* \"#utility.yul\":1005:1021   */\n      add\n        /* \"#utility.yul\":998:1025   */\n      mstore\n        /* \"#utility.yul\":847:1031   */\n      pop\n        /* \"#utility.yul\":785:1031   */\n      pop\n      pop\n      pop\n      jump\t// out\n        /* \"#utility.yul\":1037:1139   */\n    tag_62:\n        /* \"#utility.yul\":1078:1084   */\n      0x00\n        /* \"#utility.yul\":1129:1131   */\n      0x1f\n        /* \"#utility.yul\":1125:1132   */\n      not\n        /* \"#utility.yul\":1120:1122   */\n      0x1f\n        /* \"#utility.yul\":1113:1118   */\n      dup4\n        /* \"#utility.yul\":1109:1123   */\n      add\n        /* \"#utility.yul\":1105:1133   */\n      and\n        /* \"#utility.yul\":1095:1133   */\n      swap1\n      pop\n        /* \"#utility.yul\":1037:1139   */\n      swap2\n      swap1\n      pop\n      jump\t// out\n        /* \"#utility.yul\":1145:1518   */\n    tag_63:\n        /* \"#utility.yul\":1231:1234   */\n      0x00\n        /* \"#utility.yul\":1259:1297   */\n      tag_90\n        /* \"#utility.yul\":1291:1296   */\n      dup3\n        /* \"#utility.yul\":1259:1297   */\n      tag_59\n      jump\t// in\n    tag_90:\n        /* \"#utility.yul\":1313:1383   */\n      tag_91\n        /* \"#utility.yul\":1376:1382   */\n      dup2\n        /* \"#utility.yul\":1371:1374   */\n      dup6\n        /* \"#utility.yul\":1313:1383   */\n      tag_60\n      jump\t// in\n    tag_91:\n        /* \"#utility.yul\":1306:1383   */\n      swap4\n      pop\n        /* \"#utility.yul\":1392:1457   */\n      tag_92\n        /* \"#utility.yul\":1450:1456   */\n      dup2\n        /* \"#utility.yul\":1445:1448   */\n      dup6\n        /* \"#utility.yul\":1438:1442   */\n      0x20\n        /* \"#utility.yul\":1431:1436   */\n      dup7\n        /* \"#utility.yul\":1427:1443   */\n      add\n        /* \"#utility.yul\":1392:1457   */\n      tag_61\n      jump\t// in\n    tag_92:\n        /* \"#utility.yul\":1482:1511   */\n      tag_93\n        /* \"#utility.yul\":1504:1510   */\n      dup2\n        /* \"#utility.yul\":1482:1511   */\n      tag_62\n      jump\t// in\n    tag_93:\n        /* \"#utility.yul\":1477:1480   */\n      dup5\n        /* \"#utility.yul\":1473:1512   */\n      add\n        /* \"#utility.yul\":1466:1512   */\n      swap2\n      pop\n        /* \"#utility.yul\":1235:1518   */\n      pop\n        /* \"#utility.yul\":1145:1518   */\n      swap3\n      swap2\n      pop\n      pop\n      jump\t// out\n        /* \"#utility.yul\":1524:1833   */\n    tag_20:\n        /* \"#utility.yul\":1635:1639   */\n      0x00\n        /* \"#utility.yul\":1673:1675   */\n      0x20\n        /* \"#utility.yul\":1662:1671   */\n      dup3\n        /* \"#utility.yul\":1658:1676   */\n      add\n        /* \"#utility.yul\":1650:1676   */\n      swap1\n      pop\n        /* \"#utility.yul\":1722:1731   */\n      dup2\n        /* \"#utility.yul\":1716:1720   */\n      dup2\n        /* \"#utility.yul\":1712:1732   */\n      sub\n        /* \"#utility.yul\":1708:1709   */\n      0x00\n        /* \"#utility.yul\":1697:1706   */\n      dup4\n        /* \"#utility.yul\":1693:1710   */\n      add\n        /* \"#utility.yul\":1686:1733   */\n      mstore\n        /* \"#utility.yul\":1750:1826   */\n      tag_95\n        /* \"#utility.yul\":1821:1825   */\n      dup2\n        /* \"#utility.yul\":1812:1818   */\n      dup5\n        /* \"#utility.yul\":1750:1826   */\n      tag_63\n      jump\t// in\n    tag_95:\n        /* \"#utility.yul\":1742:1826   */\n      swap1\n      pop\n        /* \"#utility.yul\":1524:1833   */\n      swap3\n      swap2\n      pop\n      pop\n      jump\t// out\n        /* \"#utility.yul\":1920:2037   */\n    tag_65:\n        /* \"#utility.yul\":2029:2030   */\n      0x00\n        /* \"#utility.yul\":2026:2027   */\n      dup1\n        /* \"#utility.yul\":2019:2031   */\n      revert\n        /* \"#utility.yul\":2166:2243   */\n    tag_67:\n        /* \"#utility.yul\":2203:2210   */\n      0x00\n        /* \"#utility.yul\":2232:2237   */\n      dup2\n        /* \"#utility.yul\":2221:2237   */\n      swap1\n      pop\n        /* \"#utility.yul\":2166:2243   */\n      swap2\n      swap1\n      pop\n      jump\t// out\n        /* \"#utility.yul\":2249:2371   */\n    tag_68:\n        /* \"#utility.yul\":2322:2346   */\n      tag_101\n        /* \"#utility.yul\":2340:2345   */\n      dup2\n        /* \"#utility.yul\":2322:2346   */\n      tag_67\n      jump\t// in\n    tag_101:\n        /* \"#utility.yul\":2315:2320   */\n      dup2\n        /* \"#utility.yul\":2312:2347   */\n      eq\n        /* \"#utility.yul\":2302:2365   */\n      tag_102\n      jumpi\n        /* \"#utility.yul\":2361:2362   */\n      0x00\n        /* \"#utility.yul\":2358:2359   */\n      dup1\n        /* \"#utility.yul\":2351:2363   */\n      revert\n        /* \"#utility.yul\":2302:2365   */\n    tag_102:\n        /* \"#utility.yul\":2249:2371   */\n      pop\n      jump\t// out\n        /* \"#utility.yul\":2377:2516   */\n    tag_69:\n        /* \"#utility.yul\":2423:2428   */\n      0x00\n        /* \"#utility.yul\":2461:2467   */\n      dup2\n        /* \"#utility.yul\":2448:2468   */\n      calldataload\n        /* \"#utility.yul\":2439:2468   */\n      swap1\n      pop\n        /* \"#utility.yul\":2477:2510   */\n      tag_104\n        /* \"#utility.yul\":2504:2509   */\n      dup2\n        /* \"#utility.yul\":2477:2510   */\n      tag_68\n      jump\t// in\n    tag_104:\n        /* \"#utility.yul\":2377:2516   */\n      swap3\n      swap2\n      pop\n      pop\n      jump\t// out\n        /* \"#utility.yul\":2522:2851   */\n    tag_23:\n        /* \"#utility.yul\":2581:2587   */\n      0x00\n        /* \"#utility.yul\":2630:2632   */\n      0x20\n        /* \"#utility.yul\":2618:2627   */\n      dup3\n        /* \"#utility.yul\":2609:2616   */\n      dup5\n        /* \"#utility.yul\":2605:2628   */\n      sub\n        /* \"#utility.yul\":2601:2633   */\n      slt\n        /* \"#utility.yul\":2598:2717   */\n      iszero\n      tag_106\n      jumpi\n        /* \"#utility.yul\":2636:2715   */\n      tag_107\n      tag_65\n      jump\t// in\n    tag_107:\n        /* \"#utility.yul\":2598:2717   */\n    tag_106:\n        /* \"#utility.yul\":2756:2757   */\n      0x00\n        /* \"#utility.yul\":2781:2834   */\n      tag_108\n        /* \"#utility.yul\":2826:2833   */\n      dup5\n        /* \"#utility.yul\":2817:2823   */\n      dup3\n        /* \"#utility.yul\":2806:2815   */\n      dup6\n        /* \"#utility.yul\":2802:2824   */\n      add\n        /* \"#utility.yul\":2781:2834   */\n      tag_69\n      jump\t// in\n    tag_108:\n        /* \"#utility.yul\":2771:2834   */\n      swap2\n      pop\n        /* \"#utility.yul\":2727:2844   */\n      pop\n        /* \"#utility.yul\":2522:2851   */\n      swap3\n      swap2\n      pop\n      pop\n      jump\t// out\n        /* \"#utility.yul\":2857:3006   */\n    tag_70:\n        /* \"#utility.yul\":2893:2900   */\n      0x00\n        /* \"#utility.yul\":2933:2999   */\n      0xff00000000000000000000000000000000000000000000000000000000000000\n        /* \"#utility.yul\":2926:2931   */\n      dup3\n        /* \"#utility.yul\":2922:3000   */\n      and\n        /* \"#utility.yul\":2911:3000   */\n      swap1\n      pop\n        /* \"#utility.yul\":2857:3006   */\n      swap2\n      swap1\n      pop\n      jump\t// out\n        /* \"#utility.yul\":3012:3127   */\n    tag_71:\n        /* \"#utility.yul\":3097:3120   */\n      tag_111\n        /* \"#utility.yul\":3114:3119   */\n      dup2\n        /* \"#utility.yul\":3097:3120   */\n      tag_70\n      jump\t// in\n    tag_111:\n        /* \"#utility.yul\":3092:3095   */\n      dup3\n        /* \"#utility.yul\":3085:3121   */\n      mstore\n        /* \"#utility.yul\":3012:3127   */\n      pop\n      pop\n      jump\t// out\n        /* \"#utility.yul\":3133:3351   */\n    tag_26:\n        /* \"#utility.yul\":3224:3228   */\n      0x00\n        /* \"#utility.yul\":3262:3264   */\n      0x20\n        /* \"#utility.yul\":3251:3260   */\n      dup3\n        /* \"#utility.yul\":3247:3265   */\n      add\n        /* \"#utility.yul\":3239:3265   */\n      swap1\n      pop\n        /* \"#utility.yul\":3275:3344   */\n      tag_113\n        /* \"#utility.yul\":3341:3342   */\n      0x00\n        /* \"#utility.yul\":3330:3339   */\n      dup4\n        /* \"#utility.yul\":3326:3343   */\n      add\n        /* \"#utility.yul\":3317:3323   */\n      dup5\n        /* \"#utility.yul\":3275:3344   */\n      tag_71\n      jump\t// in\n    tag_113:\n        /* \"#utility.yul\":3133:3351   */\n      swap3\n      swap2\n      pop\n      pop\n      jump\t// out\n        /* \"#utility.yul\":3357:3475   */\n    tag_72:\n        /* \"#utility.yul\":3444:3468   */\n      tag_115\n        /* \"#utility.yul\":3462:3467   */\n      dup2\n        /* \"#utility.yul\":3444:3468   */\n      tag_67\n      jump\t// in\n    tag_115:\n        /* \"#utility.yul\":3439:3442   */\n      dup3\n        /* \"#utility.yul\":3432:3469   */\n      mstore\n        /* \"#utility.yul\":3357:3475   */\n      pop\n      pop\n      jump\t// out\n        /* \"#utility.yul\":3481:3703   */\n    tag_32:\n        /* \"#utility.yul\":3574:3578   */\n      0x00\n        /* \"#utility.yul\":3612:3614   */\n      0x20\n        /* \"#utility.yul\":3601:3610   */\n      dup3\n        /* \"#utility.yul\":3597:3615   */\n      add\n        /* \"#utility.yul\":3589:3615   */\n      swap1\n      pop\n        /* \"#utility.yul\":3625:3696   */\n      tag_117\n        /* \"#utility.yul\":3693:3694   */\n      0x00\n        /* \"#utility.yul\":3682:3691   */\n      dup4\n        /* \"#utility.yul\":3678:3695   */\n      add\n        /* \"#utility.yul\":3669:3675   */\n      dup5\n        /* \"#utility.yul\":3625:3696   */\n      tag_72\n      jump\t// in\n    tag_117:\n        /* \"#utility.yul\":3481:3703   */\n      swap3\n      swap2\n      pop\n      pop\n      jump\t// out\n        /* \"#utility.yul\":3709:3858   */\n    tag_73:\n        /* \"#utility.yul\":3745:3752   */\n      0x00\n        /* \"#utility.yul\":3785:3851   */\n      0xffffff0000000000000000000000000000000000000000000000000000000000\n        /* \"#utility.yul\":3778:3783   */\n      dup3\n        /* \"#utility.yul\":3774:3852   */\n      and\n        /* \"#utility.yul\":3763:3852   */\n      swap1\n      pop\n        /* \"#utility.yul\":3709:3858   */\n      swap2\n      swap1\n      pop\n      jump\t// out\n        /* \"#utility.yul\":3864:3979   */\n    tag_74:\n        /* \"#utility.yul\":3949:3972   */\n      tag_120\n        /* \"#utility.yul\":3966:3971   */\n      dup2\n        /* \"#utility.yul\":3949:3972   */\n      tag_73\n      jump\t// in\n    tag_120:\n        /* \"#utility.yul\":3944:3947   */\n      dup3\n        /* \"#utility.yul\":3937:3973   */\n      mstore\n        /* \"#utility.yul\":3864:3979   */\n      pop\n      pop\n      jump\t// out\n        /* \"#utility.yul\":3985:4203   */\n    tag_36:\n        /* \"#utility.yul\":4076:4080   */\n      0x00\n        /* \"#utility.yul\":4114:4116   */\n      0x20\n        /* \"#utility.yul\":4103:4112   */\n      dup3\n        /* \"#utility.yul\":4099:4117   */\n      add\n        /* \"#utility.yul\":4091:4117   */\n      swap1\n      pop\n        /* \"#utility.yul\":4127:4196   */\n      tag_122\n        /* \"#utility.yul\":4193:4194   */\n      0x00\n        /* \"#utility.yul\":4182:4191   */\n      dup4\n        /* \"#utility.yul\":4178:4195   */\n      add\n        /* \"#utility.yul\":4169:4175   */\n      dup5\n        /* \"#utility.yul\":4127:4196   */\n      tag_74\n      jump\t// in\n    tag_122:\n        /* \"#utility.yul\":3985:4203   */\n      swap3\n      swap2\n      pop\n      pop\n      jump\t// out\n        /* \"#utility.yul\":4209:4389   */\n    tag_75:\n        /* \"#utility.yul\":4257:4334   */\n      0x4e487b7100000000000000000000000000000000000000000000000000000000\n        /* \"#utility.yul\":4254:4255   */\n      0x00\n        /* \"#utility.yul\":4247:4335   */\n      mstore\n        /* \"#utility.yul\":4354:4358   */\n      0x22\n        /* \"#utility.yul\":4351:4352   */\n      0x04\n        /* \"#utility.yul\":4344:4359   */\n      mstore\n        /* \"#utility.yul\":4378:4382   */\n      0x24\n        /* \"#utility.yul\":4375:4376   */\n      0x00\n        /* \"#utility.yul\":4368:4383   */\n      revert\n        /* \"#utility.yul\":4395:4715   */\n    tag_39:\n        /* \"#utility.yul\":4439:4445   */\n      0x00\n        /* \"#utility.yul\":4476:4477   */\n      0x02\n        /* \"#utility.yul\":4470:4474   */\n      dup3\n        /* \"#utility.yul\":4466:4478   */\n      div\n        /* \"#utility.yul\":4456:4478   */\n      swap1\n      pop\n        /* \"#utility.yul\":4523:4524   */\n      0x01\n        /* \"#utility.yul\":4517:4521   */\n      dup3\n        /* \"#utility.yul\":4513:4525   */\n      and\n        /* \"#utility.yul\":4544:4562   */\n      dup1\n        /* \"#utility.yul\":4534:4615   */\n      tag_125\n      jumpi\n        /* \"#utility.yul\":4600:4604   */\n      0x7f\n        /* \"#utility.yul\":4592:4598   */\n      dup3\n        /* \"#utility.yul\":4588:4605   */\n      and\n        /* \"#utility.yul\":4578:4605   */\n      swap2\n      pop\n        /* \"#utility.yul\":4534:4615   */\n    tag_125:\n        /* \"#utility.yul\":4662:4664   */\n      0x20\n        /* \"#utility.yul\":4654:4660   */\n      dup3\n        /* \"#utility.yul\":4651:4665   */\n      lt\n        /* \"#utility.yul\":4631:4649   */\n      dup2\n        /* \"#utility.yul\":4628:4666   */\n      sub\n        /* \"#utility.yul\":4625:4709   */\n      tag_126\n      jumpi\n        /* \"#utility.yul\":4681:4699   */\n      tag_127\n      tag_75\n      jump\t// in\n    tag_127:\n        /* \"#utility.yul\":4625:4709   */\n    tag_126:\n        /* \"#utility.yul\":4446:4715   */\n      pop\n        /* \"#utility.yul\":4395:4715   */\n      swap2\n      swap1\n      pop\n      jump\t// out\n        /* \"#utility.yul\":4721:4901   */\n    tag_52:\n        /* \"#utility.yul\":4769:4846   */\n      0x4e487b7100000000000000000000000000000000000000000000000000000000\n        /* \"#utility.yul\":4766:4767   */\n      0x00\n        /* \"#utility.yul\":4759:4847   */\n      mstore\n        /* \"#utility.yul\":4866:4870   */\n      0x32\n        /* \"#utility.yul\":4863:4864   */\n      0x04\n        /* \"#utility.yul\":4856:4871   */\n      mstore\n        /* \"#utility.yul\":4890:4894   */\n      0x24\n        /* \"#utility.yul\":4887:4888   */\n      0x00\n        /* \"#utility.yul\":4880:4895   */\n      revert\n\n    auxdata: 0xa2646970667358221220ec9a29b4c2439482fd8db14ee40247e4d1146dfae44226cfd40bc94bc290015d64736f6c63430008120033\n}\n",
				"bytecode": {
					"linkReferences": {},
					"object": "60806040526040518060400160405280600381526020017f7071720000000000000000000000000000000000000000000000000000000000815250600190816200004a9190620002d9565b503480156200005857600080fd5b50620003c0565b600081519050919050565b7f4e487b7100000000000000000000000000000000000000000000000000000000600052604160045260246000fd5b7f4e487b7100000000000000000000000000000000000000000000000000000000600052602260045260246000fd5b60006002820490506001821680620000e157607f821691505b602082108103620000f757620000f662000099565b5b50919050565b60008190508160005260206000209050919050565b60006020601f8301049050919050565b600082821b905092915050565b600060088302620001617fffffffffffffffffffffffffffffffffffffffffffffffffffffffffffffffff8262000122565b6200016d868362000122565b95508019841693508086168417925050509392505050565b6000819050919050565b6000819050919050565b6000620001ba620001b4620001ae8462000185565b6200018f565b62000185565b9050919050565b6000819050919050565b620001d68362000199565b620001ee620001e582620001c1565b8484546200012f565b825550505050565b600090565b62000205620001f6565b62000212818484620001cb565b505050565b5b818110156200023a576200022e600082620001fb565b60018101905062000218565b5050565b601f82111562000289576200025381620000fd565b6200025e8462000112565b810160208510156200026e578190505b620002866200027d8562000112565b83018262000217565b50505b505050565b600082821c905092915050565b6000620002ae600019846008026200028e565b1980831691505092915050565b6000620002c983836200029b565b9150826002028217905092915050565b620002e4826200005f565b67ffffffffffffffff8111156200030057620002ff6200006a565b5b6200030c8254620000c8565b620003198282856200023e565b600060209050601f8311600181146200035157600084156200033c578287015190505b620003488582620002bb565b865550620003b8565b601f1984166200036186620000fd565b60005b828110156200038b5784890151825560018201915060208501945060208101905062000364565b86831015620003ab5784890151620003a7601f8916826200029b565b8355505b6001600288020188555050505b505050505050565b6106b580620003d06000396000f3fe608060405234801561001057600080fd5b506004361061007d5760003560e01c8063166d68dc1161005b578063166d68dc146100c85780633f3108f7146100f8578063be1c766b14610102578063e9b61909146101205761007d565b80630317d5f3146100825780630add6ef21461008c578063104f4014146100aa575b600080fd5b61008a61013e565b005b6100946101fd565b6040516100a191906103e5565b60405180910390f35b6100b2610210565b6040516100bf9190610490565b60405180910390f35b6100e260048036038101906100dd91906104ed565b61029e565b6040516100ef9190610555565b60405180910390f35b610100610309565b005b61010a610383565b604051610117919061057f565b60405180910390f35b610128610399565b60405161013591906105d5565b60405180910390f35b60018080548061014d9061061f565b80601f810361016c5783600052602060002060ff1984168155603f9350505b5060028201835560018101925050506001900381546001161561019e5790600052602060002090602091828204019190065b7f730000000000000000000000000000000000000000000000000000000000000090919091601f036101000a81548160ff021916907f010000000000000000000000000000000000000000000000000000000000000084040217905550565b600060039054906101000a900460f01b81565b6001805461021d9061061f565b80601f01602080910402602001604051908101604052809291908181526020018280546102499061061f565b80156102965780601f1061026b57610100808354040283529160200191610296565b820191906000526020600020905b81548152906001019060200180831161027957829003601f168201915b505050505081565b600060018281546102ae9061061f565b81106102bd576102bc610650565b5b8154600116156102dc5790600052602060002090602091828204019190065b9054901a7f0100000000000000000000000000000000000000000000000000000000000000029050919050565b7f61626300000000000000000000000000000000000000000000000000000000006000806101000a81548162ffffff021916908360e81c02179055507f7800000000000000000000000000000000000000000000000000000000000000600060036101000a81548161ffff021916908360f01c0217905550565b6000600180546103929061061f565b9050905090565b60008054906101000a900460e81b81565b60007fffff00000000000000000000000000000000000000000000000000000000000082169050919050565b6103df816103aa565b82525050565b60006020820190506103fa60008301846103d6565b92915050565b600081519050919050565b600082825260208201905092915050565b60005b8381101561043a57808201518184015260208101905061041f565b60008484015250505050565b6000601f19601f8301169050919050565b600061046282610400565b61046c818561040b565b935061047c81856020860161041c565b61048581610446565b840191505092915050565b600060208201905081810360008301526104aa8184610457565b905092915050565b600080fd5b6000819050919050565b6104ca816104b7565b81146104d557600080fd5b50565b6000813590506104e7816104c1565b92915050565b600060208284031215610503576105026104b2565b5b6000610511848285016104d8565b91505092915050565b60007fff0000000000000000000000000000000000000000000000000000000000000082169050919050565b61054f8161051a565b82525050565b600060208201905061056a6000830184610546565b92915050565b610579816104b7565b82525050565b60006020820190506105946000830184610570565b92915050565b60007fffffff000000000000000000000000000000000000000000000000000000000082169050919050565b6105cf8161059a565b82525050565b60006020820190506105ea60008301846105c6565b92915050565b7f4e487b7100000000000000000000000000000000000000000000000000000000600052602260045260246000fd5b6000600282049050600182168061063757607f821691505b60208210810361064a576106496105f0565b5b50919050565b7f4e487b7100000000000000000000000000000000000000000000000000000000600052603260045260246000fdfea2646970667358221220ec9a29b4c2439482fd8db14ee40247e4d1146dfae44226cfd40bc94bc290015d64736f6c63430008120033",
					"opcodes": "PUSH1 0x80 PUSH1 0x40 MSTORE PUSH1 0x40 MLOAD DUP1 PUSH1 0x40 ADD PUSH1 0x40 MSTORE DUP1 PUSH1 0x3 DUP2 MSTORE PUSH1 0x20 ADD PUSH32 0x7071720000000000000000000000000000000000000000000000000000000000 DUP2 MSTORE POP PUSH1 0x1 SWAP1 DUP2 PUSH3 0x4A SWAP2 SWAP1 PUSH3 0x2D9 JUMP JUMPDEST POP CALLVALUE DUP1 ISZERO PUSH3 0x58 JUMPI PUSH1 0x0 DUP1 REVERT JUMPDEST POP PUSH3 0x3C0 JUMP JUMPDEST PUSH1 0x0 DUP2 MLOAD SWAP1 POP SWAP2 SWAP1 POP JUMP JUMPDEST PUSH32 0x4E487B7100000000000000000000000000000000000000000000000000000000 PUSH1 0x0 MSTORE PUSH1 0x41 PUSH1 0x4 MSTORE PUSH1 0x24 PUSH1 0x0 REVERT JUMPDEST PUSH32 0x4E487B7100000000000000000000000000000000000000000000000000000000 PUSH1 0x0 MSTORE PUSH1 0x22 PUSH1 0x4 MSTORE PUSH1 0x24 PUSH1 0x0 REVERT JUMPDEST PUSH1 0x0 PUSH1 0x2 DUP3 DIV SWAP1 POP PUSH1 0x1 DUP3 AND DUP1 PUSH3 0xE1 JUMPI PUSH1 0x7F DUP3 AND SWAP2 POP JUMPDEST PUSH1 0x20 DUP3 LT DUP2 SUB PUSH3 0xF7 JUMPI PUSH3 0xF6 PUSH3 0x99 JUMP JUMPDEST JUMPDEST POP SWAP2 SWAP1 POP JUMP JUMPDEST PUSH1 0x0 DUP2 SWAP1 POP DUP2 PUSH1 0x0 MSTORE PUSH1 0x20 PUSH1 0x0 KECCAK256 SWAP1 POP SWAP2 SWAP1 POP JUMP JUMPDEST PUSH1 0x0 PUSH1 0x20 PUSH1 0x1F DUP4 ADD DIV SWAP1 POP SWAP2 SWAP1 POP JUMP JUMPDEST PUSH1 0x0 DUP3 DUP3 SHL SWAP1 POP SWAP3 SWAP2 POP POP JUMP JUMPDEST PUSH1 0x0 PUSH1 0x8 DUP4 MUL PUSH3 0x161 PUSH32 0xFFFFFFFFFFFFFFFFFFFFFFFFFFFFFFFFFFFFFFFFFFFFFFFFFFFFFFFFFFFFFFFF DUP3 PUSH3 0x122 JUMP JUMPDEST PUSH3 0x16D DUP7 DUP4 PUSH3 0x122 JUMP JUMPDEST SWAP6 POP DUP1 NOT DUP5 AND SWAP4 POP DUP1 DUP7 AND DUP5 OR SWAP3 POP POP POP SWAP4 SWAP3 POP POP POP JUMP JUMPDEST PUSH1 0x0 DUP2 SWAP1 POP SWAP2 SWAP1 POP JUMP JUMPDEST PUSH1 0x0 DUP2 SWAP1 POP SWAP2 SWAP1 POP JUMP JUMPDEST PUSH1 0x0 PUSH3 0x1BA PUSH3 0x1B4 PUSH3 0x1AE DUP5 PUSH3 0x185 JUMP JUMPDEST PUSH3 0x18F JUMP JUMPDEST PUSH3 0x185 JUMP JUMPDEST SWAP1 POP SWAP2 SWAP1 POP JUMP JUMPDEST PUSH1 0x0 DUP2 SWAP1 POP SWAP2 SWAP1 POP JUMP JUMPDEST PUSH3 0x1D6 DUP4 PUSH3 0x199 JUMP JUMPDEST PUSH3 0x1EE PUSH3 0x1E5 DUP3 PUSH3 0x1C1 JUMP JUMPDEST DUP5 DUP5 SLOAD PUSH3 0x12F JUMP JUMPDEST DUP3 SSTORE POP POP POP POP JUMP JUMPDEST PUSH1 0x0 SWAP1 JUMP JUMPDEST PUSH3 0x205 PUSH3 0x1F6 JUMP JUMPDEST PUSH3 0x212 DUP2 DUP5 DUP5 PUSH3 0x1CB JUMP JUMPDEST POP POP POP JUMP JUMPDEST JUMPDEST DUP2 DUP2 LT ISZERO PUSH3 0x23A JUMPI PUSH3 0x22E PUSH1 0x0 DUP3 PUSH3 0x1FB JUMP JUMPDEST PUSH1 0x1 DUP2 ADD SWAP1 POP PUSH3 0x218 JUMP JUMPDEST POP POP JUMP JUMPDEST PUSH1 0x1F DUP3 GT ISZERO PUSH3 0x289 JUMPI PUSH3 0x253 DUP2 PUSH3 0xFD JUMP JUMPDEST PUSH3 0x25E DUP5 PUSH3 0x112 JUMP JUMPDEST DUP2 ADD PUSH1 0x20 DUP6 LT ISZERO PUSH3 0x26E JUMPI DUP2 SWAP1 POP JUMPDEST PUSH3 0x286 PUSH3 0x27D DUP6 PUSH3 0x112 JUMP JUMPDEST DUP4 ADD DUP3 PUSH3 0x217 JUMP JUMPDEST POP POP JUMPDEST POP POP POP JUMP JUMPDEST PUSH1 0x0 DUP3 DUP3 SHR SWAP1 POP SWAP3 SWAP2 POP POP JUMP JUMPDEST PUSH1 0x0 PUSH3 0x2AE PUSH1 0x0 NOT DUP5 PUSH1 0x8 MUL PUSH3 0x28E JUMP JUMPDEST NOT DUP1 DUP4 AND SWAP2 POP POP SWAP3 SWAP2 POP POP JUMP JUMPDEST PUSH1 0x0 PUSH3 0x2C9 DUP4 DUP4 PUSH3 0x29B JUMP JUMPDEST SWAP2 POP DUP3 PUSH1 0x2 MUL DUP3 OR SWAP1 POP SWAP3 SWAP2 POP POP JUMP JUMPDEST PUSH3 0x2E4 DUP3 PUSH3 0x5F JUMP JUMPDEST PUSH8 0xFFFFFFFFFFFFFFFF DUP2 GT ISZERO PUSH3 0x300 JUMPI PUSH3 0x2FF PUSH3 0x6A JUMP JUMPDEST JUMPDEST PUSH3 0x30C DUP3 SLOAD PUSH3 0xC8 JUMP JUMPDEST PUSH3 0x319 DUP3 DUP3 DUP6 PUSH3 0x23E JUMP JUMPDEST PUSH1 0x0 PUSH1 0x20 SWAP1 POP PUSH1 0x1F DUP4 GT PUSH1 0x1 DUP2 EQ PUSH3 0x351 JUMPI PUSH1 0x0 DUP5 ISZERO PUSH3 0x33C JUMPI DUP3 DUP8 ADD MLOAD SWAP1 POP JUMPDEST PUSH3 0x348 DUP6 DUP3 PUSH3 0x2BB JUMP JUMPDEST DUP7 SSTORE POP PUSH3 0x3B8 JUMP JUMPDEST PUSH1 0x1F NOT DUP5 AND PUSH3 0x361 DUP7 PUSH3 0xFD JUMP JUMPDEST PUSH1 0x0 JUMPDEST DUP3 DUP2 LT ISZERO PUSH3 0x38B JUMPI DUP5 DUP10 ADD MLOAD DUP3 SSTORE PUSH1 0x1 DUP3 ADD SWAP2 POP PUSH1 0x20 DUP6 ADD SWAP5 POP PUSH1 0x20 DUP2 ADD SWAP1 POP PUSH3 0x364 JUMP JUMPDEST DUP7 DUP4 LT ISZERO PUSH3 0x3AB JUMPI DUP5 DUP10 ADD MLOAD PUSH3 0x3A7 PUSH1 0x1F DUP10 AND DUP3 PUSH3 0x29B JUMP JUMPDEST DUP4 SSTORE POP JUMPDEST PUSH1 0x1 PUSH1 0x2 DUP9 MUL ADD DUP9 SSTORE POP POP POP JUMPDEST POP POP POP POP POP POP JUMP JUMPDEST PUSH2 0x6B5 DUP1 PUSH3 0x3D0 PUSH1 0x0 CODECOPY PUSH1 0x0 RETURN INVALID PUSH1 0x80 PUSH1 0x40 MSTORE CALLVALUE DUP1 ISZERO PUSH2 0x10 JUMPI PUSH1 0x0 DUP1 REVERT JUMPDEST POP PUSH1 0x4 CALLDATASIZE LT PUSH2 0x7D JUMPI PUSH1 0x0 CALLDATALOAD PUSH1 0xE0 SHR DUP1 PUSH4 0x166D68DC GT PUSH2 0x5B JUMPI DUP1 PUSH4 0x166D68DC EQ PUSH2 0xC8 JUMPI DUP1 PUSH4 0x3F3108F7 EQ PUSH2 0xF8 JUMPI DUP1 PUSH4 0xBE1C766B EQ PUSH2 0x102 JUMPI DUP1 PUSH4 0xE9B61909 EQ PUSH2 0x120 JUMPI PUSH2 0x7D JUMP JUMPDEST DUP1 PUSH4 0x317D5F3 EQ PUSH2 0x82 JUMPI DUP1 PUSH4 0xADD6EF2 EQ PUSH2 0x8C JUMPI DUP1 PUSH4 0x104F4014 EQ PUSH2 0xAA JUMPI JUMPDEST PUSH1 0x0 DUP1 REVERT JUMPDEST PUSH2 0x8A PUSH2 0x13E JUMP JUMPDEST STOP JUMPDEST PUSH2 0x94 PUSH2 0x1FD JUMP JUMPDEST PUSH1 0x40 MLOAD PUSH2 0xA1 SWAP2 SWAP1 PUSH2 0x3E5 JUMP JUMPDEST PUSH1 0x40 MLOAD DUP1 SWAP2 SUB SWAP1 RETURN JUMPDEST PUSH2 0xB2 PUSH2 0x210 JUMP JUMPDEST PUSH1 0x40 MLOAD PUSH2 0xBF SWAP2 SWAP1 PUSH2 0x490 JUMP JUMPDEST PUSH1 0x40 MLOAD DUP1 SWAP2 SUB SWAP1 RETURN JUMPDEST PUSH2 0xE2 PUSH1 0x4 DUP1 CALLDATASIZE SUB DUP2 ADD SWAP1 PUSH2 0xDD SWAP2 SWAP1 PUSH2 0x4ED JUMP JUMPDEST PUSH2 0x29E JUMP JUMPDEST PUSH1 0x40 MLOAD PUSH2 0xEF SWAP2 SWAP1 PUSH2 0x555 JUMP JUMPDEST PUSH1 0x40 MLOAD DUP1 SWAP2 SUB SWAP1 RETURN JUMPDEST PUSH2 0x100 PUSH2 0x309 JUMP JUMPDEST STOP JUMPDEST PUSH2 0x10A PUSH2 0x383 JUMP JUMPDEST PUSH1 0x40 MLOAD PUSH2 0x117 SWAP2 SWAP1 PUSH2 0x57F JUMP JUMPDEST PUSH1 0x40 MLOAD DUP1 SWAP2 SUB SWAP1 RETURN JUMPDEST PUSH2 0x128 PUSH2 0x399 JUMP JUMPDEST PUSH1 0x40 MLOAD PUSH2 0x135 SWAP2 SWAP1 PUSH2 0x5D5 JUMP JUMPDEST PUSH1 0x40 MLOAD DUP1 SWAP2 SUB SWAP1 RETURN JUMPDEST PUSH1 0x1 DUP1 DUP1 SLOAD DUP1 PUSH2 0x14D SWAP1 PUSH2 0x61F JUMP JUMPDEST DUP1 PUSH1 0x1F DUP2 SUB PUSH2 0x16C JUMPI DUP4 PUSH1 0x0 MSTORE PUSH1 0x20 PUSH1 0x0 KECCAK256 PUSH1 0xFF NOT DUP5 AND DUP2 SSTORE PUSH1 0x3F SWAP4 POP POP JUMPDEST POP PUSH1 0x2 DUP3 ADD DUP4 SSTORE PUSH1 0x1 DUP2 ADD SWAP3 POP POP POP PUSH1 0x1 SWAP1 SUB DUP2 SLOAD PUSH1 0x1 AND ISZERO PUSH2 0x19E JUMPI SWAP1 PUSH1 0x0 MSTORE PUSH1 0x20 PUSH1 0x0 KECCAK256 SWAP1 PUSH1 0x20 SWAP2 DUP3 DUP3 DIV ADD SWAP2 SWAP1 MOD JUMPDEST PUSH32 0x7300000000000000000000000000000000000000000000000000000000000000 SWAP1 SWAP2 SWAP1 SWAP2 PUSH1 0x1F SUB PUSH2 0x100 EXP DUP2 SLOAD DUP2 PUSH1 0xFF MUL NOT AND SWAP1 PUSH32 0x100000000000000000000000000000000000000000000000000000000000000 DUP5 DIV MUL OR SWAP1 SSTORE POP JUMP JUMPDEST PUSH1 0x0 PUSH1 0x3 SWAP1 SLOAD SWAP1 PUSH2 0x100 EXP SWAP1 DIV PUSH1 0xF0 SHL DUP2 JUMP JUMPDEST PUSH1 0x1 DUP1 SLOAD PUSH2 0x21D SWAP1 PUSH2 0x61F JUMP JUMPDEST DUP1 PUSH1 0x1F ADD PUSH1 0x20 DUP1 SWAP2 DIV MUL PUSH1 0x20 ADD PUSH1 0x40 MLOAD SWAP1 DUP2 ADD PUSH1 0x40 MSTORE DUP1 SWAP3 SWAP2 SWAP1 DUP2 DUP2 MSTORE PUSH1 0x20 ADD DUP3 DUP1 SLOAD PUSH2 0x249 SWAP1 PUSH2 0x61F JUMP JUMPDEST DUP1 ISZERO PUSH2 0x296 JUMPI DUP1 PUSH1 0x1F LT PUSH2 0x26B JUMPI PUSH2 0x100 DUP1 DUP4 SLOAD DIV MUL DUP4 MSTORE SWAP2 PUSH1 0x20 ADD SWAP2 PUSH2 0x296 JUMP JUMPDEST DUP3 ADD SWAP2 SWAP1 PUSH1 0x0 MSTORE PUSH1 0x20 PUSH1 0x0 KECCAK256 SWAP1 JUMPDEST DUP2 SLOAD DUP2 MSTORE SWAP1 PUSH1 0x1 ADD SWAP1 PUSH1 0x20 ADD DUP1 DUP4 GT PUSH2 0x279 JUMPI DUP3 SWAP1 SUB PUSH1 0x1F AND DUP3 ADD SWAP2 JUMPDEST POP POP POP POP POP DUP2 JUMP JUMPDEST PUSH1 0x0 PUSH1 0x1 DUP3 DUP2 SLOAD PUSH2 0x2AE SWAP1 PUSH2 0x61F JUMP JUMPDEST DUP2 LT PUSH2 0x2BD JUMPI PUSH2 0x2BC PUSH2 0x650 JUMP JUMPDEST JUMPDEST DUP2 SLOAD PUSH1 0x1 AND ISZERO PUSH2 0x2DC JUMPI SWAP1 PUSH1 0x0 MSTORE PUSH1 0x20 PUSH1 0x0 KECCAK256 SWAP1 PUSH1 0x20 SWAP2 DUP3 DUP3 DIV ADD SWAP2 SWAP1 MOD JUMPDEST SWAP1 SLOAD SWAP1 BYTE PUSH32 0x100000000000000000000000000000000000000000000000000000000000000 MUL SWAP1 POP SWAP2 SWAP1 POP JUMP JUMPDEST PUSH32 0x6162630000000000000000000000000000000000000000000000000000000000 PUSH1 0x0 DUP1 PUSH2 0x100 EXP DUP2 SLOAD DUP2 PUSH3 0xFFFFFF MUL NOT AND SWAP1 DUP4 PUSH1 0xE8 SHR MUL OR SWAP1 SSTORE POP PUSH32 0x7800000000000000000000000000000000000000000000000000000000000000 PUSH1 0x0 PUSH1 0x3 PUSH2 0x100 EXP DUP2 SLOAD DUP2 PUSH2 0xFFFF MUL NOT AND SWAP1 DUP4 PUSH1 0xF0 SHR MUL OR SWAP1 SSTORE POP JUMP JUMPDEST PUSH1 0x0 PUSH1 0x1 DUP1 SLOAD PUSH2 0x392 SWAP1 PUSH2 0x61F JUMP JUMPDEST SWAP1 POP SWAP1 POP SWAP1 JUMP JUMPDEST PUSH1 0x0 DUP1 SLOAD SWAP1 PUSH2 0x100 EXP SWAP1 DIV PUSH1 0xE8 SHL DUP2 JUMP JUMPDEST PUSH1 0x0 PUSH32 0xFFFF000000000000000000000000000000000000000000000000000000000000 DUP3 AND SWAP1 POP SWAP2 SWAP1 POP JUMP JUMPDEST PUSH2 0x3DF DUP2 PUSH2 0x3AA JUMP JUMPDEST DUP3 MSTORE POP POP JUMP JUMPDEST PUSH1 0x0 PUSH1 0x20 DUP3 ADD SWAP1 POP PUSH2 0x3FA PUSH1 0x0 DUP4 ADD DUP5 PUSH2 0x3D6 JUMP JUMPDEST SWAP3 SWAP2 POP POP JUMP JUMPDEST PUSH1 0x0 DUP2 MLOAD SWAP1 POP SWAP2 SWAP1 POP JUMP JUMPDEST PUSH1 0x0 DUP3 DUP3 MSTORE PUSH1 0x20 DUP3 ADD SWAP1 POP SWAP3 SWAP2 POP POP JUMP JUMPDEST PUSH1 0x0 JUMPDEST DUP4 DUP2 LT ISZERO PUSH2 0x43A JUMPI DUP1 DUP3 ADD MLOAD DUP2 DUP5 ADD MSTORE PUSH1 0x20 DUP2 ADD SWAP1 POP PUSH2 0x41F JUMP JUMPDEST PUSH1 0x0 DUP5 DUP5 ADD MSTORE POP POP POP POP JUMP JUMPDEST PUSH1 0x0 PUSH1 0x1F NOT PUSH1 0x1F DUP4 ADD AND SWAP1 POP SWAP2 SWAP1 POP JUMP JUMPDEST PUSH1 0x0 PUSH2 0x462 DUP3 PUSH2 0x400 JUMP JUMPDEST PUSH2 0x46C DUP2 DUP6 PUSH2 0x40B JUMP JUMPDEST SWAP4 POP PUSH2 0x47C DUP2 DUP6 PUSH1 0x20 DUP7 ADD PUSH2 0x41C JUMP JUMPDEST PUSH2 0x485 DUP2 PUSH2 0x446 JUMP JUMPDEST DUP5 ADD SWAP2 POP POP SWAP3 SWAP2 POP POP JUMP JUMPDEST PUSH1 0x0 PUSH1 0x20 DUP3 ADD SWAP1 POP DUP2 DUP2 SUB PUSH1 0x0 DUP4 ADD MSTORE PUSH2 0x4AA DUP2 DUP5 PUSH2 0x457 JUMP JUMPDEST SWAP1 POP SWAP3 SWAP2 POP POP JUMP JUMPDEST PUSH1 0x0 DUP1 REVERT JUMPDEST PUSH1 0x0 DUP2 SWAP1 POP SWAP2 SWAP1 POP JUMP JUMPDEST PUSH2 0x4CA DUP2 PUSH2 0x4B7 JUMP JUMPDEST DUP2 EQ PUSH2 0x4D5 JUMPI PUSH1 0x0 DUP1 REVERT JUMPDEST POP JUMP JUMPDEST PUSH1 0x0 DUP2 CALLDATALOAD SWAP1 POP PUSH2 0x4E7 DUP2 PUSH2 0x4C1 JUMP JUMPDEST SWAP3 SWAP2 POP POP JUMP JUMPDEST PUSH1 0x0 PUSH1 0x20 DUP3 DUP5 SUB SLT ISZERO PUSH2 0x503 JUMPI PUSH2 0x502 PUSH2 0x4B2 JUMP JUMPDEST JUMPDEST PUSH1 0x0 PUSH2 0x511 DUP5 DUP3 DUP6 ADD PUSH2 0x4D8 JUMP JUMPDEST SWAP2 POP POP SWAP3 SWAP2 POP POP JUMP JUMPDEST PUSH1 0x0 PUSH32 0xFF00000000000000000000000000000000000000000000000000000000000000 DUP3 AND SWAP1 POP SWAP2 SWAP1 POP JUMP JUMPDEST PUSH2 0x54F DUP2 PUSH2 0x51A JUMP JUMPDEST DUP3 MSTORE POP POP JUMP JUMPDEST PUSH1 0x0 PUSH1 0x20 DUP3 ADD SWAP1 POP PUSH2 0x56A PUSH1 0x0 DUP4 ADD DUP5 PUSH2 0x546 JUMP JUMPDEST SWAP3 SWAP2 POP POP JUMP JUMPDEST PUSH2 0x579 DUP2 PUSH2 0x4B7 JUMP JUMPDEST DUP3 MSTORE POP POP JUMP JUMPDEST PUSH1 0x0 PUSH1 0x20 DUP3 ADD SWAP1 POP PUSH2 0x594 PUSH1 0x0 DUP4 ADD DUP5 PUSH2 0x570 JUMP JUMPDEST SWAP3 SWAP2 POP POP JUMP JUMPDEST PUSH1 0x0 PUSH32 0xFFFFFF0000000000000000000000000000000000000000000000000000000000 DUP3 AND SWAP1 POP SWAP2 SWAP1 POP JUMP JUMPDEST PUSH2 0x5CF DUP2 PUSH2 0x59A JUMP JUMPDEST DUP3 MSTORE POP POP JUMP JUMPDEST PUSH1 0x0 PUSH1 0x20 DUP3 ADD SWAP1 POP PUSH2 0x5EA PUSH1 0x0 DUP4 ADD DUP5 PUSH2 0x5C6 JUMP JUMPDEST SWAP3 SWAP2 POP POP JUMP JUMPDEST PUSH32 0x4E487B7100000000000000000000000000000000000000000000000000000000 PUSH1 0x0 MSTORE PUSH1 0x22 PUSH1 0x4 MSTORE PUSH1 0x24 PUSH1 0x0 REVERT JUMPDEST PUSH1 0x0 PUSH1 0x2 DUP3 DIV SWAP1 POP PUSH1 0x1 DUP3 AND DUP1 PUSH2 0x637 JUMPI PUSH1 0x7F DUP3 AND SWAP2 POP JUMPDEST PUSH1 0x20 DUP3 LT DUP2 SUB PUSH2 0x64A JUMPI PUSH2 0x649 PUSH2 0x5F0 JUMP JUMPDEST JUMPDEST POP SWAP2 SWAP1 POP JUMP JUMPDEST PUSH32 0x4E487B7100000000000000000000000000000000000000000000000000000000 PUSH1 0x0 MSTORE PUSH1 0x32 PUSH1 0x4 MSTORE PUSH1 0x24 PUSH1 0x0 REVERT INVALID LOG2 PUSH5 0x6970667358 0x22 SLT KECCAK256 0xEC SWAP11 0x29 0xB4 0xC2 NUMBER SWAP5 DUP3 REVERT DUP14 0xB1 0x4E 0xE4 MUL SELFBALANCE 0xE4 0xD1 EQ PUSH14 0xFAE44226CFD40BC94BC290015D64 PUSH20 0x6F6C634300081200330000000000000000000000 "
				},
				"gasEstimates": {
					"creation": {
						"codeDepositCost": "343400",
						"executionCost": "infinite",
						"totalCost": "infinite"
					},
					"external": {
						"b2()": "2544",
						"b3()": "2534",
						"db1()": "infinite",
						"getElem(uint256)": "7187",
						"getLength()": "2614",
						"pushElement()": "74817",
						"setter()": "48750"
					}
				},
				"methodIdentifiers": {
					"b2()": "0add6ef2",
					"b3()": "e9b61909",
					"db1()": "104f4014",
					"getElem(uint256)": "166d68dc",
					"getLength()": "be1c766b",
					"pushElement()": "0317d5f3",
					"setter()": "3f3108f7"
				}
			},
			"storageLayout": {
				"storage": [
					{
						"astId": 3,
						"contract": "bytearrray.sol:btArray",
						"label": "b3",
						"offset": 0,
						"slot": "0",
						"type": "t_bytes3"
					},
					{
						"astId": 5,
						"contract": "bytearrray.sol:btArray",
						"label": "b2",
						"offset": 3,
						"slot": "0",
						"type": "t_bytes2"
					},
					{
						"astId": 8,
						"contract": "bytearrray.sol:btArray",
						"label": "db1",
						"offset": 0,
						"slot": "1",
						"type": "t_bytes_storage"
					}
				],
				"types": {
					"t_bytes2": {
						"encoding": "inplace",
						"label": "bytes2",
						"numberOfBytes": "2"
					},
					"t_bytes3": {
						"encoding": "inplace",
						"label": "bytes3",
						"numberOfBytes": "3"
					},
					"t_bytes_storage": {
						"encoding": "bytes",
						"label": "bytes",
						"numberOfBytes": "32"
					}
				}
			},
			"userdoc": {
				"kind": "user",
				"methods": {},
				"version": 1
			}
		}
	}
}